:020000040002F8
:1060000088810020DD630200E5630200E76302008F
:10601000E9630200EB630200ED6302000000000090
:10602000000000000000000000000000EF6302001C
:10603000F163020000000000F3630200F563020058
:10604000716C0200F7630200E97002007D6D0200CE
:10605000F7630200F7630200596B0200F763020066
:10606000F7630200D1700200F7630200F7630200D9
:10607000F7630200F7630200F7630200F7630200B0
:10608000F7630200C56C0200F7630200F7630200C9
:10609000F7630200F7630200416E0200F76302003B
:1060A000F7630200F7630200F7630200F763020080
:1060B000F7630200F7630200000000000000000028
:1060C000F7630200F7630200F7630200F763020060
:1060D000DD6C0200F7630200F763020000000000BD
:1060E00000000000000000000000000000000000B0
:1060F00000000000000000000000000000000000A0
:10610000000000000000000000000000000000008F
:10611000000000000000000000000000000000007F
:10612000000000000000000000000000000000006F
:10613000000000000000000000000000000000005F
:10614000000000000000000000000000000000004F
:10615000000000000000000000000000000000003F
:10616000000000000000000000000000000000002F
:10617000000000000000000000000000000000001F
:10618000000000000000000000000000000000000F
:1061900000000000000000000000000000000000FF
:1061A00000000000000000000000000000000000EF
:1061B00000000000000000000000000000000000DF
:1061C00000000000000000000000000000000000CF
:1061D00000000000000000000000000000000000BF
:1061E00000000000000000000000000000000000AF
:1061F000000000000000000000000000000000009F
:10620000DFF80CD000F092F900480047D5D1020029
:106210008881002000B583B002900091019244F281
:10622000010071466A4601F00DFB03B000BD00009D
:1062300030B450E8012F93B2C48923448489A34227
:1062400028BF1B1B0489A34202BFBFF32F8F00206E
:1062500007E0C3EA020340E80134002CE9D14FF023
:1062600001000A6030BC704750E8012FC2EA0242C8
:1062700040E801210029F7D1704730B450E8022FDF
:106280001FFAA2F3C488A34202BFBFF32F8F0020DE
:106290000DE0C48923448489A34228BF1B1BC2EAA2
:1062A000034340E80234002CE8D14FF001000A60BB
:1062B00030BC704750E8022FC2EA224240E8022177
:1062C0000029F7D17047034653E8022FD988B2EB73
:1062D000324F4FF0000017BF92B241EA014142EA4B
:1062E000014104E05A68B2EB324F08BF012043E895
:1062F0000212002AE8D1704730B4044654E8000F77
:106300000D4644E80053002BF8D1156030BC7047AF
:1063100030B4044654E8000F40EA010544E8005355
:10632000002BF7D1156030BC704730B4044654E8F8
:10633000000F00EA010544E80053002BF7D1156077
:1063400030BC704730B4044654E8000F80EA0105C1
:1063500044E80053002BF7D1156030BC704730B4CF
:10636000044654E8000F00EB010544E80053002BFD
:10637000F7D1156030BC704730B4044654E8000FC4
:10638000A0EB010544E80053002BF7D1156030BCA9
:10639000704770B404464FF0000054E8006F0D6879
:1063A000AE4207BF44E80023012044E800630E60CA
:1063B000002B1CBF0020F0E770BC704730B40446CF
:1063C00054E8000F88422CBF451A054644E80053A4
:1063D000002BF5D1156030BC70470000064880479F
:1063E00006480047FEE7FEE7FEE7FEE7FEE7FEE7BA
:1063F000FEE7FEE7FEE7FEE7596E020001620200DB
:106400002DE9F05F0546002092469B4688460646E9
:10641000814640241BE0284641464746224600F07C
:1064200074F853465A46C01A914110D31146184683
:10643000224600F016F82D1A67EB01084F46224657
:106440000120002100F00DF817EB00094E41201E3D
:10645000A4F10104DFDC484631462A464346BDE844
:10646000F09F202A04DB203A00FA02F10020704756
:106470009140C2F1200320FA03F319439040704782
:10648000004870471869030040EA01039B0703D0E6
:1064900009E008C9121F08C0042AFAD203E011F863
:1064A000013B00F8013B521EF9D27047D2B201E025
:1064B00000F8012B491EFBD270470022F6E710B509
:1064C00013460A4604461946FFF7F0FF204610BD62
:1064D000421C10F8011B0029FBD1801A704730B50F
:1064E00004460020034600E05B1C934203D2E05CBC
:1064F000CD5C401BF8D030BD034611F8012B00F8ED
:10650000012B002AF9D118467047202A04DB203AD3
:1065100021FA02F00021704721FA02F3D040C2F1C3
:10652000200291400843194670470000064C074D71
:1065300006E0E06840F0010394E807009847103453
:10654000AC42F6D3FFF760FE0C8403002C840300FA
:1065500070B58C1810F8015B15F0070301D110F825
:10656000013B2A1106D110F8012B03E010F8016B52
:1065700001F8016B5B1EF9D12B0705D40023521ED5
:106580000DD401F8013BFAE710F8013BCB1A921C3D
:1065900003E013F8015B01F8015B521EF9D5A1423B
:1065A000D8D3002070BD10B50446012C06D0022CB3
:1065B0007BD0032C77D0042C76D118E10221042063
:1065C00000F0CCF90A2007F0DDFCFF210D2000F0DF
:1065D000C5F90A2007F0D6FCFF210E2000F0BEF915
:1065E0000A2007F0CFFCFF210F2000F0B7F90A20A6
:1065F00007F0C8FC0021102000F0B0F90A2007F0D5
:10660000C1FC0021112000F0A9F90A2007F0BAFC12
:106610002021152000F0A2F90A2007F0B3FC602128
:10662000052000F09BF90A2007F0ACFC6021062051
:1066300000F094F90A2007F0A5FC6021072000F083
:106640008DF90A2007F09EFC6021082000F086F9F1
:106650000A2007F097FC6021092000F07FF90A204A
:1066600007F090FC60210A2000F078F90A2007F07A
:1066700089FC60210B2000F071F90A2007F082FCF0
:1066800060210C2000F06AF90A2007F07BFC00F082
:106690004BF9282007F076FC00F0F6F80A2007F006
:1066A00071FCEFE001E058E0EBE0FF210D2000F08D
:1066B00055F90A2007F066FCFF210E2000F04EF984
:1066C0000A2007F05FFC2021152000F047F90A207E
:1066D00007F058FC6021052000F040F90A2007F07F
:1066E00051FC6021062000F039F90A2007F04AFC2D
:1066F0006021072000F032F90A2007F043FC6021F6
:10670000082000F02BF90A2007F03CFC602109204A
:1067100000F024F90A2007F035FC60210A2000F07F
:106720001DF90A2007F02EFC60210B2000F016F95D
:106730000A2007F027FC60210C2000F00FF90A2046
:1067400007F020FC00F0F0F8282007F01BFC00F018
:106750009BF80A2007F016FC94E0C021022000F00C
:10676000FDF80A2007F00EFC0121052000F0F6F8E4
:106770000A2007F007FC0121062000F0EFF80A20AC
:1067800007F000FC0121072000F0E8F80A2007F0DC
:10679000F9FB0121082000F0E1F80A2007F0F2FBE4
:1067A0000121092000F0DAF80A2007F0EBFB0121B3
:1067B0000A2000F0D3F80A2007F0E4FB01210B20A7
:1067C00000F0CCF80A2007F0DDFB01210C2000F0DE
:1067D000C5F80A2007F0D6FB00F0A6F8282007F03D
:1067E000D1FB00F051F80A2007F0CCFB4AE0D021A1
:1067F000022000F0B3F8642007F0C4FB052108462E
:1068000000F0ACF80A2007F0BDFB0521062000F0DF
:10681000A5F80A2007F0B6FB0521072000F09EF836
:106820000A2007F0AFFB0521082000F097F80A20A6
:1068300007F0A8FB0521092000F090F80A2007F0D6
:10684000A1FB05210A2000F089F80A2007F09AFB35
:1068500005210B2000F082F80A2007F093FB0521A8
:106860000C2000F07BF80A2007F08CFB00F05CF8AD
:10687000282007F087FB00F007F80A2007F082FBCA
:1068800000E000BF00BF10BD10B503F006FD1020F2
:1068900000F0C2F8FA2000E0401E0028FCDC03F003
:1068A000EFFC012007F06EFB10BD10B503F0F5FC06
:1068B000062000F0B1F8012007F064FB03F0E0FCD3
:1068C00010BD000070B5044604F12000C5B203F00D
:1068D000E4FC284600F0A0F8002000F09DF800201D
:1068E00000F09AF80349085503F0CAFC0148005D1E
:1068F00070BD00006C61002010B503F0CEFC1120CB
:1069000000F08AF803F0BCFC012007F03BFB10BD4F
:1069100010B503F0C2FC042000F07EF8012007F05F
:1069200031FB03F0ADFC10BD10B503F0B6FC082040
:1069300000F072F8FA2000E0401E0028FCDC03F0B2
:106940009FFC10BD10B503F0A8FC022000F064F815
:1069500003F096FC012007F015FB10BD70B504464E
:106960000D4604F14000C6B203F097FC304600F03B
:1069700053F8002000F050F8284600F04DF803F0DE
:106980007FFC0148055570BD6C61002010B50020EA
:10699000FFF798FF0446204610BD000010B50446DE
:1069A0001C48007820B100201A490870FFF7CAFF80
:1069B000FFF7A2FFA4F15200092828D2DFE800F077
:1069C00021131A27270C27270500052005F08CFE28
:1069D0000120FFF7E8FD1BE0052005F085FE022001
:1069E000FFF7E1FD14E0052005F07EFE0320FFF730
:1069F000DAFD0DE0052005F077FE0420FFF7D3FD5A
:106A000006E0FFF785FF01200249087000E000BFA3
:106A100000BF10BD752F00202DE9F04F85B0044652
:106A20001548047000BF154F80464FF00109DFF88C
:106A300050A0CB4600200490CDF80080CDF8049003
:106A4000CDF808A0CDF80CB000226946381D09F039
:106A500039FE04900498064636B100BF09A25F21B2
:106A60003046FFF7D7FB00BF00BF05480578284632
:106A700005B0BDE8F08F00006C5F00206068030087
:106A80006C6000202E2E5C2E2E5C2E2E5C2E2E5C3A
:106A90002E2E5C2E2E5C41445331323939447276AD
:106AA0005C414453313239395F4C696272617279A9
:106AB0002E63000010B5122007F087FF10BD10B53F
:106AC000122007F038FF122007F0C9FF10BD10B5E3
:106AD0000021132007F0FEFE0021142007F0FAFE2B
:106AE00010BD000010B5132007F08BFF08B90EF0A1
:106AF00025F8142007F085FF012810D1132007F096
:106B000080FF01280BD10F480078401C0D49087008
:106B100008460078052802D1142002F095FC0A48A6
:106B2000007801280DD1094991F8540074DF04461A
:106B30003CB900200449087002F048FB162002F01E
:106B400083FC10BD942C0020882C00200C310020E8
:106B500000210170704700002DE9F84F0026002049
:106B600000904FF480770125002410E0384607F0AC
:106B7000B3FF40B100BF25480068284018B138462F
:106B800007F09CFF2E436D00381D87B2641C082C53
:106B9000ECD34FF4BE7007F09FFF50B14FF4BE70BE
:106BA00007F08CFF46F000466A460121002007F0FE
:106BB000E7FEF0B210B3012500241DE005EA06004F
:106BC000C0B100BF124850F82400C0F30420814631
:106BD00000BF0F4850F82400C0F301408246204611
:106BE00002F0D8FF8046B8F1000F02D05146484667
:106BF000C04700BF6D00641C082CDFD306F00040C6
:106C000010B168460CF0FAF9BDE8F88F0463004053
:106C10001065004038B5152009F0DCFA0E48006810
:106C2000009000208DF801000C4A6946152009F0FB
:106C30004DFA044600BF25463DB100BF08A240F210
:106C40007D412846FFF7E6FA00BF00BF012115206D
:106C500009F0E6F938BD0000D4620300EDC402007B
:106C60002E2E5C2E2E5C2E2E5C6D61696E2E6300C6
:106C700010B54FF4807007F068F980B14FF4807060
:106C800007F06CF9012007F073F90D48407930B92D
:106C900001200B49487108460168002088474FF4DD
:106CA000827007F052F950B14FF4827007F056F934
:106CB000022007F05DF9024801680120884710BDF5
:106CC000442E002010B5034A1068034A1168884713
:106CD00010BD0000C02E0020BC2E002010B50422E4
:106CE0000021024805F00CFE10BD000000400240EB
:106CF00010B500F02BFA10BD2DE9F0470746884685
:106D00001646C24607EB47011B4800EBC109D9F8FC
:106D1000140020B1012811D0022826D11EE04846D7
:106D200000F04CFA0546B54201D2002405E0344695
:106D300032465146484600F088FA18E0484600F0CE
:106D40003DFA0546B54201D2284600E030460446E9
:106D500022465146484600F078FA08E0324651464D
:106D6000484600F039FA044601E0002400BF00BFA5
:106D70002046BDE8F0870000B85C002010B502494D
:106D8000024805F047FE10BD54540020003000407A
:106D90001FB5184B0FCB8DE80F00FF208DF80300B7
:106DA0000A208DF8010004208DF8020005208DF8DE
:106DB000000006208DF8040080070290FF208DF867
:106DC000050000208DF80D0001208DF80C0000BF9B
:106DD00000231A466946084807F02AF9044634B1E8
:106DE00000BF06A23A212046FFF714FA00BF00BFF9
:106DF0001FBD000078680300606803002E2E5C2E23
:106E00002E5C2E2E5C2E2E5C2E2E5C2E2E5C414493
:106E100053313239394472765C4144533132393915
:106E20005F4C6962726172792E63000010B5034C89
:106E3000201D09F0F1FB00BF10BD000060680300D9
:106E400010B508F023FF10BD0148024908607047E3
:106E50000090D003D430002010B506F003FC28B118
:106E60008C480088C0F304208B49086006F056FC6B
:106E700010B18A488A49486706F0B2FC30B18548AB
:106E8000E0380068C0F342308649086006F0D6FC5E
:106E900028B18548006820F080708349086006F0BA
:106EA000EFFC48B10020814908604FF08041C1F8F3
:106EB00010017C49091F086006F010FD18B103207D
:106EC00078496431086006F02BFD68B105207849E7
:106ED0000860012076497831086000207449083143
:106EE00008603F20091F086006F03CFD002855D0CF
:106EF0006848E03000686F4908606648E430006820
:106F0000091D08606348E8300068091D0860614891
:106F1000EC300068091D08605E48F0300068091D0B
:106F200008605C48F4300068091D08605948F83072
:106F300000686049203108605648FC300068091D2F
:106F400008605D480068091D08605B48001D006816
:106F5000091D0860584808300068091D0860564837
:106F60000C300068091D0860534810300068514912
:106F700040310860504814300068091D08604E48D0
:106F800018300068091D08604B481C300068091D56
:106F90000860494820300068091D086006F034FB8D
:106FA00030B13C48CC38006800F04F0043490860DD
:106FB00006F086FB40B14248006800F0010018B1BD
:106FC0006FF001003E49086006F0CAFB28B13D4859
:106FD000006840F480603B490860334874380068BA
:106FE00040F4700030497439086000BF00BF00BF32
:106FF000BFF34F8F00BF00BF00BF00BF00BF00BF87
:10700000BFF36F8F00BF00BF00BF00BF06F0C8FB1B
:1070100020B12D48006823491C31086000BF2A4870
:10702000001D006800F0010080B3012009F0A0FB02
:107030002548001D006820F001004FF01021C1F824
:107040000C0209F09FFB002009F092FB00BF00BF7B
:1070500000BF00BF00BFBFF34F8F00BF00BF00BF26
:107060001148F038006800F4E06018490843001D3A
:107070000D49F039086000BF00BF00BFBFF34F8F5C
:1070800000BF00BF00BF00BF00BFFDE7FFE7FFF785
:10709000DBFE10BD24030010403501400DF0ADBAF9
:1070A00000C007403C050040FCED00E00C01004042
:1070B0001056004020C5004024040010E40E00409B
:1070C000000400403C170040081200100000FA05C0
:1070D00010B504220249034805F06EFC10BD000003
:1070E000485400200090004010B5024908688047CD
:1070F00010BD00004C2E002038B50E4800680090EE
:1071000000208DF801000C4A6946132008F0DEFFCC
:10711000044600BF25463DB100BF08A240F26A41C7
:107120002846FFF777F800BF00BF0121132008F0C1
:1071300077FF38BDD0620300EDC402002E2E5C2E16
:107140002E5C2E2E5C6D61696E2E630010B5124CA4
:1071500002202061606111A0A0611349E1614FF438
:10716000007121620021A1626162E1620BA0A06452
:107170000E49E164102121650021A1656165E16589
:107180000BA1E01DFFF7B8F90AA12046FFF7B4F9FB
:107190002020A07110BD0000A05C00205465726D1D
:1071A000696E616C00000000185D0020185F00200F
:1071B00052545400534547474552000010B501460C
:1071C0000A69CB689A4204D88C68641EE41AA01835
:1071D00001E0D41A601E10BD2DE9F047044689462F
:1071E00017464FF0000AE56800BFD4F81080A845A4
:1071F00003D9A8EB0500461E04E0A5EB0800401CDF
:10720000A1680E1AA068401BB04201D9304601E0C7
:10721000A068401B0646BE4201D2304600E0384618
:1072200006466168481932464946FFF72DF9B244CF
:10723000B144BF1B3544A068A84200D10025E560D9
:10724000002FD2D15046BDE8F0872DE9F047044623
:1072500089461546E668A068871BAF4208D9616871
:1072600088192A464946FFF70FF97019E06010E0C7
:10727000B8466168881942464946FFF705F9A5EB0B
:10728000070809EB070142466068FFF7FDF8C4F8FC
:107290000C80BDE8F08702E008C8121F08C1002A70
:1072A000FAD170477047002001E001C1121F002A87
:1072B000FBD170470146202908DA012088400A4A9C
:1072C000104008B1012070470020FCE7402909DA8E
:1072D000A1F12000012202FA00F008B10120F2E73A
:1072E0000020F0E70120EEE7FC06FFBD00BFEFF352
:1072F0001081084672B67047F8B505460E46D6B9F5
:10730000694628460AF068FE044643F202018C42B0
:107310000AD000BF274637B100BF3B4AB2213846EA
:10732000FEF778FF00BF00BF9DF80000C0F34000EB
:1073300000B1F8BD00BF002128460AF05FFE0446F8
:10734000002C5ED0112C5CD00D2C21D12F49304A5D
:10735000891AC908022242EA01402A462D4907F04B
:1073600057FE1321284676DF0446002C49D02046DC
:1073700008F0AAFD07462549254A891AC9080222AC
:1073800042EA01402B463A4623A107F04DFE38E081
:107390000B2C0BD11D491E4A891AC908022242EA48
:1073A00001402A462A4907F033FE2AE043F2020050
:1073B00084420BD11549164A891AC908022242EAA9
:1073C00001402A46234907F023FE1AE0204608F030
:1073D0007BFD07460D490E4A891AC908012242EA77
:1073E00001402B463A461CA107F01EFE00BF27466F
:1073F00037B100BF044AE1213846FEF70BFF00BF5A
:1074000000BF00BF95E70000CC7403007484030044
:107410003C8403006C70030073645F626C655F679B
:1074200061705F646973636F6E6E65637428292091
:1074300072657475726E6564202573206F6E2063AB
:107440006F6E6E5F68616E646C652025642E00004F
:107450002C710300E0700300417373657274696EF0
:10746000672E20706D5F636F6E6E5F7365637572FC
:107470006528292072657475726E656420257320F5
:107480006F6E20636F6E6E5F68616E646C65202541
:10749000642E000070B505460C4605B10CB90020FD
:1074A00070BD287840082178B0EB510F01D0002042
:1074B000F6E70622611C681CFFF711F808B90120E5
:1074C000EEE70020ECE7014601F0030008B90120D7
:1074D00070470020FCE7024650680068401E0840E4
:1074E00008B9012070470020FCE70246002104E0B3
:1074F000505C08B101207047491C0629F8D30020D0
:10750000F9E710B50346D868884206D88818401EA7
:107510001C69A04201D8012010BD0020FCE700003A
:1075200010B504466CB10848C068A04209D80648A6
:107530000069A04205D3204605F0FFFA08B10120FA
:1075400010BD0020FCE70000D830002070B50446D4
:107550000D4604F22740FFF7C8FF0646012D06D06E
:10756000022D0DD0032D11D0042D19D113E0A079D7
:1075700028B194F8240010B90EB1012070BD00BFED
:10758000E07910B10EB10220F8E700BF207A08B10F
:107590000320F3E700BF607A08B10420EEE700BFE4
:1075A0000020EBE70146481C052290FBF2F302FBAA
:1075B0001300C0B27047014691F82420012A01D17E
:1075C000EE2000E01F20704710B5012202210020AC
:1075D00001F00CFF044600BF1CB1072C01D020466F
:1075E00010BD00BF07220221012001F0FFFE04466A
:1075F00000BF1CB1072C01D02046F1E700BF0A22D2
:107600000221002001F0F2FE044600BF1CB1072C4D
:1076100001D02046E4E700BF0020E1E730B5ADB07F
:1076200004200190AC2102A8FEF747FF02208DF84C
:10763000080000208DF80A0006208DF80B0001A834
:1076400003900121ADF854101049169101218DF8D5
:10765000841040212491002125910D482B9002A9EE
:107660000C4800F066FD044600BF25463DB100BF52
:1076700009A240F2AA212846FEF7CCFD00BF00BFB8
:107680000121044800F052FD2DB030BD1C2C00201B
:10769000950703000C3100202E2E5C2E2E5C2E2E22
:1076A0005C6D61696E2E630070B50446012C02D1D9
:1076B00002F0F4FE11E00321084800F001FE054647
:1076C00000BF2E463EB100BF05A24FF44A713046BE
:1076D000FEF7A0FD00BF00BF00BF70BD0C31002051
:1076E0002E2E5C2E2E5C2E2E5C6D61696E2E63003C
:1076F00070B58CB004460D461646002005E0C0F17A
:107700000F01615C0DF80010401C1028F7D30D210B
:1077100004A8FEF7D2FE002005E02A5CC0F10F03AA
:1077200004A9CA54401C0328F7D3684646DF00204A
:1077300005E0C0F10F0208A9895C3154401C032800
:10774000F7D30CB070BD10B50446022001F0E2FC86
:1077500010BD000010B5044602480178204600F034
:107760003FFF10BD282E002010B5002407E0074978
:10777000096811F83400012108F052FC641C044827
:1077800000788442F3D3002010BD0000602E00205A
:10779000642E00202DE9F84306460D4617460A2FB1
:1077A00002D20720BDE8F88308F0A6FD38B908F03A
:1077B00039FD044600BF204600B1F3E700BF18487A
:1077C0000660184805701848076010211748FEF732
:1077D00074FE0021164A1160516015E006EBC508E1
:1077E00014480068009098F802008DF8010098F89D
:1077F0000000114A694608F069FC044600BF2046B3
:1078000000B1CFE700BF00BF281EA5F10101CDB236
:10781000E4D10A4A00210A4800F044F9C2E7000016
:10782000602E0020642E0020682E00209854002036
:10783000902E00204465030099BD020051A502006E
:10784000406503002DE9FE4307460E46144672B616
:1078500000BF07F0DDFC00BF00BF07F041FA0028C1
:10786000FBD100BF00BF012F0CD06FF48050384413
:1078700098B1B0F5405F2CD06FF440510844002817
:1078800047D115E03149324A891AC908012242EA32
:10789000014030A107F0B2FB47E02C492C4A891A7D
:1078A000C908012242EA014032A107F0A7FB3CE0EF
:1078B00025462649DFF898C0A1EB0C01C9084FF016
:1078C000010C4CEA014034A1D5E9003207F0ACFBD1
:1078D0002BE02546A86808F0F7FA8046D5E90010A5
:1078E0008DE8430019491A4BC91AC908012343EA14
:1078F000014043462FA1AA6807F0D0FB1349144A60
:10790000891AC908012242EA014034A107F076FB36
:107910000BE00E490E4A891AC908012242EA0140C9
:10792000324633A107F074FB00BF00BF00BF3648EA
:10793000006800F0010000B100BE00BF22463146E1
:10794000384600F063F8BDE8FE8300001C850300A4
:107950003C840300534F46544445564943453A201E
:10796000415353455254494F4E204641494C45449A
:1079700000000000534F46544445564943453A20C1
:10798000494E56414C4944204D454D4F5259204196
:107990004343455353000000415353455254494F0C
:1079A0004E204641494C45442061742025733A25B8
:1079B000750000004552524F52202575205B2573FB
:1079C0005D2061742025733A25750D0A50432061AE
:1079D000743A20307825303878000000456E6420F5
:1079E0006F66206572726F72207265706F727400BC
:1079F000554E4B4E4F574E204641554C54206174C6
:107A00002030782530385800F0ED00E018B501231B
:107A100000939DF800301E4B186059609A606FF417
:107A20008043034463B1012B19D1194BDA60DB6841
:107A30001B68174CA3612346DB685B68E3610EE0BB
:107A4000134B1A611B699B68114C636123461B69C8
:107A50001B68A36123461B695B68E36100BF00BF2D
:107A60000B4B1B680A4B5B68094B9B68084BDB6838
:107A7000074B1B69064B5B69054B9B69044BDB6934
:107A800072B600BF9DF80030002BFBD162B618BD66
:107A9000A854002010B5024802F014FE10BD0000EA
:107AA000982E002030B503460C460AB9072030BD99
:107AB00019684FF0FF358D60CD604A61012C01D10E
:107AC000012000E0002008610020F0E738B51348ED
:107AD000006800900823582211491248006805F0F8
:107AE0007AFF04460CB1204638BD0F4A69460F485C
:107AF00002F0EEFD04460CB12046F5E701210B48EB
:107B000002F08CFE01230A4A1946084802F0ACFD37
:107B10000120084908702046E6E700005865030088
:107B2000C854002048650300773A0300982E0020CF
:107B3000FFFF7F00A42E00202DE9F84306460D46E6
:107B40009046344600200090684600F053F84FF00D
:107B5000FF33D4E9021059405840014308D104F0E2
:107B6000FDF8401941F10001C4E90201012700E0DC
:107B700000279DF8000000F043F817B90020BDE889
:107B8000F883C4F81880206900B1256121460020DF
:107B90000DF052FDF3E7F8B50446254600200090AD
:107BA000684600F027F84FF0FF33D5E9021059403E
:107BB0005840014301D1002604E04FF0FF31A96095
:107BC000E96001269DF8000000F01AF80EB90020C7
:107BD000F8BD294601200DF02FFDF9E710B5002072
:107BE00003490870002102200DF026FD10BD0000A1
:107BF000A42E002010B5044620460CF09DF810BDC0
:107C000070B5044625460E488068B0B1ADB9FFF79F
:107C10006DFB06460A4800680A4908600848406843
:107C20004FF0E021C1F804010020054988601EB929
:107C300000BF62B600BF00BF00BF00BF70BD000044
:107C40003055002000E100E0F8B505460C46174627
:107C50002088001DB84201D90C20F8BD684679DFA4
:107C6000064600BF304600B1F7E700BF0320218879
:107C700068542088401C208019202188685420885E
:107C8000401C208020884119BDF800000DF0CEFD79
:107C90002188084420800020DFE770B504460D46A7
:107CA000204605F00FF970BD10B50446637903F066
:107CB00003022179208805F0C3F810BD10B50446F1
:107CC000207918B9204600F007F803E02046FFF7B6
:107CD000EBFF00BF00BF10BD2DE9FE4307463E8805
:107CE0004FF00008002259480178304600F08EFC21
:107CF0007879C0F3800028B90021384609F070FB7C
:107D0000BDE8FE8306F5807188B201AB0122072130
:107D100009F086FC0546C5B1284608F0D5F881462D
:107D20004B494C4A891AC908012242EA01403346AC
:107D30004A46494907F078F9294630460CF046FB97
:107D40000021384609F04CFBDAE7304604F09AFB94
:107D500004464FF6FF718C421BD1029804F0E2FA00
:107D600004464FF6FF70844213D02146304604F09B
:107D700067FB3046FFF7EEFC58B930460CF0BAFA14
:107D80003046FFF7E7FC20B90021384609F028FB10
:107D9000B6E74FF6FF7084421FD109F057FE044644
:107DA0004FF6FF70844212D129492A4A891AC9081C
:107DB000012242EA014029A107F020F904213046BE
:107DC0000CF004FB0021384609F00AFB98E7214635
:107DD000304604F035FB4FF0010806F5807188B29B
:107DE0002246072109F0A4FC054625B901213846A1
:107DF00009F0F6FA28E0862D07D130460CF0ACFAEF
:107E00000121384609F0ECFA1EE0284608F05CF83B
:107E100081460F490F4A891AC908012242EA0140E6
:107E200033464A461A49009407F00EF9294630466F
:107E30000CF0CCFA0021384609F0D2FAB8F1000F64
:107E400002D0204604F006FB00BF59E7252E002093
:107E50007C8403003C8403008C770300436F756CC3
:107E600064206E6F7420616C6C6F63617465206E4A
:107E7000657720706565725F696420666F7220693E
:107E80006E636F6D696E6720626F6E642E00000016
:107E9000A8780300002114E00C48D0F81024012336
:107EA00008E000BFD0680079884201D1002303E0D8
:107EB000D0680268002AF4D100BF0BB108467047B1
:107EC000491C0A29E8DB4FF0FF30F8E78058002012
:107ED0002DE9F04104460F46154615B90E20BDE8C0
:107EE000F0810020286000BF0CB90E20F7E700BF2A
:107EF00000BF206808B90E20F1E700BF00BFE0888E
:107F0000C11700EB91718910A0EB810109B1072025
:107F1000E5E700BF384600F0DBFAC6B2142E01D107
:107F20000520DCE72079B04201DC0420D7E7E188B6
:107F3000206806FB010028600020D0E72DE9FC4105
:107F4000054688461646002437880020308095F87C
:107F50002D0058B13A463146404600F033FC044605
:107F600000BF204608B1BDE8FC8100BFA87850B131
:107F70003A4631464046FFF767FE044600BF2046BA
:107F800000B1F0E700BFE87860B1E97848B23B465D
:107F90003246414603F0D1F9044600BF204600B105
:107FA000E1E700BF686868B1696891F900003B4685
:107FB000324641460DF0F8FB044600BF204600B1B2
:107FC000D1E700BF288900280EDD434606220221A2
:107FD00005F10800CDE900670DF085FD044600BFFE
:107FE000204600B1BFE700BF288A00280EDD4346C7
:107FF0000722032105F11000CDE900670DF073FDA4
:10800000044600BF204600B1ADE700BF288B002822
:108010000EDD43461522142105F11800CDE9006755
:108020000DF061FD044600BF204600B19BE700BF94
:10803000286A58B13B4632464146286A01F0D3FFD0
:10804000044600BF204600B18DE700BF686A58B102
:108050003B4632464146686A05F03EF9044600BF99
:10806000204600B17FE700BF95F82C0000280BDD0B
:108070003B463246414628460CF05CFB044600BFB6
:10808000204600B16FE700BF287858B13B46324622
:108090004146284605F00FFA044600BF204600B1CD
:1080A00061E700BF20465EE7F8B504460E46154678
:1080B000002000902B466A463146204600F008F822
:1080C00007460FB90020F8BDBDF800002044FAE7CC
:1080D000F0B504460D461E4604B10AB90020F0BDB5
:1080E000002103E0605C401C084481B2481CA842A7
:1080F00006DA10888842F5DC481C205CB042F1D1D9
:10810000A94201DB0020EAE7881C87B2605C10B15D
:10811000605C401E00E0002083B213B1F818A84252
:1081200001DD0020DBE717801846D8E780F8301023
:10813000704770B504460D4605B10CB90E2070BDF0
:1081400005F1780001F0CFFE08B90720F7E700201D
:10815000A0702C2205F17801201DFEF795F9002072
:1081600084F83000D5F8A4006063D5F8A800A063B7
:108170004FF6FF70A4F8240404F58260C4F82004CC
:10818000002140F22C40C4F82614A4F82A1401550A
:10819000207810B9FF2084F8540004F15500C4F889
:1081A00010042046FFF707FA40F21441085304F286
:1081B000144204F155012846FFF7C0FE064600BFF1
:1081C000304600B1BBE700BF04F231204FF48361B9
:1081D00008512046FFF7EFF9A4F81C044FF4836020
:1081E000015904F21C4205F13C00FFF7A7FE0646C8
:1081F00000BF304600B1A2E700BF01215120015568
:10820000208B81B248200153012084F83C000021DA
:108210002164502001556169616404F13C02002130
:1082200004F1540072DF064600BF304600B186E715
:1082300000BF01202070304681E770B504460D462E
:108240002E462088102804D0112807D026280FD1C8
:1082500009E02146304608F091FB0AE0214630460D
:1082600008F09EFC05E02146304608F034FE00E0B0
:1082700000BF00BF70BD70B5044694F8540074DFB1
:10828000012084F82E04002084F8300400215020BE
:1082900001550621204603F06BF8054600BF28462D
:1082A00000B170BD00BFA178204600F009F8054676
:1082B00025B1A06B10B12846A16B88470020F0E7DC
:1082C00070B504460E46207808B9082070BDA67027
:1082D000002140F22C40C4F82614A4F82A140155B9
:1082E000A07910B1A078012809D0E07910B1A07868
:1082F000012804D0E07970B1A07802280BD1606B1E
:1083000030B1012084F82D040820616B884702E019
:10831000002084F82D0431462046FFF717F9A0709D
:10832000606BA0B1A078032802D0A07804280ED1F9
:10833000607960B194F82E0448B9002084F83004C4
:10834000012084F82F040720616B884702E0002099
:1083500084F82F04182104F13C00FEF7AEF8012048
:1083600084F83C0004F12C0009F05AFD20B194F887
:108370002C105120015502E001215120015594F8A3
:10838000240060B104F1280009F04AFD20B194F8FE
:1083900028105220015502E00121522001550021F0
:1083A00050200155A078052824D2DFE800F01F03F3
:1083B0000A11180004F13C0120460CF05BFA054656
:1083C00019E004F13C0120460CF03CFA054612E0AD
:1083D00004F13C0120460CF05FFA05460BE004F185
:1083E0003C0120460CF086FA054604E0002084F8A3
:1083F000310000E000BF00BFA07898B104F13C025A
:1084000004F15400D4F8201472DF05460DB128465B
:108410005CE794F8301094F8540073DF05460DB112
:10842000284653E7606B18B194F83100616B8847B8
:1084300000204BE72DE9F041044600BF14B90E209F
:10844000BDE8F08100BF1C2221461C48FEF71CF845
:108450001B481A490860206860B120687ADF054629
:108460000DB12846ECE7164821680A6802604968A1
:10847000416005E012487BDF05460DB12846DFE785
:10848000002617E006EB86000E4901EB800700BFCF
:108490004FF6FF70388000BF0B4800EB4610786045
:1084A0000A4A0021381DFFF7FDFA05460DB10320E9
:1084B000C6E7761C002EE5D00020C1E75C50002006
:1084C000202D00204850002028500020F55903009E
:1084D00010B50446204600F0AFF808B1204610BDA4
:1084E0001420FCE710B50446204600F0A5F820B1A2
:1084F0002146034805F011FB10BD0020FCE70000F9
:108500008850002070B504460D46164620460DF0F2
:10851000BBFA08B9002070BD034951F82400324667
:10852000294602F099FFF6E79450002010B5044662
:10853000204600F081F820B12146034805F0EDFA0D
:1085400010BD0020FCE700009050002010B504464C
:10855000204600F071F820B12146034805F0DDFA0D
:1085600010BD0020FCE700008C50002070B50446D0
:108570000025204600F060F850B12146054805F07E
:10858000CCFA06460EB1022000E00120054600BFED
:10859000284670BD8450002070B504460025204652
:1085A00000F04AF850B12146054805F0B6FA0646F3
:1085B0000EB1022000E00120054600BF284670BD34
:1085C0008050002010B51821044805F076FA0446C2
:1085D000182C00D110BDE0B2FCE70000785000205C
:1085E00070B505460C4620460DF04EFA50B12846AF
:1085F00000F022F830B1044901EB8400294605F06F
:108600008CFA70BD0020FCE79450002070B5054640
:108610000C46164620460DF037FA50B1284600F0B9
:108620000BF830B1034901EB84003246294602F0D1
:1086300075FE70BD9450002010B50446142C01DB6B
:10864000002010BD2146024805F067FAF9E7000056
:108650007C500020F8B5002000904D48007800289C
:108660004AD04C48808800904A4801684A480388AC
:108670006A464A4800F0DAFB044643F201418C4264
:108680001DD100231A46194643480088B1DF05462C
:1086900000BF2E463EB100BF41A240F24F313046EE
:1086A000FDF7B8FD00BF00BF4149424A891AC90819
:1086B000032242EA0140404906F0A0FC11E0082CE8
:1086C0000FD0132C0DD0052C0BD000BF25463DB18B
:1086D00000BF33A240F255312846FDF79BFD00BF95
:1086E00000BF4CB935480068BDF800100844334954
:1086F00008600020264908703FE0002225493048E4
:1087000006F03EFF044600BF25463DB100BF24A24F
:1087100040F263312846FDF77DFD00BF00BF1D48D4
:10872000808800901B4801681B4803886A461B48E4
:1087300000F07CFB0446082C0FD0132C0DD0052C28
:108740000BD000BF25463DB100BF15A240F26B31F2
:108750002846FDF75FFD00BF00BF54B91748006809
:10876000BDF8001008441549086000200849087049
:1087700003E001200649087007E0114806F04EFFAB
:1087800018B9034800780028B7D000BFF8BD000032
:10879000952C00208C2C0020182C0020FC2B002075
:1087A0002E2E5C2E2E5C2E2E5C6D61696E2E63006B
:1087B0001C8503003C8403001C690300402C00203E
:1087C000508503002DE9FC4105460C4617462088DC
:1087D0000930B84202D90C20BDE8FC8168466DDF43
:1087E000064600BF304600B1F6E700BF08202188EA
:1087F00068542088401C20801B20218868542088D1
:10880000401C208020882844DDF801100160BDF85C
:10881000051081802088801D20809DF80000400880
:1088200018B900202188685402E00120218868548A
:108830002088401C20800020CEE7000010B54FF0BB
:10884000FF3100203DDF044600BF204600B110BDCF
:1088500000BFB12100203CDF044600BF204600B12C
:10886000F5E700BF0448416901208847022006F06F
:1088700055FE0020EBE70000285F002010B50548FA
:108880000068416900208847FFF7D8FF044620466A
:1088900010BD0000702F002070B504460D4600BFCB
:1088A00004B970BD00BF2088102806D0112808D058
:1088B00051280AD0532810D10BE0204608F058F870
:1088C0000CE0204608F05EF908E0204608F0ACFA1B
:1088D00004E0204608F01EFA00E000BF00BF00BF21
:1088E000DFE7000070B504460426207B012802D093
:1088F000022822D109E002F039F805460DB9012617
:1089000002E0112D00D1062619E0607B142801DC5D
:10891000607B08B905260FE0627B04F10E01124866
:10892000FDF7B2FD607B1049091F886108460CF015
:108930000FF8054605B9012601E0022600BF00BF79
:10894000012E0FD0207B314600F058F8054625B1A6
:108950000648006841690320884704480068416967
:108960000220884770BD0000545F0020702F002057
:1089700070B505460E4600BF1E48006820B11D4870
:10898000406808B1012000E0002000B970BD00BFC0
:10899000184800F10801426828469047044600BF85
:1089A000082C24D07CB9002013490968487601219D
:1089B000022000F023F80446CCB10F48006841695A
:1089C0000320884713E000200B49096848760621F8
:1089D000022000F013F8044624B1074800684169FA
:1089E000032088470448006841690220884700BF87
:1089F000CCE70000445F0020702F0020F0B587B066
:108A000004460D4603270020019002900390049035
:108A10000320069020208DF814008DF815408DF865
:108A200016500E48C088ADF8040002208DF80600EC
:108A30000020ADF8080006A8039005A80490074997
:108A4000888801A9AEDF064626B9BDF818000328BC
:108A500000D00C26304607B0F0BD0000285F002093
:108A60002DE9F843054688462F1D288821285DD02A
:108A700006DC10280BD0112841D013287ED169E0E4
:108A80003B287CD052287CD05628F7D19EE05A490A
:108A90005A4A891AC908032242EA014058A106F03D
:108AA000ADFA072000F0D0FC044600BF26463EB1D8
:108AB00000BF56A240F2F1113046FDF7ABFB00BFFC
:108AC00000BFA8885549088008460188544805F029
:108AD000D5F9044600BF26463EB100BF4BA24FF475
:108AE000FA713046FDF796FB00BF00BF38884D494C
:108AF0008FDF04460121032007F092FA78E03E4917
:108B00003E4A891AC908032242EA014046A106F0FA
:108B100075FA4FF6FF7041490880032007F056FAB6
:108B20000020454908604549086061E04448006804
:108B30000090A88869468FDF044600BF26463EB1F4
:108B400000BF32A240F20D213046FDF763FB00BFAB
:108B500000BF4DE000231A468521304800887FDFA2
:108B6000044600BF26463EB100BF28A240F21321B2
:108B70003046FDF74FFB00BF00BF39E037E014E09F
:108B8000FFE700231A46194624480088B1DF04464F
:108B900000BF26463EB100BF1CA240F2192130465C
:108BA000FDF738FB00BF00BF22E0A888132176DF65
:108BB000044600BF26463EB100BF14A24FF4087120
:108BC0003046FDF727FB00BF00BF11E0A888132146
:108BD00076DF044600BF26463EB100BF0BA240F23E
:108BE00027213046FDF716FB00BF00BF00E000BFA5
:108BF00000BFBDE8F88300001C8503003C8403002F
:108C0000436F6E6E65637465640000002E2E5C2EEB
:108C10002E5C2E2E5C6D61696E2E6300182C002078
:108C200000310020BC620300446973636F6E6E659F
:108C30006374656400000000402C0020442C002078
:108C4000C862030070B505460E462888102802D079
:108C500011282CD115E01748006860B901F0C4FA5A
:108C6000044600BF34B11448006818B120461249C8
:108C70000968884700BF0F480068401C0D4908601C
:108C800016E00C480068401E0A4908600846006863
:108C900060B9FEF799FC044600BF34B1064800688D
:108CA00018B1204604490968884700BF00E000BFAA
:108CB00000BF70BD1C2D0020182D002070B504468B
:108CC0000D462088102806D0112808D012280ED072
:108CD000502810D107E0204607F0D8FD0CE02046D0
:108CE00007F036FF08E0204608F026F904E02046A9
:108CF00007F0B4FD00E000BF00BF70BD2DE9F041FA
:108D000004460F46A6882088102806D0112819D0BE
:108D100019283FD01A284AD118E00AF007FE304639
:108D20000AF078FC30B900BF22A2F0210420FDF740
:108D300071FA06E0E07B022803D131462C4804F0AA
:108D4000FBFE34E030460AF015FE30E0207A0509DB
:108D5000042D01DB012000E00020024631462448BA
:108D60000C3002F0DBFA032D01DB012000E00020D3
:108D7000024631461E48083002F0D0FA022D01DBCF
:108D8000012000E00020024631461948001D02F093
:108D9000C5FA0CE0207A48B9607AC0F3C0052A46CB
:108DA000314613480C3002F0B9FA00BF00BF00BFD3
:108DB000BDE8F0812E2E5C2E2E5C2E2E5C2E2E5CBD
:108DC0002E2E5C2E2E5C636F6D706F6E656E7473ED
:108DD0005C626C655C636F6D6D6F6E5C626C655F31
:108DE000636F6E6E5F73746174652E6300000000C4
:108DF0008450002070B504460D4600BF0A48007834
:108E000000B970BD00BF204603F020FE00B1F8E7B6
:108E1000204603F0F1F920460BF0E2FE204602F076
:108E20007DFD00BFEDE700005C2D00202DE9F04145
:108E300086B00446884617461D4600BF1CB90E2062
:108E400006B0BDE8F08100BF01AA29466069FFF7BE
:108E50003FF8064600BF304600B1F1E700BF4FF6CD
:108E6000FF70854201D0019808B90520E8E7019814
:108E7000007808B90820E3E73888F42801DD0720E6
:108E8000DEE700200290039004900590A088ADF8E2
:108E90000800CDF81480049701208DF80A0002A97B
:108EA0002846AEDFCCE7000070B58EB004460E4613
:108EB0003E4B0FCB09AD0FC500BF14B90E200EB04D
:108EC00070BD00BF00BF0EB90E20F8E700BF3068CC
:108ED000A061214609A862DF054600BF284600B10F
:108EE000EDE700BF20788DF836000120ADF83400A2
:108EF000A21C0DA9A8DF054600BF284600B1DEE789
:108F000000BF202101A8FDF7D8FA0220ADF8040027
:108F100020788DF80600F420ADF808000120ADF8A7
:108F20000A008DF810009DF8110020F008000830AC
:108F30008DF811009DF8110020F00400001D8DF83F
:108F4000110001208DF815008DF81600608804F1DD
:108F50000C0201A900F06CFE05460DB12846AEE7F3
:108F6000202101A8FDF7A9FA0320ADF8040020781C
:108F70008DF80600F420ADF808000120ADF80A00D5
:108F80008DF810009DF8110020F0100010308DF8C1
:108F9000110001208DF815008DF816008DF81700CE
:108FA0006088221D01A900F043FE88E7CC6403001D
:108FB00070B504460D4605B104B970BD2E46208833
:108FC000102804D0502807D057280FD109E0214697
:108FD000304607F093FC0AE02146304607F0D8FF00
:108FE00005E02146304607F0ABFE00E000BF00BFC1
:108FF00000BFE2E770B5044620460CF011FC0546C0
:10900000C5F3400070BD70B5044620460CF008FC66
:10901000054605F0010070BD38B506F0F5FD0446C3
:1090200000BF25463DB100BF15A240F23A212846B7
:10903000FDF7F0F800BF00BF002000906946012056
:1090400006F0DCFB044600BF25463DB100BF0CA284
:109050004FF410712846FDF7DDF800BF00BF6846E9
:1090600006F09CFC044600BF25463DB100BF04A2AB
:109070004FF411712846FDF7CDF800BF00BF38BD91
:109080002E2E5C2E2E5C2E2E5C6D61696E2E630082
:1090900001460148405C7047DB62030010B50146A1
:1090A000094B585C00BF4FF0A044234600BFD3F8E3
:1090B0001045C44004F001040CB1012000E0002080
:1090C000024682F0010010BDDB6203007CB5002483
:1090D0000DE00848055D0326002000903346024657
:1090E00001460190284605F08DFB00BF641C042C4E
:1090F000EFD37CBDDB62030010B5044604F0010031
:1091000008B100F04BF804F0020008B1FFF7DEFFF1
:1091100010BD000010B502460949885C00BF4FF041
:10912000A0442146D1F80435012484409C43C1F871
:109130000845012484401C40C1F80C4500BF10BD07
:10914000D762030010B504460249085D012105F00D
:1091500091FC10BDD762030010B504460249085DBA
:10916000002105F087FC10BDD762030010B5014651
:10917000094B585C00BF4FF0A044234600BFD3F812
:109180000445C44004F001040CB1012000E00020BB
:10919000024682F0010010BDD76203007CB50024B6
:1091A0000CE00948055D00200090034601221146AD
:1091B0000190284605F026FB00BF641C042CF0D368
:1091C00000F004F87CBD0000D762030010B5002455
:1091D00003E02046FFF7B6FF641C042CF9D310BD52
:1091E00010B5002403E02046FFF7B6FF641C042CF2
:1091F000F9D310BD02464FF0FF30002106E0054BC9
:109200005B5C934201D1084602E0491C0429F6D375
:1092100000BF7047DB62030070B505460C460026B0
:109220000648056014B120460BF0FEFF04480068B4
:1092300010B9FEF7C9F90646304670BD182D00205A
:109240001C2D002010B5002000F05AFB044600BF82
:109250001CB1062C01D0204610BD00BF012000F03B
:109260004FFB044600BF1CB1062C01D02046F3E79B
:1092700000BF0020F0E700002DE9F04106460F4650
:109280004FF0000800243046FFF7B4FF0446042CDA
:109290003ED20FB3012F02D0022F38D130E004EBC1
:1092A0004400214911F8008004EB44000844407850
:1092B00050B11E4A4FF480411D480068FEF73CFC47
:1092C00005460DB91948067004EB440016490844D8
:1092D0008078184908551AE015480068FEF75BFCCD
:1092E0001448005D04EB44010F4A11448978884218
:1092F00005D104EB44001146084490F8028006E0D2
:1093000004EB44000849084490F8018000BF00BF06
:10931000B8F1000F06D00848006818B14046064969
:1093200009688847BDE8F08116500020102D002004
:10933000E8620300112D0020E82C002010B504463F
:10934000042C03D22046FFF7A9FE10BD0020FCE745
:1093500070B50546042D0CD0072D1ED00A2D35D131
:10936000002000F071F80220FFF7F6FEFDF752FC36
:109370002DE013211748008876DF0446082C0BD017
:1093800000BF26463EB100BF13A240F27B2130460B
:10939000FCF740FF00BF00BF19E00E4800884FF601
:1093A000FF71884211D11048FEF765FF0446082C72
:1093B0000BD000BF26463EB100BF07A240F2852178
:1093C0003046FCF727FF00BF00BF00E000BF00BF32
:1093D00070BD0000182C00202E2E5C2E2E5C2E2E30
:1093E0005C6D61696E2E63000C31002030B5034660
:1093F0000020042B23D2012A07D1012903D103F134
:109400000E04E4B200E00024224679B1012902D022
:10941000022911D104E003EB43040A4D2A550DE063
:1094200003EB4304074D2C44627007E003EB430455
:10943000044D2C44A27001E0072000BF00E007208B
:1094400030BD00001650002070B5044600250548C8
:10945000007800F0010018B1204600F05BF80546E6
:10946000284670BD9C2C00202DE9F04105460F4692
:1094700000241F4805601F48076005F0020000B384
:10948000002606E0012211463046FFF7AFFF0446F2
:10949000761C042E01D2002CF4D034B940F23332C1
:1094A00004211548FEF776F9044614B9FEF75CF975
:1094B00004462CB9114A00211148FEF7F3FA04467C
:1094C00000BF05F0010080B10120FFF715FE2CB9A7
:1094D0000C4A00210C48FEF7E5FA04462CB90B4A69
:1094E00001210B48FEF7DEFA04462046BDE8F08174
:1094F0009C2C0020E82C0020EC620300699A0200FA
:10950000E8620300CDCB0200E0620300477702006F
:10951000E46203002DE9F047044600260025F348E5
:10952000007820B10020F149087003F03BFB182CB3
:109530007ED2DFE804F00C16174A7EB2F6F4F3F29E
:10954000F1F0EFEEEDECEBEAE9E8E7E6E5E403F055
:1095500029FBE7480068FEF71EFB0646E548047055
:10956000BFE100BF0020FFF701FE58B10020FFF768
:10957000E9FD022C02D14FF4E16001E04FF47A6082
:10958000054609E00020FFF7E7FD022C01D1C820C5
:1095900001E04FF4C8700546D64804704FF400400F
:1095A000A5FB00304FF47A729F1840F10001520081
:1095B00000233846FCF724FF814600224946CC4868
:1095C0000068FEF7B9FA06468BE10020FFF7CEFDF2
:1095D00058B10020FFF7B6FD032C02D14FF44870BC
:1095E00001E04FF47A60054609E00020FFF7B4FD82
:1095F000032C01D1C82001E04FF4C8700546BD48D6
:1096000004704FF40040A5FB00204FF47A73D71884
:1096100040F100015A0000233846FCF7F1FE814674
:1096200000224946B2480068FEF786FA064658E12D
:1096300056E10020FFF79AFD58B10020FFF782FDA8
:10964000042C02D14FF47A6001E04FF47A600546B1
:109650000AE00020FFF780FD042C02D14FF4C8700F
:1096600001E04FF4C8700546A24804704FF4004072
:10967000A5FB00204FF47A73D71840F100015A007F
:1096800000233846FCF7BCFE814600224946984834
:109690000068FEF751FA064623E10020FFF766FD59
:1096A00050B10020FFF74EFD052C01D1C82001E08C
:1096B0004FF47A60054609E00020FFF74DFD052CC8
:1096C00001D1C82001E04FF4C870054689480470F4
:1096D0004FF40040A5FB00104FF47A728F1840F150
:1096E0000001520000233846FCF78AFE8146002222
:1096F00049467F480068FEF71FFA0646F1E0EAE0B7
:10970000B6E0AAE0A1E098E092E05FE05DE05BE017
:1097100059E057E051E042E033E024E015E00EE08C
:10972000FFE70020FFF7F6FC72480470002240F2C9
:1097300066616F480068FEF7FFF90646D1E0002039
:10974000FFF70AFD6B480470CBE001206749087001
:10975000FFF7E0FC002240F2666165480068FEF712
:10976000EBF90646BDE0012060490870FFF7D2FC26
:1097700000224FF400515E480068FEF7DDF906460E
:10978000AFE0012059490870FFF7C4FC002240F205
:10979000666157480068FEF7CFF90646A1E0012050
:1097A00052490870FFF7B6FC00224FF400515048B0
:1097B0000068FEF7C1F9064693E0FFF711FD4D483A
:1097C00004708EE000BF00BF00BF00BF4A480068C1
:1097D000FEF7E1F90646C4F1110515B30EBB012DE4
:1097E00018D9A8B2C82148434FF4004180FB0110AA
:1097F0004FF47A73CF1840F100015A000023384625
:10980000FCF7FEFD8146002249463B480068FEF712
:1098100093F906460220FFF79FFC012037490870A4
:1098200005E00220FFF78EFC00203449087058E064
:1098300003F0B8F92F48047053E003F0B3F90020A7
:10984000FFF78AFC2B4804704BE003F0ABF90120D2
:10985000FFF782FC2748047043E003F0A3F90020DF
:10986000FFF77AFC0120FFF777FC2248047038E00C
:109870000220FFF77BFC58B10220FFF763FC162C97
:1098800002D14FF4E16001E04FF47A60054609E04F
:109890000220FFF761FC162C01D1C82001E04FF433
:1098A000C8700546134804704FF40040A5FB003013
:1098B0004FF47A729F1840F100015200002338469D
:1098C000FCF79EFD81460022494609480068FEF7E4
:1098D00033F9064605E0FFF783FC0648047000E014
:1098E00000BF00BF3046BDE8F0870000992C002083
:1098F000E0620300982C0020E4620300A02C00200A
:1099000010B50446012120460CF07FF910BD00007F
:109910002DE9FC4704460D461646A71C4FF00108EA
:109920000020019001A8FEF765F9304840682860E2
:109930002E4840682D498968411A2D480068401C0E
:10994000A0EB010915E001212A4804F019F903F000
:10995000DBFB82465146274804F012F92348406851
:1099600022498968411A22480068401CA0EB01097D
:1099700000BF4F45E7D8B8F1000F30D0002100916B
:1099800076B1009921F00301491C0091009921F062
:109990000401091D0091009964F3891100910DE003
:1099A000009921F00301891C0091009921F0040124
:1099B000091D0091009964F39F5100910B4949687A
:1099C0000B4A12681140094A0C3202EB81000099DF
:1099D00001600649496839440C3A516000BF9DF85E
:1099E0000400FEF70DF94046BDE8FC8780580020D2
:1099F000282F00209C5C002070B504460D460A2DDF
:109A000003D10D212046FFF7F7FFA168481CA06095
:109A100020684554D4E90110884202D3204604F05E
:109A200040FB70BD0448806803494968884201D101
:109A3000012070470020FCE78058002002460021EA
:109A400008E0074B1B6803EBC1000378934200D189
:109A50007047491C034800788142F2DB0020F7E799
:109A6000602E0020642E002010B5044620780221CC
:109A7000FFF702FC10BD0000F8B5054615490320AC
:109A8000FFF7F2FC044600BF26463EB100BF12A21B
:109A900040F2B9213046FCF7BDFB00BF00BF69466C
:109AA0000020FFF7B9FB044600BF26463EB100BFC9
:109AB00009A24FF42F713046FCF7ACFB00BF00BF8A
:109AC0009DF80000022801D1012000E0002028704C
:109AD000F8BD0000519302002E2E5C2E2E5C2E2E1F
:109AE0005C6D61696E2E63007CB50446204602F011
:109AF000C9FC054600236A46092107F0EFFE052848
:109B000005D10122024801782046FEF77FFD7CBD89
:109B1000382D00207CB504460E460020019042F608
:109B2000A620ADF8040001208DF806000748006863
:109B300000906A4601A92046A0DF05462DB9012202
:109B4000034801782046FEF761FD7CBD6863030091
:109B5000392D002001468879012809D1087901288A
:109B600006D1488842F60212904201D10120704786
:109B70000020FCE74FF0FF31054A42F8201008288A
:109B800004DBFF23A0F1080150325354704700005A
:109B9000EC5300200146024850F8210070470000B5
:109BA000EC5300202DE9F04F03460C464FF0FF39EF
:109BB0000AB1002000E0082084460AB1082000E035
:109BC0000C208046614624E0154850F82100401CD6
:109BD000F0B91D460846274616464FFA80FBDFF8C7
:109BE00040A00AF1300A0AF805B0DFF834A04AF8BC
:109BF00020704EB94FFA85FBA0F1080ADFF820E08B
:109C00000EF1500E0EF80AB000BF4FFA81F902E0D3
:109C1000491C4145D8D300BF4846BDE8F08F00003D
:109C2000EC53002001460148405670471C54002068
:109C300070B590B006460C461546A07818B90120BC
:109C40008DF80E0002E0A0788DF80E002088ADF8A7
:109C50000C0000200290607C02A90AF0A9FEA07C02
:109C60000DF109010AF0A4FEE07B08B1012000E03B
:109C700000209DF80A1060F3C3018DF80A10207CC3
:109C800008B1012000E000209DF80A1060F30411E3
:109C90008DF80A10207B08B1012000E000209DF81B
:109CA0000A1060F300018DF80A10207D08B102202F
:109CB00000E001209DF80A1060F342018DF80A10BF
:109CC0001C2109A8FCF7F9FB607BC0F3001018B950
:109CD000607BC0F34010F8B100200090E07C0DF1F3
:109CE00001010AF065FE00BF9DF8000020F00F00A2
:109CF000401C8DF800009DF8000020F0F0001030AE
:109D00008DF8000000BF9DF8020020F00600801CC6
:109D10008DF80200CDF838D0607B8DF82400A07B50
:109D20008DF82500142104A8FCF7C7FB03A80490B4
:109D300002A80590A088ADF81C00A06820B1E088BA
:109D4000ADF81800A0680890A069002849D000204C
:109D50000190A0690088ADF82C00A0694088ADF89A
:109D60002E00A06940680A9001A80D90A169087BA7
:109D700001A90AF01DFEA169487B0DF105010AF059
:109D800017FEA069807A08B1012000E000209DF84C
:109D9000061060F3C3018DF80610A069C07A08B1FF
:109DA000012000E000209DF8061060F304118DF8FA
:109DB0000610A069007A08B1012000E000209DF89B
:109DC000061060F300018DF80610A069807B08B1D1
:109DD000022000E001209DF8061060F342018DF89A
:109DE0000610E06908B1E0690C902B4604AA09A9A5
:109DF0003046AADF10B070BD10B50446FCF772FE05
:109E000010BD000010B500224FF400510248006858
:109E1000FDF792FE10BD0000B46203002DE9F04191
:109E200004460D464FF6FF76304684420AD14FF481
:109E30008071284603F041FE86B2B6F5807F10D1CE
:109E400026460EE0FF2C0CDC2146284603F01EFEC1
:109E500080F001070FB1204601E04FF6FF70064683
:109E600000BF3046BDE8F08170B505460DB9094C1C
:109E700001E0084C083409E0204602F066FE064680
:109E800006B904E028467168884700BFF4E700BFC0
:109E900070BD0000E053002010B504462CB901202D
:109EA000064948700020FFF7DFFF012C04D1012094
:109EB00002498870FFF7D8FF10BD0000D85300207A
:109EC0002DE9F047024613468C46D3E90245DCE90A
:109ED0000267B6EB040877EB050002D30120BDE86A
:109EE000F0870020FBE701468878012805D191F82A
:109EF0002000012801D100207047886A042802D080
:109F0000486A042801D10020F6E70120F4E70000A8
:109F10007CB500200090019001208DF8000069467A
:109F2000022067DF044600BF25463DB100BF04A202
:109F300040F23A312846FCF76DF900BF00BF7CBD06
:109F40002E2E5C2E2E5C2E2E5C6D61696E2E6300B3
:109F500033B58BB00546002000900C9878B10024F2
:109F60000BE021460CA803F0D8FD28B1009A501C44
:109F7000009001A820F81240641C142CF1D32C226C
:109F800069462846FCF780FA0DB030BD01460888C6
:109F9000062808DB0888B0F5486F06DD08884FF60C
:109FA000FF72904201D0072070474888062808DBDE
:109FB0004888B0F5486F06DD48884FF6FF7290423A
:109FC00001D00720F0E708884FF6FF72904208D0D2
:109FD0004888904205D008884A88904201DD0720D1
:109FE000E2E70020E0E72DE9F04107460D46144680
:109FF00098462088801D404502D90C20BDE8F0819C
:10A000003846FFF7C3FF064600BF304600B1F5E70C
:10A0100000BF0520218868542088401C2080122021
:10A02000218868542088401C208022885119388853
:10A030000BF0FCFB21880844208022885119788885
:10A040000BF0F4FB2188084420800020D6E70000B4
:10A0500010B5044600BF04A24FF4C8712046FCF7B7
:10A06000D9F800BF10BD00002E2E5C2E2E5C2E2EC7
:10A070005C6D61696E2E630030B587B01C21684647
:10A08000FCF71BFA002000904FF4A03001904FF431
:10A09000F020029003208DF80C000020ADF80E0097
:10A0A0008DF810000A4805900A4806906846FEF7A9
:10A0B000C1F9044600BF25463DB100BF06A240F2EB
:10A0C000A7112846FCF7A6F800BF00BF07B030BDB7
:10A0D0001D08030051A002002E2E5C2E2E5C2E2E99
:10A0E0005C6D61696E2E6300F8B505460C46607ABA
:10A0F00088B9207A10B91048476801E00E4887688F
:10A100002A4639466068FDF717FD064616B1304607
:10A110000AF002F90EE0002020720748406948B1B9
:10A1200001208DF80000ADF80250034841696846EF
:10A13000884700BFF8BD00005C500020F0B585B036
:10A1400004460D4617461E4614220B496846FCF786
:10A150009BF9ADF802408DF80850ADF80A708DF803
:10A160000C600022054801782046FEF74FFA684649
:10A1700000F01CFE05B0F0BD78640300252E002021
:10A1800010B586B00446208807F0E0F800BB2088B0
:10A19000FEF7A8F930B92088012241F2060100F04B
:10A1A000DAFB15E0208800220A490978FEF72EFA2A
:10A1B00003208DF804002088ADF8060000208DF8FB
:10A1C0000C0000218DF80D1001A800F0EFFD00BF7C
:10A1D00006B010BD252E002070B504460D46294658
:10A1E0002046FDF789F870BD10B50A220221002033
:10A1F000FFF7FCF8044600BF1CB1072C01D0204635
:10A2000010BD00BF072202210120FFF7EFF804462E
:10A2100000BF1CB1072C01D02046F1E700BF002091
:10A22000EEE710B5112004F0D0FB0A2404B908E0D1
:10A2300000BF4FF47A7005F0B1FE601E041EF8D125
:10A2400000BF10BD10B5112004F075FB0A2005F009
:10A25000A5FE00240EE0112004F001FC4FF4FA707A
:10A2600005F09CFE112004F0B0FB642005F096FE82
:10A27000601CC4B2072CEEDB112004F0F0FB10BD13
:10A28000062000BF4FF0A0410A46012303FA00F167
:10A29000C2F8081500BF00BF7047062000BF4FF08E
:10A2A000A0410A46012303FA00F1C2F80C1500BFD1
:10A2B00000BF70472DE9FF4105460C460020029083
:10A2C0000390ADF80840ADF80A40009001906A464E
:10A2D00002A9284690DF0646002E32D0304605F00F
:10A2E000F3FD074619491A4A891AC908012242EAA8
:10A2F00001403B462A46174904F096FEBDF800008F
:10A3000010B9BDF8020068B1BDF80230BDF80020F8
:10A310000E490F4FC91BC908012747EA01400EA18A
:10A3200004F082FEBDF8040058B1BDF804200749CE
:10A33000074BC91AC908012343EA0140164904F032
:10A3400067FE304604B0BDE8F08100003C840300A5
:10A350003C84030060690300546865207265717570
:10A3600065737465642054582F5258207061636B74
:10A370006574206C656E67746820697320746F6FF4
:10A38000206C6F6E672062792025752F2575206FF0
:10A3900063746574732E0000AC6903001CB51F491B
:10A3A000096801EBC102C2EB81111D4A02EB810079
:10A3B000DC221C49FCF768F81848006800EBC00173
:10A3C000C1EB8010164901EB80000090DC20ADF855
:10A3D00004006946144805F044F90446FEF73AF9CA
:10A3E0000E480068401C0D490860084600681428A3
:10A3F00012D10E49096801EB41020D490D4BC91AF2
:10A40000C908032343EA01400BA104F001FE002028
:10A4100002490860054908601CBD0000442C00206A
:10A4200044360020DC2F002050850300402C002003
:10A430001C8503003C8403003D3D2A2A537065655A
:10A44000643A20256420422F732A2A3D3D000000F3
:10A450002DE9F04105460F460F4C0121204603F03F
:10A46000C6FB064600BF00BF00BF00BFBFF35F8F43
:10A4700000BF00BF00BF0EB9012000E0002040B1C6
:10A48000284602F08DFD08B1BDE8F081024804F0D5
:10A49000D9FF00BFF8E70000302D002070B50D494E
:10A4A0000D4A891AC908032242EA01400BA104F0AF
:10A4B000A5FD08F00BFD044600BF25463DB100BFD9
:10A4C0000AA240F2ED212846FBF7A4FE00BF00BF20
:10A4D00070BD00001C8503003C840300457261735D
:10A4E0006520626F6E647321000000002E2E5C2ECA
:10A4F0002E5C2E2E5C6D61696E2E630070B5064673
:10A500000D4616B14FF4064070BD287920B10128E0
:10A5100009D0022815D111E002202871284609F03F
:10A52000D7F8044610E0284600F0AAFE044648F298
:10A530000960844201D141F61D5405E041F61D54E5
:10A5400002E048F20E6400BF00BF2046DCE70000D6
:10A550002DE9F0418046002414E01248006800EB29
:10A56000C405287805F02CFE07466878012800D13C
:10A5700000E00020784080F001062878314600F0A5
:10A5800043FB641C084800788442E6DB0748D0E9B6
:10A590000010002359405840014301D00BF06CF8E3
:10A5A000BDE8F081602E0020642E0020902E002057
:10A5B00070B5044620793D2802D141F23D0001E00A
:10A5C0004FF48850054620880022294602F038FCC6
:10A5D00070BD000038B50C480068009000208DF870
:10A5E00001000A4A6946032005F070FD044600BFD9
:10A5F00025463DB100BF06A240F25A412846FBF76E
:10A6000009FE00BF00BF38BDCC620300EDC40200EC
:10A610002E2E5C2E2E5C2E2E5C6D61696E2E6300DC
:10A6200010B50021034803F0E2FA044684F3100059
:10A6300010BD00009C5C002070B505460C464FF430
:10A64000803000FA04F1284600F0BEFA70BD70B503
:10A6500005460C464FF4A07000EB840086B23146EC
:10A66000284600F049FB70BD2DE9F04704460D4631
:10A6700016461F464FF4803000FA05F84FF4A070DC
:10A6800000EB85001FFA80F926F07F4641462068DE
:10A6900005F09AF84146206805F08AF84946206896
:10A6A00005F07CF832462946206805F067F84146F7
:10A6B000206805F080F81FB14146206805F087F852
:10A6C000BDE8F08710B50446206805F05CF810BDC1
:10A6D0002DE9F04704460D4617466079324941F8A6
:10A6E00020706079314901EBC000007968B108261B
:10A6F0002F49304A891AC908022242EA01402EA194
:10A7000004F07CFC3046BDE8F08729882068C0F85A
:10A71000081500BF94F90420AB78104619460028AC
:10A7200008DB4FEA417C4FEA1C68DFF8B0C00CF848
:10A7300000800BE04FEA417C4FEA1C69DFF8A0C0C3
:10A7400000F00F08A8F104080CF8089000BF00BF43
:10A7500094F90410084600280DDB00BF00BF00F08C
:10A760001F0301229A4043099B0003F1E023C3F831
:10A77000002100BF00BF00BF00BF012061790B4A6C
:10A7800002EBC10108716079114641F830400026A2
:10A790000749084A891AC908032242EA014011A15F
:10A7A00004F02CFC3046AEE7BC2E0020C02E00206A
:10A7B000EC8403003C84030052544320696E73749C
:10A7C000616E636520616C726561647920696E6990
:10A7D0007469616C697A65642E00000000E400E031
:10A7E00018ED00E05254433A20696E697469616C57
:10A7F000697A65642E00000010B5014691F90400E5
:10A80000002807DB00F01F0301229A40024B440995
:10A8100043F8242000BF10BD00E200E070B50546FB
:10A820000C4622460221284600F0DAF970BD10B528
:10A8300004464FF48271204600F05EFA10BD10B558
:10A8400004460021206804F0CAFF10BD10B504467C
:10A850000421206804F0C3FF10BD2DE9F84F044621
:10A860008846154699464FF4803000FA08FA4FF4AE
:10A87000A07000EB88001FFA80FB25F07F45514651
:10A88000204600F0A1F9206804F07DFF064641460D
:10A89000206804F06DFF009032464146206804F0C5
:10A8A0006DFF5946206804F079FF314600980AF0A0
:10A8B00017FE012806D1102005F064FB59462068D8
:10A8C00004F06CFF206804F05EFF0646314628461F
:10A8D0000AF006FE07465146206804F06CFF012F7F
:10A8E0000FD16A1C4146206804F048FF102005F093
:10A8F00049FB206804F047FFB04225D00D20BDE899
:10A90000F88F2A464146206804F038FF206804F09A
:10A910003AFF0646681E31460AF0E2FD07466FF030
:10A920007F40A0EB0900B84201D20D20E7E75FB9F4
:10A930006A1C4146206804F021FF206804F023FFD0
:10A94000B04201D00D20DAE701225146204600F046
:10A9500047F90020D3E770B506460C4615462B464E
:10A96000224600213046FFF7E9FB70BD10B51048C4
:10A970000068407E60B106210120FEF73FF80446E2
:10A9800024B10B480068416903208847002010BDAE
:10A99000012007490968087601210846FEF72EF8CC
:10A9A00004461CB100200249096808762046EEE7FB
:10A9B000702F00202DE9F84305460E4617469846AD
:10A9C00069461048006803F01AF8044614B90420D8
:10A9D000BDE8F8831C212046FBF76FFD01202071A4
:10A9E0002560C4F8088008480068B6FBF0F0E06015
:10A9F000676169460348006803F02BF808F068FDBA
:10AA00000020E5E75C6703005067030010B50446CB
:10AA1000D4E90321501828DF10BD0278072A38D264
:10AA2000DFE802F037040712222B340000220A70FC
:10AA300030E001220A7003898B818388CB81C26850
:10AA40008A6000230B7425E002220A7003898B813F
:10AA50008388CB81C2688A60827D062A01D1012366
:10AA600000E000230B7415E003220A70C3888B8179
:10AA70000389CB81C2688A600CE004220A70C38813
:10AA80008B810023CB8100228A6003E005220A70BB
:10AA900000E000BF00BF704770B50546002409E024
:10AAA000064850F8240020B1044850F824102846E5
:10AAB0008847641C042CF3D370BD00004855002067
:10AAC00030B587B004460D462068806808B907B0E5
:10AAD00030BD182101A8FBF7F0FC0295A068069094
:10AAE000207910B1012815D109E001208DF804006A
:10AAF00020690390E0680490606905900BE00220F3
:10AB00008DF804000749E0680968484303906069CC
:10AB1000059000E000BF00BF2068816801A8884759
:10AB200000BFD4E750670300F0B585B005460C467A
:10AB30001646002C3ED0112C3CD0082C3AD00D2CBF
:10AB400024D11D491D4A891AC908022242EA01403E
:10AB50002A461B4904F05CFA2A460421684602F0A2
:10AB60001FFD2EB1307800F0010008B1012000E097
:10AB700002208DF8080000218DF80C1041F201111F
:10AB8000ADF80A10684600F025F913E0204605F0FC
:10AB90009BF907460849094A891AC908012242EA6D
:10ABA00001402B463A46074904F03EFA2146284622
:10ABB00009F020FC05B0F0BD848403003C84030050
:10ABC000B8790300C87A030070B504460D462946DB
:10ABD000206804F0EDFD2946206804F0F5FD70BD05
:10ABE00070B504460E4615463146206804F0E3FD74
:10ABF0001DB13146206804F0EAFD70BD10B5044671
:10AC0000204600F0E7F810BDF8B505460C4628468A
:10AC10000AF01EFB05286AD2DFE800F003212A397A
:10AC20003F00DCB1012128460AF022FB0020009001
:10AC30006846FCF7DFFF2A460126002730463946E2
:10AC4000FBF70FFC2B4AD2E9003218431143294A83
:10AC500003C29DF80000FCF7D3FF00BF47E00CB132
:10AC6000022000E00020014628460AF001FB3EE0F9
:10AC700044B1032128460AF0FBFA012128460AF0D4
:10AC800023FF03E0012128460AF0F2FA2FE01CB965
:10AC9000042128460AF0ECFA29E024B103212846D1
:10ACA0000AF0E6FA22E0002128460AF0E1FA002143
:10ACB00028460AF009FF002000906846FCF79AFF3A
:10ACC0002A460126002730463946FBF7CAFB0A46CA
:10ACD000C143D043074B0CCB11401840054AC2E991
:10ACE00000109DF80000FCF78BFF00BF00BF00BF05
:10ACF000F8BD0000902E002070B505460C4628686F
:10AD0000015929B12146286804F048FD012070BD91
:10AD10000020FCE770B50446608801F0B3FBA0801A
:10AD2000002505E0044850F82510204688476D1C92
:10AD3000002DF7D070BD0000282D002070B504460E
:10AD4000A08801F0CFFA6080002505E0044850F8A3
:10AD50002510204688476D1C002DF7D070BD0000DF
:10AD60003C2D002070B50546002405E0044850F84D
:10AD7000241028468847641C022CF7D370BD0000BD
:10AD8000A863030070B50546002405E0054850F8A7
:10AD9000241028468847641C034800788442F5DB69
:10ADA00070BD00008C5300206A2D002070B5044651
:10ADB000608801F067FBA080002505E0044850F89A
:10ADC0002510204688476D1C002DF7D070BD00006F
:10ADD0003864030070B50546002405E0044850F8C7
:10ADE000241028468847641C002CF7D070BD000052
:10ADF000C464030010B586B00446142101A8FBF713
:10AE00005CFBA08900F056FAADF80800207806280F
:10AE10005ED2DFE800F05D0304052E4A00BF00BFEC
:10AE2000A08900F04CFA18B9E08908F072FDF8B179
:10AE3000E08908F06BFD8DF80C002078032801D123
:10AE4000012100E000218DF80D10A16804916068D7
:10AE500030B909208DF8040001218DF8141004E0A8
:10AE60000A208DF804006168059101A806F082FCB3
:10AE70002FE0A08900F023FAB0B1E089A0B96068A2
:10AE800038B90B208DF80400BDF8080006F0C2FEAA
:10AE900004E00C208DF80400606803900120114943
:10AEA000087001A806F066FC13E0606818B9142069
:10AEB0008DF8040004E015208DF80400606803900C
:10AEC0004FF6FF70ADF8080001A806F053FC00E053
:10AED00000BF00BF0348007808B106F0E1FD06B0EE
:10AEE00010BD0000492D002038B5054610480078F7
:10AEF00010B948F2016038BD4FF6FF70854202D1AB
:10AF000048F20360F7E7684608F0C2F9044614B94E
:10AF100048F20760EFE70520207001202071E580EE
:10AF2000684608F0C5F908F0C7FA0020E3E700001A
:10AF3000D42E002038B50E48007810B948F20160D0
:10AF400038BD684608F0A4F9044614B948F2076011
:10AF5000F6E706202070684608F0AAF90548007850
:10AF600010B101200349087308F0A6FA0020E7E7B2
:10AF7000D42E00201C56002070B586B0142101A8E4
:10AF8000FBF79BFA3048007828B101A8FFF784FD51
:10AF9000002006B070BD2C48001D02F0EAFD08B18B
:10AFA0000020F6E700F04AFA06460EB13046F0E718
:10AFB00008F0AAF906F012F9054625B1022D03D0D2
:10AFC000062D12D107E000BF00201F49087048601D
:10AFD00048F20A60DDE701201B4908700020486044
:10AFE00001A8FFF759FD0020D3E700BF00BF684666
:10AFF00008F04EF9044614B948F20760C9E7012089
:10B0000020700C2D16D2DFE805F015061507151176
:10B010001512150A0E0B00BF002020710BE000BFB7
:10B020000320207107E00220207104E000BF01200E
:10B03000207100E000BF00BF684608F039F908F051
:10B040003BFA0020A5E70000D42E002038B50446C6
:10B0500014B948F2046038BD6946204608F056FB32
:10B0600008B3BDF8000000EB8000114901EB80003F
:10B07000C068A8B1A07A98B1BDF8000000EB8000CC
:10B0800001EB8000C068401EBDF8001001EB81019B
:10B09000074A02EB8101C8600020A072002504E08D
:10B0A00048F2056501E048F209652846D3E700004B
:10B0B000F45500207FB514461D462B46224601A9B3
:10B0C000684608F0BBFA04B070BD37B50C461546AB
:10B0D0002B4622466946002008F0B0FA3EBD37B53F
:10B0E0000C4615462B4622460021684608F0A6FA73
:10B0F0003EBD024602B111B948F2046070471068C3
:10B1000008600020FAE70000F8B504460D4604B1D7
:10B1100015B948F20460F8BD6946204608F0F6FA11
:10B12000A0B16668BDF8001001EB8101094A02EB8D
:10B13000810101F10C00012102F022FD2E60606806
:10B140000C3068600120A0720020E4E748F209603A
:10B15000E1E70000F455002070B504460D4614B92F
:10B1600048F2046070BD03230022294620460AF0FD
:10B1700045FFF7E770B504460D4602230022294635
:10B1800020460AF03BFF70BD70B5054609480068CF
:10B19000042802D148F20B6409E007480549096810
:10B1A00040F821500121034802F0EAFC0024204627
:10B1B00070BD0000E02E0020485500202DE9F84326
:10B1C00004464FF4806800262B48007818B948F2EE
:10B1D0000160BDE8F88314B948F20460F9E7122170
:10B1E0002046FBF76AF90320208000253FE005EBAD
:10B1F0008500224901EB8000008905EB85011F4A8B
:10B2000002EB81014989084487B205EB850102EB15
:10B210008101486805F05EFF032802D12088401EA6
:10B220002080608805EB8501144A02EB8101C96822
:10B2300008446080208905EB850102EB8101498982
:10B2400008442081608938446081C7F5806086B2F7
:10B25000A089B04200DAA68104F11000831EA21D6D
:10B26000211D0090284608F0A7FB681C85B2022D1E
:10B27000BDDB0020ADE70000D42E0020F4550020F7
:10B280003EB504460A4B6A460021A01D08F0D6F9D7
:10B29000054635B9064A9188019808F0B1FA054685
:10B2A00003E0034800210160416028463EBD0000E4
:10B2B000F02E00200146A1F5404080B270470146C3
:10B2C000B1F5404F05DB4FF6FE70814201DC0120F5
:10B2D00070470020FCE710B50446A07FFF2802D08D
:10B2E000A07F03F0B1FB00206077207204F108001A
:10B2F000D4E90021904710BD10B5044620781828E5
:10B3000002D1FDF75FF9207010BD10B5044620781A
:10B31000182802D1FDF756F9207010BD70B505460A
:10B320000E46144624B13146284602F005FC03E0DF
:10B330003146284602F09BFB70BD30B504461088AC
:10B34000C01C984201D90C2030BD022015884855F8
:10B350001088401C10800120158848551088401C1A
:10B36000108015884C551088401C10800020EBE799
:10B3700070B504460D4640F21442115B0122D4F828
:10B380001004FCF791FE064606B1357004F13C024C
:10B3900004F5826104F1540072DF70BD2DE9F041C3
:10B3A00006460C4615460027112C01D1012700E066
:10B3B000002765B13A460A4801783046FDF726F97C
:10B3C0000022084801783046FDF720F905E03A46AA
:10B3D000044801783046FDF719F9BDE8F081000016
:10B3E000432E0020402E002010B54FF4405400F0B2
:10B3F00009F80349086108460069001BC86010BDD0
:10B40000D830002010B540F6F8700068401C18B91C
:10B410004FF01020406902E040F6F87000680346E3
:10B420004FF0805001694269581C08B1184601E08C
:10B4300002FB01F00446204610BD000010B5FFF7E6
:10B44000D3FF00220249034802F0EAFF10BD0000CA
:10B4500060670300D8300020F7B50D4617460DB9D8
:10B460000020FEBD0026009868B1002409E02146B6
:10B47000684602F052FB18B1A0B23946A847761CC4
:10B48000641C142CF3D33046EBE710B50446606817
:10B4900007F068FF10BD00003EB500BF9DF800003A
:10B4A00020F00F00401C00909DF8000020F0F000FC
:10B4B0001030009000BF0C2216A168467CDF0446C5
:10B4C00000BF254635B100BF16A2DE212846FAF797
:10B4D000A1FE00BF00BF0020019002901020ADF837
:10B4E0000400ADF806000020ADF808004FF4C87065
:10B4F000ADF80A0001A87ADF044600BF254635B141
:10B5000000BF08A2E8212846FAF784FE00BF00BF6A
:10B510003EBD0000536565724C696B654A617A7A7D
:10B52000000000002E2E5C2E2E5C2E2E5C6D6169BC
:10B530006E2E630070B505460C4660880D4909887B
:10B54000884215D1208840F67721884210D1A08802
:10B55000C01E094908800949094A891AC9080322F5
:10B5600042EA014004490B880A8806A103F05CFD09
:10B5700070BD0000182C00201A2C00201C85030030
:10B580003C84030044617461206C656E2069732003
:10B5900073657420746F203078255828256429003D
:10B5A00070B51149114802F0CAFB044600BF254698
:10B5B0003DB100BF0EA240F25F212846FAF72AFEF5
:10B5C00000BF00BFF721094802F0AAFB044600BFF4
:10B5D00025463DB100BF06A240F262212846FAF797
:10B5E00019FE00BF00BF70BD35B50200EC30002071
:10B5F0002E2E5C2E2E5C2E2E5C6D61696E2E6300ED
:10B6000070B5054615B14FF4064070BD1848007B73
:10B6100018B100201649087301E000F0DFF8144863
:10B62000007808281DD2DFE800F01C04080C101C6C
:10B63000141800F03FF8044616E000F0BDF8044688
:10B6400012E000F099F804460EE000F047F80446D6
:10B650000AE000F035F9044606E000F043F904463C
:10B6600002E048F20E6400BF00BF2046CDE70000B4
:10B670001C5600200D480089401C0C490881002000
:10B680004880087300BF0DE000EB8001084A12F803
:10B69000211009B9012200E0002204490A310A54AC
:10B6A000411C88B20228EFDB704700001C560020C6
:10B6B000F455002010B5084800F036F840B90020D5
:10B6C0000549891E08704880486041F61D5010BD2C
:10B6D00000F072F8FBE700001E56002070B50F481E
:10B6E000458805EB85000E4901EB8000C06878B9FC
:10B6F00004200A49087005EB8500094A02EB800026
:10B70000002301224168074802F0D2FD044602E00E
:10B7100000F090F80446204670BD00001C56002042
:10B72000F4550020D830002010B50146002200203A
:10B7300018E00F4B1B5C9BB100240D4B1C5400EB1D
:10B7400080030C4C04EB8303DB684BB900EB8003F4
:10B7500004EB83031B7C012B02D10880012203E050
:10B76000431C98B20228E4DB00BF104610BD000065
:10B7700026560020F4550020F8B50C4844680C48C3
:10B7800000680B49898800EB81056088C01C86B27F
:10B790000320064908700020B3000090084629469F
:10B7A0004268044802F0FCFEF8BD00001C56002070
:10B7B000E82E0020D830002010B507494888091D20
:10B7C00007F0E2FF18B1FFF7D7FF044602E0FFF7EA
:10B7D00085FF0446204610BD1C56002010B51448B5
:10B7E0000078082820D2DFE800F0041F1F0A101696
:10B7F000171BFFF73FFF01200D49087015E000F00F
:10B800007DF802200A4908700FE000F029F80620B0
:10B810000749087009E000BF07200549087004E0E7
:10B8200001200349087000E000BF00BF10BD000008
:10B830001C56002010B50520064908700220064954
:10B8400088800846002301220168044802F030FD88
:10B8500010BD00001C560020E82E0020D83000202B
:10B86000144908681449498801EB8101134A02EB25
:10B87000810149680F4A11600F49498801EB810134
:10B880000E4A02EB810148600A4989880A4A5288B7
:10B8900002EB8202094B03EB820211810221054A6D
:10B8A00091800021044A528802EB820203EB82025B
:10B8B00011747047E82E00201C560020F45500201B
:10B8C00010B5062005490870498801EB8101044A3A
:10B8D00002EB8101486805F05FFC10BD1C5600209A
:10B8E000F455002010B50720034908700020486077
:10B8F00005F062FC10BD00001C560020054A50688F
:10B900004288D21C91B2044A92880A44024B9A801F
:10B91000704700001C560020E82E00202DE9F04161
:10B9200086B00446A688208850282ED004DC35280E
:10B9300036D0362808D189E0522802D05428F9D1CF
:10B9400003E0304601F0BEFAB9E01422634901A8D1
:10B95000FAF79AFDADF80660304600F093FDADF8B9
:10B960000800BDF8080000F03BFA00225C480178AE
:10B970003046FCF74BFE00225A4801783046FCF76F
:10B9800045FE01A8FFF7C6F999E0A01DFEF7E2F811
:10B9900028B10121304601F0F7FA0AF011F88EE0E3
:10B9A0000027A68804F10A054F4801783046FCF7C5
:10B9B00017FE00B983E000224B4801783046FCF7BF
:10B9C00025FEE088B0F5857F3AD0E08858B1E2885E
:10B9D0004649474BC91AC908022343EA014045A119
:10B9E00003F016FB2CE0288801280AD02A883F495A
:10B9F0003F4BC91AC908022343EA01404CA103F096
:10BA000007FB688801280BD06A883849384BC91A67
:10BA1000C908022343EA014054A103F0F9FA0FE0F8
:10BA2000A98800223046A1DF8046B8F1000F06D178
:10BA3000012701225C4801783046FCF7E7FD00BF92
:10BA40001FB90021304609F0A3FC38E00027A68882
:10BA500004F10A05544801783046FCF7C1FD00B9ED
:10BA60002DE00022504801783046FCF7CFFDE088F9
:10BA700058B1E2881D491E4BC91AC908022343EA7E
:10BA800001401CA103F0C4FA14E0A88801280BD0DF
:10BA9000AA881649164BC91AC908022343EA01406D
:10BAA00032A103F0B5FA05E0A87908B1012000E061
:10BAB000002007463946304609F06AFC00BF00BF47
:10BAC00000BF002239493A480078FCF71BFD00BF4F
:10BAD00008F03EFD06B0BDE8F08100007C63030085
