:020000040002F8
:1060000098830020E1630200E9630200EB63020071
:10601000ED630200EF630200F16302000000000084
:10602000000000000000000000000000F363020018
:10603000F563020000000000F7630200F96302004C
:10604000A5680200FB630200196D0200B16902003D
:10605000FB630200FB630200E9670200FB630200CE
:10606000FB630200016D0200FB630200FB630200A0
:10607000FB630200FB630200FB630200FB630200A0
:10608000FB630200F9680200FB630200FB6302008D
:10609000FB630200FB630200616A0200FB63020013
:1060A000FB630200FB630200FB630200FB63020070
:1060B000FB630200FB630200000000000000000020
:1060C000FB630200FB630200FB630200FB63020050
:1060D00011690200FB630200FB6302000000000084
:1060E00000000000000000000000000000000000B0
:1060F00000000000000000000000000000000000A0
:10610000000000000000000000000000000000008F
:10611000000000000000000000000000000000007F
:10612000000000000000000000000000000000006F
:10613000000000000000000000000000000000005F
:10614000000000000000000000000000000000004F
:10615000000000000000000000000000000000003F
:10616000000000000000000000000000000000002F
:10617000000000000000000000000000000000001F
:10618000000000000000000000000000000000000F
:1061900000000000000000000000000000000000FF
:1061A00000000000000000000000000000000000EF
:1061B00000000000000000000000000000000000DF
:1061C00000000000000000000000000000000000CF
:1061D00000000000000000000000000000000000BF
:1061E00000000000000000000000000000000000AF
:1061F000000000000000000000000000000000009F
:10620000DFF810D000F094F90048004701CD0200FB
:10621000AFF300809883002000B583B00290009116
:10622000019244F2010071466A4601F0F5F803B0AC
:1062300000BD000030B450E8012F93B2C48923445C
:106240008489A34228BF1B1B0489A34202BFBFF35A
:106250002F8F002007E0C3EA020340E80134002C3E
:10626000E9D14FF001000A6030BC704750E8012FBF
:10627000C2EA024240E801210029F7D1704730B458
:1062800050E8022F1FFAA2F3C488A34202BFBFF353
:106290002F8F00200DE0C48923448489A34228BFA6
:1062A0001B1BC2EA034340E80234002CE8D14FF044
:1062B00001000A6030BC704750E8022FC2EA224257
:1062C00040E802210029F7D17047034653E8022F26
:1062D000D988B2EB324F4FF0000017BF92B241EABB
:1062E000014142EA014104E05A68B2EB324F08BF73
:1062F000012043E80212002AE8D1704730B4044676
:1063000054E8000F0D4644E80053002BF8D1156007
:1063100030BC704730B4044654E8000F40EA010531
:1063200044E80053002BF7D1156030BC704730B4FF
:10633000044654E8000F00EA010544E80053002B2E
:10634000F7D1156030BC704730B4044654E8000FF4
:1063500080EA010544E80053002BF7D1156030BCFA
:10636000704730B4044654E8000F00EB010544E8E0
:106370000053002BF7D1156030BC704730B4044691
:1063800054E8000FA0EB010544E80053002BF7D1BF
:10639000156030BC704770B404464FF0000054E8FC
:1063A000006F0D68AE4207BF44E80023012044E8B7
:1063B00000630E60002B1CBF0020F0E770BC70472C
:1063C00030B4044654E8000F88422CBF451A0546F5
:1063D00044E80053002BF5D1156030BC7047000035
:1063E0000648804706480047FEE7FEE7FEE7FEE76F
:1063F000FEE7FEE7FEE7FEE7FEE7FEE7796A02005A
:10640000016202002DE9F05F0546002092469B469E
:1064100088460646814640241BE0284641464746BA
:10642000224600F074F853465A46C01A914110D3E0
:1064300011461846224600F016F82D1A67EB01089F
:106440004F4622460120002100F00DF817EB00090D
:106450004E41201EA4F10104DFDC484631462A46A5
:106460004346BDE8F09F202A04DB203A00FA02F1FF
:10647000002070479140C2F1200320FA03F3194332
:1064800090407047004870479C63030040EA010356
:106490009B0703D009E008C9121F08C0042AFAD2DA
:1064A00003E011F8013B00F8013B521EF9D270479E
:1064B000D2B201E000F8012B491EFBD27047002246
:1064C000F6E710B513460A4604461946FFF7F0FFF3
:1064D000204610BD421C10F8011B0029FBD1801A78
:1064E000704730B504460020034600E05B1C934231
:1064F00003D2E05CCD5C401BF8D030BD034611F800
:10650000012B00F8012B002AF9D118467047202AE8
:1065100004DB203A21FA02F00021704721FA02F34D
:10652000D040C2F120029140084319467047000054
:10653000064C074D06E0E06840F0010394E80700D0
:1065400098471034AC42F6D3FFF75EFE907E03000E
:10655000B07E030070B58C1810F8015B15F00703CE
:1065600001D110F8013B2A1106D110F8012B03E0EC
:1065700010F8016B01F8016B5B1EF9D12B0705D4F4
:106580000023521E0DD401F8013BFAE710F8013B3D
:10659000CB1A921C03E013F8015B01F8015B521E59
:1065A000F9D5A142D8D3002070BD10B50446042C03
:1065B00057D1E021032000F0A9F8642007F080FA09
:1065C0009521012000F0A2F8642007F079FAD0218B
:1065D000022000F09BF8642007F072FA05210846BB
:1065E00000F094F80A2007F06BFA0521062000F06D
:1065F0008DF80A2007F064FA0521072000F086F8DC
:106600000A2007F05DFA0521082000F07FF80A2033
:1066100007F056FA0521092000F078F80A2007F063
:106620004FFA05210A2000F071F80A2007F048FA15
:1066300005210B2000F06AF80A2007F041FA052135
:106640000C2000F063F80A2007F03AFA00F050F846
:10665000282007F035FA00F007F80A2007F030FA92
:1066600000E000BF00BF10BD10B503F0DEFB10203E
:1066700000F06CF8FA2000E0401E0028FCDC03F07B
:10668000C7FB012007F01CFA10BD10B503F0CDFBCD
:10669000062000F05BF8012007F012FA03F0B8FBC7
:1066A00010BD000070B5044604F12000C5B203F02F
:1066B000BCFB284600F04AF8002000F047F8002014
:1066C00000F044F80349085503F0A2FB0148005DBF
:1066D00070BD00007C63002010B503F0A6FB112004
:1066E00000F034F803F094FB012007F0E9F910BD45
:1066F00010B503F09AFB082000F028F8FA2000E01B
:10670000401E0028FCDC03F083FB10BD70B504467E
:106710000D4604F14000C6B203F087FB304600F09E
:1067200015F8002000F012F8284600F00FF803F0EA
:106730006FFB0148055570BD7C63002010B500203B
:10674000FFF7B0FF0446204610BD00002DE9F04FD2
:1067500085B004461548047000BF154F80464FF0C1
:106760000109DFF850A0CB4600200490CDF800804E
:10677000CDF80490CDF808A0CDF80CB00022694601
:10678000381D09F09FFC04900498064636B100BFFE
:1067900009A25C213046FFF73FFD00BF00BF05485E
:1067A0000578284605B0BDE8F08F00007C61002028
:1067B000F06203007C6200202E2E5C2E2E5C2E2EBA
:1067C0005C2E2E5C2E2E5C2E2E5C414453313239D1
:1067D000394472765C414453313239395F4C6962D5
:1067E000726172792E6300002DE9F84F00260020B7
:1067F00000904FF480770125002410E0384607F020
:10680000CFFE40B100BF25480068284018B1384687
:1068100007F0B8FE2E436D00381D87B2641C082CAB
:10682000ECD34FF4BE7007F0BBFE50B14FF4BE7016
:1068300007F0A8FE46F000466A460121002007F056
:106840001BFEF0B210B3012500241DE005EA06008E
:10685000C0B100BF124850F82400C0F304208146A4
:1068600000BF0F4850F82400C0F301408246204684
:1068700002F08CFF8046B8F1000F02D05146484626
:10688000C04700BF6D00641C082CDFD306F0004039
:1068900010B168460CF0A0F9BDE8F88F0463004021
:1068A0001065004010B54FF4807007F0ECF880B12F
:1068B0004FF4807007F0F0F8012007F0F7F80D486A
:1068C000407930B901200B49487108460168002021
:1068D00088474FF4827007F0D6F850B14FF48270B9
:1068E00007F0DAF8022007F0E1F802480168012019
:1068F000884710BD102E002010B5034A1068034AC7
:106900001168884710BD0000A42E0020A02E002092
:1069100010B504220021024805F088FD10BD0000DA
:106920000040024010B500F0FFF910BD2DE9F0471E
:10693000074688461646C24607EB47011B4800EB50
:10694000C109D9F8140020B1012811D0022826D19C
:106950001EE0484600F020FA0546B54201D2002468
:1069600005E0344632465146484600F05CFA18E0ED
:10697000484600F011FA0546B54201D2284600E02B
:106980003046044622465146484600F04CFA08E09C
:1069900032465146484600F00DFA044601E0002414
:1069A00000BF00BF2046BDE8F0870000C85E0020A1
:1069B00010B50249024805F0C3FD10BD4456002041
:1069C000003000401FB5184B0FCB8DE80F00FF20A3
:1069D0008DF803000A208DF8010004208DF80200D4
:1069E00005208DF8000006208DF804008007029035
:1069F000FF208DF8050000208DF80D0001208DF896
:106A00000C0000BF00231A466946084807F0AEF89C
:106A1000044634B100BF06A237212046FFF7FCFB35
:106A200000BF00BF1FBD000008630300F062030049
:106A30002E2E5C2E2E5C2E2E5C2E2E5C2E2E5C2E90
:106A40002E5C414453313239394472765C414453AF
:106A5000313239395F4C6962726172792E6300009C
:106A600010B508F06FFE10BD01480249086070477C
:106A70000090D003B830002010B506F091FB28B18B
:106A800090480088C0F304208F49086006F0E4FBBA
:106A900010B18E488E49486706F040FC30B18948F5
:106AA000E0380068C0F342308A49086006F064FCB0
:106AB00028B18948006820F080708749086006F096
:106AC0007DFC48B10020854908604FF08041C1F845
:106AD00010018049091F086006F09EFC18B10320D0
:106AE0007C496431086006F0B9FC68B105207C4936
:106AF000086001207A49783108600020784908311F
:106B000008603F20091F086006F0CAFC002855D025
:106B10006C48E0300068734908606A48E4300068F7
:106B2000091D08606748E8300068091D086065486D
:106B3000EC300068091D08606248F0300068091DEB
:106B400008606048F4300068091D08605D48F8304E
:106B500000686449203108605A48FC300068091D0B
:106B6000086061480068091D08605F48001D0068F2
:106B7000091D08605C4808300068091D08605A4813
:106B80000C300068091D08605748103000685549EE
:106B900040310860544814300068091D08605248AC
:106BA00018300068091D08604F481C300068091D36
:106BB00008604D4820300068091D086006F0C2FAE0
:106BC00030B14048CC38006800F04F0047490860B9
:106BD00006F014FB40B14648006800F0010018B10F
:106BE0006FF001004249086006F058FB28B14148A7
:106BF000006840F480603F49086037487438006896
:106C000040F4700034497439086000BF00BF00BF11
:106C1000BFF34F8F00BF00BF00BF00BF00BF00BF6A
:106C2000BFF36F8F00BF00BF00BF00BF06F056FB71
:106C300020B13148006827491C31086000BF2E4848
:106C40000838006800F0004028B92B48001F006891
:106C500000F0004090B3012009F09CFB152026496C
:106C60000839086009F0A0FB15214FF01020C0F88A
:106C7000041209F099FB002009F08CFB00BF00BF53
:106C800000BF00BF00BFBFF34F8F00BF00BF00BFFA
:106C90001148F038006800F4E06018490843001D0E
:106CA0000D49F039086000BF00BF00BFBFF34F8F30
:106CB00000BF00BF00BF00BF00BFFDE7FFE7FFF759
:106CC000D3FE10BD24030010403501400DF0ADBAD5
:106CD00000C007403C050040FCED00E00C01004016
:106CE0001056004020C5004024040010E40E00406F
:106CF000000400403C170040081200100000FA0594
:106D000010B504220249034805F0ECFB10BD000059
:106D1000385600200090004010B5024908688047AE
:106D200010BD0000182E002010B5124C022020616A
:106D3000606111A0A0611349E1614FF4007121620B
:106D40000021A1626162E1620BA0A0640E49E164CE
:106D5000102121650021A1656165E1650BA1E01DA0
:106D6000FFF7CCFB0AA12046FFF7C8FB2020A0714B
:106D700010BD0000B05E00205465726D696E616CDC
:106D800000000000285F00202861002052545400B9
:106D9000534547474552000010B501460A69CB6884
:106DA0009A4204D88C68641EE41AA01801E0D41A30
:106DB000601E10BD2DE9F0470446894617464FF086
:106DC000000AE56800BFD4F81080A84503D9A8EBF5
:106DD0000500461E04E0A5EB0800401CA1680E1A41
:106DE000A068401BB04201D9304601E0A068401BBA
:106DF0000646BE4201D2304600E03846064661688B
:106E0000481932464946FFF741FBB244B144BF1B23
:106E10003544A068A84200D10025E560002FD2D1FA
:106E20005046BDE8F0872DE9F047044689461546EF
:106E3000E668A068871BAF4208D9616888192A46AE
:106E40004946FFF723FB7019E06010E0B84661681F
:106E5000881942464946FFF719FBA5EB070809EBDD
:106E6000070142466068FFF711FBC4F80C80BDE8DB
:106E7000F08702E008C8121F08C1002AFAD1704743
:106E80007047002001E001C1121F002AFBD17047AA
:106E90000146202908DA012088400A4A104008B13A
:106EA000012070470020FCE7402909DAA1F1200009
:106EB000012202FA00F008B10120F2E70020F0E719
:106EC0000120EEE7FC06FFBD00BFEFF3108108468E
:106ED00072B67047F8B505460E46D6B969462846DB
:106EE0000AF068FE044643F202018C420AD000BF59
:106EF000274637B100BF3B4AB2213846FFF78CF92D
:106F000000BF00BF9DF80000C0F3400000B1F8BD15
:106F100000BF002128460AF05FFE0446002C5ED028
:106F2000112C5CD00D2C21D12F49304A891AC90867
:106F3000022242EA01402A462D4907F0C5FD1321ED
:106F4000284676DF0446002C49D0204608F018FD7C
:106F500007462549254A891AC908022242EA014002
:106F60002B463A4623A107F0BBFD38E00B2C0BD192
:106F70001D491E4A891AC908022242EA01402A46CE
:106F80002A4907F0A1FD2AE043F2020084420BD116
:106F90001549164A891AC908022242EA01402A46BE
:106FA000234907F091FD1AE0204608F0E9FC074666
:106FB0000D490E4A891AC908012242EA01402B46AE
:106FC0003A461CA107F08CFD00BF274637B100BF31
:106FD000044AE1213846FFF71FF900BF00BF00BF98
:106FE00095E70000506F0300F87E0300C07E0300A9
:106FF000F06A030073645F626C655F6761705F6471
:107000006973636F6E6E6563742829207265747589
:10701000726E6564202573206F6E20636F6E6E5FE5
:1070200068616E646C652025642E0000B06B0300FF
:10703000646B0300417373657274696E672E207010
:107040006D5F636F6E6E5F7365637572652829206F
:1070500072657475726E6564202573206F6E20638F
:107060006F6E6E5F68616E646C652025642E000033
:1070700070B505460C4605B10CB9002070BD2878E6
:1070800040082178B0EB510F01D00020F6E706222E
:10709000611C681CFFF725FA08B90120EEE7002003
:1070A000ECE7014601F0030008B901207047002019
:1070B000FCE7024650680068401E084008B90120FD
:1070C00070470020FCE70246002104E0505C08B154
:1070D00001207047491C0629F8D30020F9E710B5B4
:1070E0000346D868884206D88818401E1C69A0420A
:1070F00001D8012010BD0020FCE7000010B50446B7
:107100006CB10848C068A04209D806480069A0428E
:1071100005D3204605F0A7FA08B1012010BD0020D4
:10712000FCE70000BC30002070B504460D4604F2B8
:107130002740FFF7C8FF0646012D06D0022D0DD0CF
:10714000032D11D0042D19D113E0A07928B194F8A2
:10715000240010B90EB1012070BD00BFE07910B15C
:107160000EB10220F8E700BF207A08B10320F3E750
:1071700000BF607A08B10420EEE700BF0020EBE713
:107180000146481C052290FBF2F302FB1300C0B23B
:107190007047014691F82420012A01D1EE2000E039
:1071A0001F20704710B501220221002001F04CFF82
:1071B000044600BF1CB1072C01D0204610BD00BF03
:1071C00007220221012001F03FFF044600BF1CB14D
:1071D000072C01D02046F1E700BF0A220021084613
:1071E00001F032FF044600BF1CB1072C01D020463D
:1071F000E4E700BF0020E1E730B5ABB0AC21684662
:10720000FFF75DF902208DF8000000208DF80200E4
:1072100006208DF803000121ADF84C10104914919F
:1072200001218DF87C1040212291002123910D48ED
:10723000299069460C4800F0B0FD044600BF254681
:107240003DB100BF09A240F2FB212846FEF7E4FF52
:1072500000BF00BF0121044800F09CFD2BB030BDF1
:107260001C2C0020B9030300F03000202E2E5C2ED1
:107270002E5C2E2E5C6D61696E2E630070B5044627
:10728000012C02D102F0D2FE11E00321084800F0E7
:107290004BFE054600BF2E463EB100BF05A240F2A0
:1072A00079313046FEF7B8FF00BF00BF00BF70BDA8
:1072B000F03000202E2E5C2E2E5C2E2E5C6D61692F
:1072C0006E2E630070B58CB004460D461646002045
:1072D00005E0C0F10F01615C0DF80010401C1028A2
:1072E000F7D30D2104A8FFF7EAF8002005E02A5C97
:1072F000C0F10F0304A9CA54401C0328F7D3684601
:1073000046DF002005E0C0F10F0208A9895C315476
:10731000401C0328F7D30CB070BD10B50446022002
:1073200001F02CFD10BD000010B5044602480178A4
:10733000204600F089FF10BDE82D002010B5002484
:1073400007E00749096811F83400012108F0E6FB5D
:10735000641C044800788442F3D3002010BD000070
:10736000282E00202C2E00202DE9F84306460D463D
:1073700017460A2F02D20720BDE8F88308F012FD55
:1073800038B908F0A5FC044600BF204600B1F3E779
:1073900000BF18480660184805701848076010219B
:1073A0001748FFF78CF80021164A1160516015E06C
:1073B00006EBC50814480068009098F802008DF8A4
:1073C000010098F80000114A694608F0FDFB0446E8
:1073D00000BF204600B1CFE700BF00BF281EA5F1C7
:1073E0000101CDB2E4D10A4A00210A4800F064F953
:1073F000C2E70000282E00202C2E0020302E002076
:1074000088560020582E0020D45F030091B9020056
:10741000E1A00200D05F03002DE9FE4307460E46BF
:10742000144672B600BF07F04FFC00BF00BF07F064
:10743000B3F90028FBD100BF00BF012F0CD06FF4BF
:107440008050384498B1B0F5405F2CD06FF4405173
:107450000844002847D115E03149324A891AC90841
:10746000012242EA014030A107F024FB47E02C4909
:107470002C4A891AC908012242EA014032A107F0C8
:1074800019FB3CE025462649DFF898C0A1EB0C012A
:10749000C9084FF0010C4CEA014034A1D5E9003293
:1074A00007F01EFB2BE02546A86808F069FA804625
:1074B000D5E900108DE8430019491A4BC91AC908CB
:1074C000012343EA014043462FA1AA6807F042FB8B
:1074D0001349144A891AC908012242EA014034A119
:1074E00007F0E8FA0BE00E490E4A891AC908012292
:1074F00042EA0140324633A107F0E6FA00BF00BF7E
:1075000000BF3648006800F0010000B100BE00BFB7
:1075100022463146384600F063F8BDE8FE8300009D
:10752000A07F0300C07E0300534F46544445564994
:1075300043453A20415353455254494F4E2046410A
:10754000494C454400000000534F465444455649B9
:1075500043453A20494E56414C4944204D454D4FF4
:107560005259204143434553530000004153534572
:107570005254494F4E204641494C454420617420A5
:1075800025733A25750000004552524F522025754B
:10759000205B25735D2061742025733A25750D0AE3
:1075A00050432061743A203078253038780000004C
:1075B000456E64206F66206572726F72207265700E
:1075C0006F727400554E4B4E4F574E204641554CEE
:1075D000542061742030782530385800F0ED00E0F8
:1075E00018B5012300939DF800301E4B18605960B8
:1075F0009A606FF48043034463B1012B19D1194B96
:10760000DA60DB681B68174CA3612346DB685B68A4
:10761000E3610EE0134B1A611B699B68114C6361B7
:1076200023461B691B68A36123461B695B68E361F2
:1076300000BF00BF0B4B1B680A4B5B68094B9B6884
:10764000084BDB68074B1B69064B5B69054B9B6965
:10765000044BDB6972B600BF9DF80030002BFBD1F4
:1076600062B618BD9856002070B504460D462046F7
:1076700003F0EAFB28B12946204603F0D9FB00209D
:1076800070BD0520FCE770B504460D46204603F0AA
:10769000DBFBA188884205D82946204603F0E2FB9F
:1076A000002070BD0420FCE710B5024802F0E2FDA6
:1076B00010BD0000602E002030B503460C460AB90C
:1076C000072030BD19684FF0FF358D60CD604A61ED
:1076D000012C01D1012000E0002008610020F0E72A
:1076E00038B5134800680090082358221149124801
:1076F000006805F00EFF04460CB1204638BD0F4A65
:1077000069460F4802F0BCFD04460CB12046F5E77F
:1077100001210B4802F05AFE01230A4A1946084883
:1077200002F07AFD0120084908702046E6E70000D3
:10773000E85F0300B8560020D85F0300D735030088
:10774000602E0020FFFF7F006C2E00202DE9F84303
:1077500006460D469046344600200090684600F0EC
:107760007DF84FF0FF33D4E90210594058400143EF
:1077700008D104F0EFF8401941F10001C4E9020119
:10778000012700E000279DF8000000F06DF817B910
:107790000020BDE8F883C4F81880206900B1256195
:1077A000214600200DF0ACFCF3E7F8B50446254671
:1077B00000200090684600F051F84FF0FF33D5E903
:1077C000021059405840014301D1002604E04FF017
:1077D000FF31A960E96001269DF8000000F044F83F
:1077E0000EB90020F8BD294601200DF089FCF9E70B
:1077F0002DE9F041054629461448FFF744FF0646A7
:1078000006BB134C002720781249085C20B1201DCC
:1078100008F048FD074608E020780E49085C20B9CA
:1078200004F10C0008F0CCFC074600BF57B90A4928
:107830000648FFF719FF28B901220749044806F056
:10784000B9F906463046BDE8F08100003057002007
:10785000842E00200C2E00209C2E002010B5044603
:1078600020460CF019F810BD70B5044625460E48A8
:107870008068B0B1ADB9FFF727FB06460A4800683B
:107880000A490860084840684FF0E021C1F8040147
:107890000020054988601EB900BF62B600BF00BF66
:1078A00000BF00BF70BD00004057002000E100E0B5
:1078B000F8B505460C4617462088001DB84201D988
:1078C0000C20F8BD684679DF064600BF304600B19F
:1078D000F7E700BF0320218868542088401C2080DF
:1078E0001920218868542088401C20802088411954
:1078F000BDF800000DF0DDFC218808442080002048
:10790000DFE770B504460D46204605F071F870BDFE
:1079100010B50446637903F003022179208805F04D
:1079200025F810BD10B50446207918B9204600F09E
:1079300007F803E02046FFF7EBFF00BF00BF10BDD4
:107940002DE9FE4307463E884FF0000800225948C3
:107950000178304600F08EFC7879C0F3800028B9B9
:107960000021384609F048FBBDE8FE8306F580712A
:1079700088B201AB0122072109F05EFC0546C5B1C2
:10798000284607F0FDFF81464B494C4A891AC90831
:10799000012242EA014033464A46494907F0A0F82D
:1079A000294630460CF0C2FA0021384609F024FB83
:1079B000DAE7304604F062FB04464FF6FF718C4272
:1079C0001BD1029804F0AAFA04464FF6FF708442D5
:1079D00013D02146304604F02FFB3046FFF7A4FCBD
:1079E00058B930460CF036FA3046FFF79DFC20B906
:1079F0000021384609F000FBB6E74FF6FF708442DD
:107A00001FD109F02FFE04464FF6FF70844212D1B9
:107A100029492A4A891AC908012242EA014029A1B2
:107A200007F048F8042130460CF080FA002138466F
:107A300009F0E2FA98E72146304604F0FDFA4FF0EB
:107A4000010806F5807188B22246072109F07CFC06
:107A5000054625B90121384609F0CEFA28E0862DE1
:107A600007D130460CF028FA0121384609F0C4FA53
:107A70001EE0284607F084FF81460F490F4A891A05
:107A8000C908012242EA014033464A461A49009495
:107A900007F036F8294630460CF048FA00213846FF
:107AA00009F0AAFAB8F1000F02D0204604F0CEFA8D
:107AB00000BF59E7E52D0020007F0300C07E0300D2
:107AC00010720300436F756C64206E6F7420616CDC
:107AD0006C6F63617465206E657720706565725F99
:107AE000696420666F7220696E636F6D696E6720CE
:107AF000626F6E642E0000002C730300002114E0FE
:107B00000C48D0F81024012308E000BFD0680079A9
:107B1000884201D1002303E0D0680268002AF4D132
:107B200000BF0BB108467047491C0A29E8DB4FF03B
:107B3000FF30F8E7905A00202DE9F04104460F4647
:107B4000154615B90E20BDE8F0810020286000BF61
:107B50000CB90E20F7E700BF00BF206808B90E205F
:107B6000F1E700BF00BFE088C11700EB91718910F9
:107B7000A0EB810109B10720E5E700BF384600F01E
:107B8000DBFAC6B2142E01D10520DCE72079B04221
:107B900001DC0420D7E7E188206806FB01002860AB
:107BA0000020D0E72DE9FC41054688461646002412
:107BB00037880020308095F82D0058B13A4631467C
:107BC000404600F033FC044600BF204608B1BDE843
:107BD000FC8100BFA87850B13A4631464046FFF7D5
:107BE00067FE044600BF204600B1F0E700BFE8781A
:107BF00060B1E97848B23B463246414603F099F914
:107C0000044600BF204600B1E1E700BF686868B1E4
:107C1000696891F900003B46324641460DF028FB69
:107C2000044600BF204600B1D1E700BF28890028E4
:107C30000EDD43460622022105F10800CDE900676A
:107C40000DF095FC044600BF204600B1BFE700BF21
:107C5000288A00280EDD43460722032105F1100083
:107C6000CDE900670DF083FC044600BF204600B15B
:107C7000ADE700BF288B00280EDD434615221421F6
:107C800005F11800CDE900670DF071FC044600BF56
:107C9000204600B19BE700BF286A58B13B463246F8
:107CA0004146286A01F089FF044600BF204600B122
:107CB0008DE700BF686A58B13B4632464146686A64
:107CC00005F0A8F8044600BF204600B17FE700BFDA
:107CD00095F82C0000280BDD3B46324641462846ED
:107CE0000CF0D8FA044600BF204600B16FE700BF91
:107CF000287858B13B4632464146284605F079F986
:107D0000044600BF204600B161E700BF20465EE7A1
:107D1000F8B504460E461546002000902B466A46EC
:107D20003146204600F008F807460FB90020F8BD9C
:107D3000BDF800002044FAE7F0B504460D461E46A3
:107D400004B10AB90020F0BD002103E0605C401CD2
:107D5000084481B2481CA84206DA10888842F5DC43
:107D6000481C205CB042F1D1A94201DB0020EAE7C7
:107D7000881C87B2605C10B1605C401E00E000208F
:107D800083B213B1F818A84201DD0020DBE71780A9
:107D90001846D8E780F83010704770B504460D4695
:107DA00005B10CB90E2070BD05F1780001F085FE1B
:107DB00008B90720F7E70020A0702C2205F1780110
:107DC000201DFEF763FB002084F83000D5F8A400E6
:107DD0006063D5F8A800A0634FF6FF70A4F82404F0
:107DE00004F58260C4F82004002140F22C40C4F85D
:107DF0002614A4F82A140155207810B9FF2084F81D
:107E0000540004F15500C4F810042046FFF7C1F9EE
:107E100040F21441085304F2144204F1550128467B
:107E2000FFF7C0FE064600BF304600B1BBE700BF0B
:107E300004F231204FF4836108512046FFF7A9F97D
:107E4000A4F81C044FF48360015904F21C4205F1AC
:107E50003C00FFF7A7FE064600BF304600B1A2E790
:107E600000BF012151200155208B81B248200153D0
:107E7000012084F83C0000212164502001556169F3
:107E8000616404F13C02002104F1540072DF0646F3
:107E900000BF304600B186E700BF012020703046A9
:107EA00081E770B504460D462E462088102804D080
:107EB000112807D026280FD109E02146304608F0C6
:107EC00069FB0AE02146304608F076FC05E02146D1
:107ED000304608F00CFE00E000BF00BF70BD70B57A
:107EE000044694F8540074DF012084F82E04002026
:107EF00084F830040021502001550621204603F06B
:107F000033F8054600BF284600B170BD00BFA17818
:107F1000204600F009F8054625B1A06B10B12846AF
:107F2000A16B88470020F0E770B504460E46207824
:107F300008B9082070BDA670002140F22C40C4F89A
:107F40002614A4F82A140155A07910B1A0780128AC
:107F500009D0E07910B1A078012804D0E07970B19F
:107F6000A07802280BD1606B30B1012084F82D0479
:107F70000820616B884702E0002084F82D04314618
:107F80002046FFF7D1F8A070606BA0B1A07803285D
:107F900002D0A07804280ED1607960B194F82E0444
:107FA00048B9002084F83004012084F82F04072009
:107FB000616B884702E0002084F82F04182104F147
:107FC0003C00FEF77CFA012084F83C0004F12C0010
:107FD00009F032FD20B194F82C105120015502E037
:107FE00001215120015594F8240060B104F12800CA
:107FF00009F022FD20B194F828105220015502E02A
:10800000012152200155002150200155A07805285A
:1080100024D2DFE800F01F030A11180004F13C012C
:1080200020460CF0D7F9054619E004F13C01204642
:108030000CF0B8F9054612E004F13C0120460CF0C2
:10804000DBF905460BE004F13C0120460CF002FA96
:10805000054604E0002084F8310000E000BF00BFC6
:10806000A07898B104F13C0204F15400D4F8201433
:1080700072DF05460DB128465CE794F8301094F89D
:10808000540073DF05460DB1284653E7606B18B105
:1080900094F83100616B884700204BE72DE9F041EF
:1080A000044600BF14B90E20BDE8F08100BF1C22B9
:1080B00021461C48FEF7EAF91B481A490860206867
:1080C00060B120687ADF05460DB12846ECE7164816
:1080D00021680A6802604968416005E012487BDF58
:1080E00005460DB12846DFE7002617E006EB8600BF
:1080F0000E4901EB800700BF4FF6FF70388000BFCC
:108100000B4800EB461078600A4A0021381DFFF743
:10811000D3FA05460DB10320C6E7761C002EE5D044
:108120000020C1E7FC510020E02C0020E851002095
:10813000C85100207D54030010B50446204600F0CD
:10814000AFF808B1204610BD1420FCE710B5044676
:10815000204600F0A5F820B12146034805F07BFA3F
:1081600010BD0020FCE700002852002070B5044636
:108170000D46164620460DF0CBF908B9002070BD1B
:10818000034951F824003246294602F061FFF6E720
:108190003452002010B50446204600F081F820B18A
:1081A0002146034805F057FA10BD0020FCE7000007
:1081B0003052002010B50446204600F071F820B17E
:1081C0002146034805F047FA10BD0020FCE70000F7
:1081D0002C52002070B504460025204600F060F8BF
:1081E00050B12146054805F036FA06460EB1022088
:1081F00000E00120054600BF284670BD2452002043
:1082000070B504460025204600F04AF850B12146DA
:10821000054805F020FA06460EB1022000E00120D4
:10822000054600BF284670BD2052002010B5182119
:10823000044805F0E0F90446182C00D110BDE0B266
:10824000FCE700001852002070B505460C46204699
:108250000DF05EF950B1284600F022F830B1044923
:1082600001EB8400294605F0F6F970BD0020FCE71B
:108270003452002070B505460C46164620460DF0D7
:1082800047F950B1284600F00BF830B1034901EB33
:1082900084003246294602F03DFE70BD3452002073
:1082A00010B50446142C01DB002010BD2146024805
:1082B00005F0D1F9F9E700001C520020F8B50020C4
:1082C00000904D48007800284AD04C4880880090A3
:1082D0004A4801684A4803886A464A4800F0DAFB7F
:1082E000044643F201418C421DD100231A4619462F
:1082F00043480088B1DF054600BF2E463EB100BFAF
:1083000041A240F29A313046FDF786FF00BF00BF20
:108310004149424A891AC908032242EA01404049B8
:1083200006F0C8FB11E0082C0FD0132C0DD0052C43
:108330000BD000BF25463DB100BF33A24FF468719A
:108340002846FDF769FF00BF00BF4CB935480068FB
:10835000BDF8001008443349086000202649087021
:108360003FE000222549304806F066FE044600BF83
:1083700025463DB100BF24A240F2AE312846FDF7AC
:108380004BFF00BF00BF1D48808800901B4801685C
:108390001B4803886A461B4800F07CFB0446082CF7
:1083A0000FD0132C0DD0052C0BD000BF25463DB1AE
:1083B00000BF15A240F2B6312846FDF72DFF00BFE1
:1083C00000BF54B917480068BDF8001008441549AB
:1083D000086000200849087003E001200649087081
:1083E00007E0114806F076FE18B903480078002827
:1083F000B7D000BFF8BD0000512C0020482C002051
:10840000182C0020FC2B00202E2E5C2E2E5C2E2EF5
:108410005C6D61696E2E6300A07F0300C07E030067
:10842000A0630300402C0020D47F03002DE9FC4111
:1084300005460C46174620880930B84202D90C2060
:10844000BDE8FC8168466DDF064600BF304600B1DE
:10845000F6E700BF0820218868542088401C20804F
:108460001B20218868542088401C208020882844B4
:10847000DDF801100160BDF8051081802088801DA5
:1084800020809DF80000400818B900202188685419
:1084900002E00120218868542088401C20800020B0
:1084A000CEE7000010B54FF0FF3100203DDF04465D
:1084B00000BF204600B110BD00BFB12100203CDF4D
:1084C000044600BF204600B1F5E700BF04484169FB
:1084D00001208847022006F07DFD0020EBE7000028
:1084E0003861002010B505480068416900208847C0
:1084F000FFF7D8FF0446204610BD0000542F00208F
:1085000070B504460D4600BF04B970BD00BF208899
:10851000102806D0112808D051280AD0532810D18D
:108520000BE0204608F030F80CE0204608F036F961
:1085300008E0204608F084FA04E0204608F0F6F946
:1085400000E000BF00BF00BFDFE7000070B50446D9
:108550000426207B012802D0022822D109E001F064
:10856000DDFF05460DB9012602E0112D00D10626DA
:1085700019E0607B142801DC607B08B905260FE058
:10858000627B04F10E011248FDF780FF607B104909
:10859000091F886108460BF08BFF054605B90126C7
:1085A00001E0022600BF00BF012E0FD0207B314624
:1085B00000F058F8054625B10648006841690320D7
:1085C00088470448006841690220884770BD000060
:1085D00064610020542F002070B505460E4600BF90
:1085E0001E48006820B11D48406808B1012000E025
:1085F000002000B970BD00BF184800F108014268B2
:1086000028469047044600BF082C24D07CB900209F
:108610001349096848760121022000F023F8044636
:10862000CCB10F48006841690320884713E000205F
:108630000B49096848760621022000F013F8044629
:1086400024B107480068416903208847044800684E
:1086500041690220884700BFCCE700005461002038
:10866000542F0020F0B587B004460D4603270020A4
:1086700001900290039004900320069020208DF832
:1086800014008DF815408DF816500E48C088ADF8CE
:10869000040002208DF806000020ADF8080006A8AE
:1086A000039005A804900749888801A9AEDF064613
:1086B00026B9BDF81800032800D00C26304607B0B4
:1086C000F0BD0000386100202DE9F84305468846DA
:1086D0002F1D288821285DD006DC10280BD01128FA
:1086E00041D013287ED169E03B287CD052287CD031
:1086F0005628F7D19EE05A495A4A891AC9080322D6
:1087000042EA014058A106F0D5F9072000F0CAFC62
:10871000044600BF26463EB100BF56A24FF4F77193
:108720003046FDF779FD00BF00BFA8885549088095
:1087300008460188544805F03FF9044600BF264624
:108740003EB100BF4BA240F2F1113046FDF764FD8F
:1087500000BF00BF38884D498FDF04460121032048
:1087600007F0DCF978E03E493E4A891AC90803223D
:1087700042EA014046A106F09DF94FF6FF704149DB
:108780000880032007F0A0F900204549086045490A
:10879000086061E0444800680090A88869468FDF5F
:1087A000044600BF26463EB100BF32A240F20A2175
:1087B0003046FDF731FD00BF00BF4DE000231A46F3
:1087C0008521304800887FDF044600BF26463EB141
:1087D00000BF28A24FF404713046FDF71DFD00BF15
:1087E00000BF39E037E014E0FFE700231A461946DE
:1087F00024480088B1DF044600BF26463EB100BFD2
:108800001CA240F216213046FDF706FD00BF00BF56
:1088100022E0A888132176DF044600BF26463EB139
:1088200000BF14A240F21D213046FDF7F5FC00BF49
:1088300000BF11E0A888132176DF044600BF26465A
:108840003EB100BF0BA24FF409713046FDF7E4FCC6
:1088500000BF00BF00E000BF00BFBDE8F88300001C
:10886000A07F0300C07E0300436F6E6E6563746576
:10887000640000002E2E5C2E2E5C2E2E5C6D616935
:108880006E2E6300182C0020E4300020345D0300BD
:10889000446973636F6E6E65637465640000000005
:1088A000402C0020442C0020485D030070B5054694
:1088B0000E462888102802D011282CD115E0174820
:1088C000006860B901F07AFA044600BF34B1144878
:1088D000006818B1204612490968884700BF0F4850
:1088E0000068401C0D49086016E00C480068401EF6
:1088F0000A4908600846006860B9FEF753FC044660
:1089000000BF34B10648006818B120460449096820
:10891000884700BF00E000BF00BF70BDDC2C002016
:10892000D82C002070B504460D462088102806D0AB
:10893000112808D012280ED0502810D107E0204668
:1089400007F0B0FD0CE0204607F00EFF08E02046DF
:1089500008F0FEF804E0204607F08CFD00E000BFC0
:1089600000BF70BD2DE9F04104460F46A68820885F
:10897000102806D0112819D019283FD01A284AD11A
:1089800018E00AF083FD30460AF0F4FB30B900BF6E
:1089900022A2F0210420FDF73FFC06E0E07B022844
:1089A00003D131462C4804F065FE34E030460AF02D
:1089B00091FD30E0207A0509042D01DB012000E063
:1089C00000200246314624480C3002F0A3FA032D61
:1089D00001DB012000E00020024631461E4808303D
:1089E00002F098FA022D01DB012000E0002002468F
:1089F00031461948001D02F08DFA0CE0207A48B982
:108A0000607AC0F3C0052A46314613480C3002F0A4
:108A100081FA00BF00BF00BFBDE8F0812E2E5C2EA2
:108A20002E5C2E2E5C2E2E5C2E2E5C2E2E5C636F0A
:108A30006D706F6E656E74735C626C655C636F6D98
:108A40006D6F6E5C626C655F636F6E6E5F73746199
:108A500074652E63000000002452002070B50446A7
:108A60000D4600BF0A48007800B970BD00BF20461F
:108A700003F082FD00B1F8E7204603F0B9F9204683
:108A80000BF044FE204602F045FD00BFEDE700007C
:108A90001C2D00202DE9F04186B00446884617467B
:108AA0001D4600BF1CB90E2006B0BDE8F08100BF16
:108AB00001AA29466069FFF73FF8064600BF304625
:108AC00000B1F1E700BF4FF6FF70854201D0019879
:108AD00008B90520E8E70198007808B90820E3E71D
:108AE0003888F42801DD0720DEE70020029003909B
:108AF00004900590A088ADF80800CDF81480049784
:108B000001208DF80A0002A92846AEDFCCE700005C
:108B100070B58EB004460E463E4B0FCB09AD0FC567
:108B200000BF14B90E200EB070BD00BF00BF0EB95B
:108B30000E20F8E700BF3068A061214609A862DF77
:108B4000054600BF284600B1EDE700BF20788DF84C
:108B500036000120ADF83400A21C0DA9A8DF05469F
:108B600000BF284600B1DEE700BF202101A8FDF7C5
:108B7000A6FC0220ADF8040020788DF80600F42051
:108B8000ADF808000120ADF80A008DF810009DF83E
:108B9000110020F0080008308DF811009DF8110038
:108BA00020F00400001D8DF8110001208DF8150043
:108BB0008DF81600608804F10C0201A900F034FE63
:108BC00005460DB12846AEE7202101A8FDF777FC48
:108BD0000320ADF8040020788DF80600F420ADF8ED
:108BE00008000120ADF80A008DF810009DF8110072
:108BF00020F0100010308DF8110001208DF81500C4
:108C00008DF816008DF817006088221D01A900F06C
:108C10000BFE88E75C5F030070B504460D4605B1A6
:108C200004B970BD2E462088102804D0502807D0E3
:108C300057280FD109E02146304607F06BFC0AE0C7
:108C40002146304607F0B0FF05E02146304607F0E8
:108C500083FE00E000BF00BF00BFE2E770B504463E
:108C600020460CF020FB0546C5F3400070BD70B5F2
:108C7000044620460CF017FB054605F0010070BDC8
:108C800038B506F01DFD044600BF25463DB100BFC6
:108C900015A240F237212846FDF7BEFA00BF00BFFB
:108CA000002000906946012006F004FB044600BF46
:108CB00025463DB100BF0CA240F23D212846FDF7FC
:108CC000ABFA00BF00BF684606F0C4FB044600BF15
:108CD00025463DB100BF04A240F241212846FDF7E0
:108CE0009BFA00BF00BF38BD2E2E5C2E2E5C2E2EB0
:108CF0005C6D61696E2E630001460148405C7047FF
:108D00006B5D030010B50146094B585C00BF4FF086
:108D1000A044234600BFD3F81045C44004F001042A
:108D20000CB1012000E00020024682F0010010BDDD
:108D30006B5D03007CB500240DE00848055D03264B
:108D4000002000903346024601460190284605F077
:108D500019FB00BF641C042CEFD37CBD6B5D0300CA
:108D600010B5044604F0010008B100F04BF804F01F
:108D7000020008B1FFF7DEFF10BD000010B502468B
:108D80000949885C00BF4FF0A0442146D1F8043562
:108D9000012484409C43C1F80845012484401C40C0
:108DA000C1F80C4500BF10BD675D030010B5044657
:108DB0000249085D012105F0C2FB10BD675D03009B
:108DC00010B504460249085D002105F0B8FB10BD4E
:108DD000675D030010B50146094B585C00BF4FF0BA
:108DE000A044234600BFD3F80445C44004F0010466
:108DF0000CB1012000E00020024682F0010010BD0D
:108E0000675D03007CB500240CE00948055D002087
:108E100000900346012211460190284605F0B2FA5F
:108E200000BF641C042CF0D300F004F87CBD0000EB
:108E3000675D030010B5002403E02046FFF7B6FF8E
:108E4000641C042CF9D310BD10B5002403E02046A7
:108E5000FFF7B6FF641C042CF9D310BD02464FF097
:108E6000FF30002106E0054B5B5C934201D10846D0
:108E700002E0491C0429F6D300BF70476B5D030074
:108E800070B505460C4600260648056014B120461C
:108E90000BF060FF0448006810B9FEF783F906463E
:108EA000304670BDD82C0020DC2C002010B50020EE
:108EB00000F022FB044600BF1CB1062C01D0204666
:108EC00010BD00BF012000F017FB044600BF1CB11D
:108ED000062C01D02046F3E700BF0020F0E7000099
:108EE0002DE9F04106460F464FF0000800243046B9
:108EF000FFF7B4FF0446042C3ED20FB3012F02D07B
:108F0000022F38D130E004EB4400214911F80080F1
:108F100004EB44000844407850B11E4A4FF48041AD
:108F20001D480068FEF712FC05460DB91948067089
:108F300004EB4400164908448078184908551AE0A3
:108F400015480068FEF731FC1448005D04EB44014D
:108F50000F4A11448978884205D104EB4400114638
:108F6000084490F8028006E004EB440008490844F5
:108F700090F8018000BF00BFB8F1000F06D008488C
:108F8000006818B14046064909688847BDE8F08185
:108F9000B8510020D02C0020785D0300D12C002097
:108FA000A82C002010B50446042C03D22046FFF75D
:108FB000A9FE10BD0020FCE770B50546042D06D0C3
:108FC000072D18D00A2D2FD10BF068FB2DE01321AF
:108FD0001748008876DF0446082C0BD000BF2646D1
:108FE0003EB100BF13A24FF41D713046FDF714F9D6
:108FF00000BF00BF19E00E4800884FF6FF7188429D
:1090000011D11048FEF76BFF0446082C0BD000BFAF
:1090100026463EB100BF07A240F27E213046FDF752
:10902000FBF800BF00BF00E000BF00BF70BD000044
:10903000182C00202E2E5C2E2E5C2E2E5C6D61696D
:109040006E2E6300F030002030B503460020042B64
:1090500023D2012A07D1012903D103F10E04E4B27E
:1090600000E00024224679B1012902D0022911D161
:1090700004E003EB43040A4D2A550DE003EB4304DF
:10908000074D2C44627007E003EB4304044D2C446D
:10909000A27001E0072000BF00E0072030BD000003
:1090A000B851002070B5044600250548007800F04E
:1090B000010018B1204600F05BF80546284670BD57
:1090C0005C2C00202DE9F04105460F4600241F4886
:1090D00005601F48076005F0020000B3002606E0A7
:1090E000012211463046FFF7AFFF0446761C042EDE
:1090F00001D2002CF4D034B940F2333204211548A7
:10910000FEF732F9044614B9FEF718F904462CB9F3
:10911000114A00211148FEF7CFFA044600BF05F0BE
:10912000010080B10120FFF71BFE2CB90C4A002181
:109130000C48FEF7C1FA04462CB90B4A01210B4832
:10914000FEF7BAFA04462046BDE8F0815C2C002008
:10915000A82C00207C5D030061960200785D03006E
:10916000F9C60200705D03001B730200745D03000A
:109170002DE9F047044600260025DA48007820B1A2
:109180000020D849087003F0A3FA182C7ED2DFE83B
:1091900004F00C16174A7EB2F6F4F3F2F1F0EFEE9B
:1091A000EDECEBEAE9E8E7E6E5E403F091FACE4816
:1091B0000068FEF7FAFA0646CC4804708DE100BF5D
:1091C0000020FFF707FE58B10020FFF7EFFD022C4B
:1091D00002D14FF4E16001E04FF47A60054609E006
:1091E0000020FFF7EDFD022C01D1C82001E04FF473
:1091F000C8700546BD4804704FF40040A5FB001040
:109200004FF47A73CF1840F100015A00002338461A
:10921000FDF7F8F8814600224946B3480068FEF79A
:1092200095FA064659E10020FFF7D4FD58B1002019
:10923000FFF7BCFD032C02D14FF4487001E04FF45E
:109240007A60054609E00020FFF7BAFD032C01D142
:10925000C82001E04FF4C8700546A44804704FF4DC
:109260000040A5FB00104FF47A728F1840F1000106
:10927000520000233846FDF7C5F8814600224946D2
:1092800099480068FEF762FA064626E124E10020CC
:10929000FFF7A0FD58B10020FFF788FD042C02D194
:1092A0004FF47A6001E04FF47A6005460AE000204E
:1092B000FFF786FD042C02D14FF4C87001E04FF493
:1092C000C8700546894804704FF40040A5FB0010A3
:1092D0004FF47A73CF1840F100015A00002338464A
:1092E000FDF790F88146002249467F480068FEF766
:1092F0002DFA0646F1E00020FFF76CFD50B100208A
:10930000FFF754FD052C01D1C82001E04FF47A602D
:10931000054609E00020FFF753FD052C01D1C820C8
:1093200001E04FF4C8700546704804704FF40040E7
:10933000A5FB00204FF47A73D71840F100015A00C2
:1093400000233846FDF75EF881460022494666480C
:109350000068FEF7FBF90646BFE0B8E0B6E0AAE019
:10936000A1E098E092E05FE05DE05BE059E057E06B
:1093700051E042E033E024E015E00EE0FFE700209A
:10938000FFF7FCFC59480470002240F26661564821
:109390000068FEF7DBF906469FE00020FFF710FDAE
:1093A0005248047099E001204E490870FFF7E6FC2E
:1093B000002240F266614C480068FEF7C7F9064695
:1093C0008BE0012047490870FFF7D8FC00224FF4DA
:1093D000005145480068FEF7B9F906467DE00120D6
:1093E00040490870FFF7CAFC002240F266613E481F
:1093F0000068FEF7ABF906466FE0012039490870B6
:10940000FFF7BCFC00224FF4005137480068FEF71C
:109410009DF9064661E0FFF717FD344804705CE0F3
:1094200000BF00BF00BF00BF31480068FEF7BDF9B4
:109430000646C4F1110515B30EBB012D18D9A8B20B
:10944000C82148434FF4004180FB01104FF47A7269
:109450008F1840F10001520000233846FCF7D2FF7C
:1094600081460022494622480068FEF76FF9064609
:109470000220FFF7A5FC01201E49087005E002202C
:10948000FFF794FC00201B49087026E003F020F948
:109490001648047021E003F01BF90020FFF790FC50
:1094A0001248047019E003F013F90120FFF788FC5B
:1094B0000E48047011E003F00BF90020FFF780FC68
:1094C0000120FFF77DFC0948047006E000BFFFF7AC
:1094D000BBFC0648047000E000BF00BF3046BDE89A
:1094E000F0870000592C0020705D0300582C0020EC
:1094F000745D0300602C002010B504460121204655
:109500000CF0C7F810BD00002DE9FC4704460D46DD
:109510001646A71C4FF001080020019001A8FEF795
:109520009DF93048406828602E4840682D49896878
:10953000411A2D480068401CA0EB010915E00121EB
:109540002A4804F0BBF803F075FB824651462748D1
:1095500004F0B4F82348406822498968411A224837
:109560000068401CA0EB010900BF4F45E7D8B8F1E7
:10957000000F30D00021009176B1009921F0030155
:10958000491C0091009921F00401091D00910099E6
:1095900064F3891100910DE0009921F00301891C09
:1095A0000091009921F00401091D0091009964F3D4
:1095B0009F5100910B4949680B4A12681140094AB2
:1095C0000C3202EB81000099016006494968394478
:1095D0000C3A516000BF9DF80400FEF745F9404683
:1095E000BDE8FC87905A00200C2F0020AC5E0020C4
:1095F00070B504460D460A2D03D10D212046FFF714
:10960000F7FFA168481CA06020684554D4E9011008
:10961000884202D3204604F004FB70BD04488068F1
:1096200003494968884201D1012070470020FCE7C6
:10963000905A00200246002108E0074B1B6803EB0C
:10964000C1000378934200D17047491C0348007859
:109650008142F2DB0020F7E7282E00202C2E00208C
:1096600010B5044620780221FFF73AFC10BD000037
:10967000F8B5054615490320FFF724FD044600BF51
:1096800026463EB100BF12A240F20A313046FCF736
:10969000C3FD00BF00BF69460020FFF7F1FB044691
:1096A00000BF26463EB100BF09A240F20D31304650
:1096B000FCF7B2FD00BF00BF9DF80000022801D1F9
:1096C000012000E000202870F8BD0000B98F0200E2
:1096D0002E2E5C2E2E5C2E2E5C6D61696E2E63002C
:1096E0007CB50446204602F0C9FC054600236A46C4
:1096F000092107F0FFFE052805D101220248017863
:109700002046FEF7B7FD7CBDF82C00207CB5044652
:109710000E460020019042F6A620ADF8040001207C
:109720008DF806000748006800906A4601A92046A7
:10973000A0DF05462DB90122034801782046FEF737
:1097400099FD7CBDF85D0300F92C00200146887965
:10975000012809D10879012806D1488842F6021269
:10976000904201D1012070470020FCE74FF0FF310B
:10977000054A42F82010082804DBFF23A0F1080165
:1097800050325354704700008C5500200146024867
:1097900050F82100704700008C5500202DE9F04F53
:1097A00003460C464FF0FF390AB1002000E00820C4
:1097B00084460AB1082000E00C208046614624E07F
:1097C000154850F82100401CF0B91D4608462746B0
:1097D00016464FFA80FBDFF840A00AF1300A0AF87B
:1097E00005B0DFF834A04AF820704EB94FFA85FB77
:1097F000A0F1080ADFF820E00EF1500E0EF80AB0D2
:1098000000BF4FFA81F902E0491C4145D8D300BF9F
:109810004846BDE8F08F00008C5500200146014805
:1098200040567047BC55002070B590B006460C46B7
:109830001546A07818B901208DF80E0002E0A07836
:109840008DF80E002088ADF80C0000200290607C9E
:1098500002A90AF05DFEA07C0DF109010AF058FE94
:10986000E07B08B1012000E000209DF80A1060F3C1
:10987000C3018DF80A10207C08B1012000E000200F
:109880009DF80A1060F304118DF80A10207B08B1CE
:10989000012000E000209DF80A1060F300018DF81F
:1098A0000A10207D08B1022000E001209DF80A1076
:1098B00060F342018DF80A101C2109A8FCF7FFFD96
:1098C000607BC0F3001018B9607BC0F34010F8B1A2
:1098D00000200090E07C0DF101010AF019FE00BFAC
:1098E0009DF8000020F00F00401C8DF800009DF84E
:1098F000000020F0F00010308DF8000000BF9DF84F
:10990000020020F00600801C8DF80200CDF838D04F
:10991000607B8DF82400A07B8DF82500142104A81D
:10992000FCF7CDFD03A8049002A80590A088ADF82F
:109930001C00A06820B1E088ADF81800A06808906D
:10994000A069002849D000200190A0690088ADF8E6
:109950002C00A0694088ADF82E00A06940680A90EC
:1099600001A80D90A169087B01A90AF0D1FDA169A8
:10997000487B0DF105010AF0CBFDA069807A08B1A2
:10998000012000E000209DF8061060F3C3018DF86F
:109990000610A069C07A08B1012000E000209DF8FF
:1099A000061060F304118DF80610A069007A08B162
:1099B000012000E000209DF8061060F300018DF802
:1099C0000610A069807B08B1022000E001209DF80C
:1099D000061060F342018DF80610E06908B1E069F5
:1099E0000C902B4604AA09A93046AADF10B070BD1E
:1099F0002DE9F04104460D464FF6FF76304684428D
:109A00000AD14FF48071284603F0F5FD86B2B6F511
:109A1000807F10D126460EE0FF2C0CDC2146284624
:109A200003F0D2FD80F001070FB1204601E04FF6B0
:109A3000FF70064600BF3046BDE8F08170B50546B0
:109A40000DB9094C01E0084C083409E0204602F049
:109A500012FE064606B904E028467168884700BF32
:109A6000F4E700BF70BD00008055002010B504462B
:109A70002CB90120064948700020FFF7DFFF012CB8
:109A800004D1012002498870FFF7D8FF10BD000003
:109A9000785500202DE9F047024613468C46D3E95D
:109AA0000245DCE90267B6EB040877EB050002D358
:109AB0000120BDE8F0870020FBE7014688780128F7
:109AC00005D191F82000012801D100207047886A53
:109AD000042802D0486A042801D10020F6E70120BA
:109AE000F4E700007CB500200090019001208DF883
:109AF00000006946022067DF044600BF25463DB1ED
:109B000000BF04A24FF462712846FCF785FB00BF3A
:109B100000BF7CBD2E2E5C2E2E5C2E2E5C6D6169EE
:109B20006E2E630033B58BB00546002000900C9874
:109B300078B100240BE021460CA803F08CFD28B17D
:109B4000009A501C009001A820F81240641C142CAC
:109B5000F1D32C2269462846FCF798FC0DB030BDA5
:109B600001460888062808DB0888B0F5486F06DD3E
:109B700008884FF6FF72904201D00720704748884E
:109B8000062808DB4888B0F5486F06DD48884FF6A0
:109B9000FF72904201D00720F0E708884FF6FF726D
:109BA000904208D04888904205D008884A88904260
:109BB00001DD0720E2E70020E0E72DE9F04107465C
:109BC0000D46144698462088801D404502D90C2039
:109BD000BDE8F0813846FFF7C3FF064600BF3046B8
:109BE00000B1F5E700BF0520218868542088401C9B
:109BF00020801220218868542088401C20802288E0
:109C0000511938880BF055FB2188084420802288A0
:109C1000511978880BF04DFB2188084420800020E2
:109C2000D6E7000010B5044600BF04A240F293112D
:109C30002046FCF7F1FA00BF10BD00002E2E5C2E6E
:109C40002E5C2E2E5C6D61696E2E630030B587B080
:109C50001C216846FCF733FC002000904FF4A03034
:109C600001904FF4F020029003208DF80C000020AA
:109C7000ADF80E008DF810000A4805900A480690CD
:109C80006846FEF70BFA044600BF25463DB100BF0B
:109C900006A24FF4D5712846FCF7BEFA00BF00BFFC
:109CA00007B030BD35040300259C02002E2E5C2E2B
:109CB0002E5C2E2E5C6D61696E2E6300F8B5054634
:109CC0000C46607A88B9207A10B91048476801E0DC
:109CD0000E4887682A4639466068FDF737FD064614
:109CE00016B130460AF0C8F80EE00020207207488E
:109CF000406948B101208DF80000ADF802500348DA
:109D000041696846884700BFF8BD0000FC5100204B
:109D1000F0B585B004460D4617461E4614220B4981
:109D20006846FCF7B3FBADF802408DF80850ADF87B
:109D30000A708DF80C600022054801782046FEF775
:109D400099FA684600F00AFE05B0F0BD085F03000E
:109D5000E52D002010B586B00446208807F002F9F2
:109D600000BB2088FEF7F2F930B92088012241F2C9
:109D7000060100F0C8FB15E0208800220A49097896
:109D8000FEF778FA03208DF804002088ADF806006D
:109D900000208DF80C0000218DF80D1001A800F0B6
:109DA000DDFD00BF06B010BDE52D002070B50446F6
:109DB0000D4629462046FDF78DF870BD10B50122ED
:109DC00000210846FFF740F9044600BF1CB1072CEC
:109DD00001D0204610BD00BF072202210120FFF75D
:109DE00033F9044600BF1CB1072C01D02046F1E72F
:109DF00000BF042202210020FFF726F9044600BF1D
:109E00001CB1072C01D02046E4E700BF0020E1E7A9
:109E1000062000BF4FF0A0410A46012303FA00F1DB
:109E2000C2F8081500BF00BF7047062000BF4FF002
:109E3000A0410A46012303FA00F1C2F80C1500BF45
:109E400000BF70472DE9FF4105460C4600200290F7
:109E50000390ADF80840ADF80A40009001906A46C2
:109E600002A9284690DF0646002E32D0304605F083
:109E700087FD074619491A4A891AC908012242EA88
:109E800001403B462A46174904F02AFEBDF800006F
:109E900010B9BDF8020068B1BDF80230BDF800206D
:109EA0000E490F4FC91BC908012747EA01400EA1FF
:109EB00004F016FEBDF8040058B1BDF804200749AF
:109EC000074BC91AC908012343EA0140164904F0A7
:109ED000FBFD304604B0BDE8F0810000C07E030009
:109EE000C07E0300E46303005468652072657175E9
:109EF00065737465642054582F5258207061636BE9
:109F00006574206C656E67746820697320746F6F68
:109F1000206C6F6E672062792025752F2575206F64
:109F200063746574732E0000306403001CB51F4910
:109F3000096801EBC102C2EB81111D4A02EB8100ED
:109F4000DC221C49FCF7A2FA1848006800EBC001AB
:109F5000C1EB8010164901EB80000090DC20ADF8C9
:109F600004006946144805F0D8F80446FEF7A6F93F
:109F70000E480068401C0D49086008460068142817
:109F800012D10E49096801EB41020D490D4BC91A66
:109F9000C908032343EA01400BA104F095FD00200A
:109FA00002490860054908601CBD0000442C0020DF
:109FB00028360020C02F0020D47F0300402C002032
:109FC000A07F0300C07E03003D3D2A2A53706565D3
:109FD000643A20256420422F732A2A3D3D00000068
:109FE0002DE9F04105460F460F4C0121204603F0B4
:109FF0009CFB064600BF00BF00BF00BFBFF35F8FE2
:10A0000000BF00BF00BF0EB9012000E0002040B13A
:10A01000284602F05BFD08B1BDE8F081024804F07B
:10A020006DFF00BFF8E70000F02C002070B50D496F
:10A030000D4A891AC908032242EA01400BA104F023
:10A0400039FD08F031FD044600BF25463DB100BF93
:10A050000AA240F23E312846FCF7DEF800BF00BFFE
:10A0600070BD0000A07F0300C07E030045726173D5
:10A070006520626F6E647321000000002E2E5C2E3E
:10A080002E5C2E2E5C6D61696E2E630070B50646E7
:10A090000D4616B14FF4064070BD287920B1012855
:10A0A00009D0022815D111E002202871284609F0B4
:10A0B000BFF8044610E0284600F0DEFE044648F2F1
:10A0C0000960844201D141F61D5405E041F61D545A
:10A0D00002E048F20E6400BF00BF2046DCE700004B
:10A0E0002DE9F0418046002414E01248006800EB9E
:10A0F000C405287805F0E2FD07466878012800D1FC
:10A1000000E00020784080F001062878314600F019
:10A1100053FB641C084800788442E6DB0748D0E91A
:10A120000010002359405840014301D00BF008F8BB
:10A13000BDE8F081282E00202C2E0020582E002073
:10A1400070B5044620793D2802D141F23D0001E07E
:10A150004FF48850054620880022294602F006FC6C
:10A1600070BD000038B505F0B3FD044600BF2546BC
:10A170003DB100BF10A240F224412846FCF74CF844
:10A1800000BF00BF10480068009000208DF801005B
:10A190000E4A6946032005F017FD044600BF254618
:10A1A0003DB100BF04A240F22A412846FCF734F832
:10A1B00000BF00BF38BD00002E2E5C2E2E5C2E2E60
:10A1C0005C6D61696E2E6300645D0300E5C0020092
:10A1D00010B50021034803F0A8FA044684F31000E8
:10A1E00010BD0000AC5E002070B505460C464FF473
:10A1F000803000FA04F1284600F0BEFA70BD70B558
:10A2000005460C464FF4A07000EB840086B2314640
:10A21000284600F049FB70BD2DE9F04704460D4685
:10A2200016461F464FF4803000FA05F84FF4A07030
:10A2300000EB85001FFA80F926F07F464146206832
:10A2400005F01EF84146206805F00EF849462068E2
:10A2500005F000F832462946206804F0EBFF41463D
:10A26000206805F004F81FB14146206805F00BF89E
:10A27000BDE8F08710B50446206804F0E0FF10BD8B
:10A280002DE9F04704460D4617466079324941F8FA
:10A2900020706079314901EBC000007968B108266F
:10A2A0002F49304A891AC908022242EA01402EA1E8
:10A2B00004F000FC3046BDE8F08729882068C0F82B
:10A2C000081500BF94F90420AB7810461946002801
:10A2D00008DB4FEA417C4FEA1C68DFF8B0C00CF89D
:10A2E00000800BE04FEA417C4FEA1C69DFF8A0C018
:10A2F00000F00F08A8F104080CF8089000BF00BF98
:10A3000094F90410084600280DDB00BF00BF00F0E0
:10A310001F0301229A4043099B0003F1E023C3F885
:10A32000002100BF00BF00BF00BF012061790B4AC0
:10A3300002EBC10108716079114641F830400026F6
:10A340000749084A891AC908032242EA014011A1B3
:10A3500004F0B0FB3046AEE7A02E0020A42E002073
:10A36000707F0300C07E030052544320696E7374F3
:10A37000616E636520616C726561647920696E69E4
:10A380007469616C697A65642E00000000E400E085
:10A3900018ED00E05254433A20696E697469616CAB
:10A3A000697A65642E00000010B5014691F9040039
:10A3B000002807DB00F01F0301229A40024B4409EA
:10A3C00043F8242000BF10BD00E200E070B5054650
:10A3D0000C4622460221284600F0DAF970BD10B57D
:10A3E00004464FF48271204600F05EFA10BD10B5AD
:10A3F00004460021206804F04EFF10BD10B504464D
:10A400000421206804F047FF10BD2DE9F84F0446F1
:10A410008846154699464FF4803000FA08FA4FF402
:10A42000A07000EB88001FFA80FB25F07F455146A5
:10A43000204600F0A1F9206804F001FF06464146DD
:10A44000206804F0F1FE009032464146206804F096
:10A45000F1FE5946206804F0FDFE314600980AF0EE
:10A46000A3FD012806D1102005F016FB59462068EF
:10A4700004F0F0FE206804F0E2FE0646314628466D
:10A480000AF092FD07465146206804F0F0FE012FC5
:10A490000FD16A1C4146206804F0CCFE102005F064
:10A4A000FBFA206804F0CBFEB04225D00D20BDE8B9
:10A4B000F88F2A464146206804F0BCFE206804F06C
:10A4C000BEFE0646681E31460AF06EFD07466FF076
:10A4D0007F40A0EB0900B84201D20D20E7E75FB949
:10A4E0006A1C4146206804F0A5FE206804F0A7FE1F
:10A4F000B04201D00D20DAE701225146204600F09B
:10A5000047F90020D3E770B506460C4615462B46A2
:10A51000224600213046FFF7FBFB70BD10B5104806
:10A520000068407E60B106210120FEF79BF80446DA
:10A5300024B10B480068416903208847002010BD02
:10A54000012007490968087601210846FEF78AF8C4
:10A5500004461CB100200249096808762046EEE74F
:10A56000542F00202DE9F84305460E46174698461D
:10A5700069461048006802F0E0FF044614B9042060
:10A58000BDE8F8831C212046FBF799FF01202071CC
:10A590002560C4F8088008480068B6FBF0F0E06069
:10A5A000676169460348006802F0F1FF08F040FD6A
:10A5B0000020E5E7EC610300E061030010B504460C
:10A5C000D4E90321501828DF10BD0278072A38D2B9
:10A5D000DFE802F037040712222B340000220A7051
:10A5E00030E001220A7003898B818388CB81C268A5
:10A5F0008A6000230B7425E002220A7003898B8194
:10A600008388CB81C2688A60827D062A01D10123BA
:10A6100000E000230B7415E003220A70C3888B81CD
:10A620000389CB81C2688A600CE004220A70C38867
:10A630008B810023CB8100228A6003E005220A700F
:10A6400000E000BF00BF704770B50546002409E078
:10A65000064850F8240020B1044850F82410284639
:10A660008847641C042CF3D370BD000058570020A9
:10A6700030B587B004460D462068806808B907B039
:10A6800030BD182101A8FBF71AFF0295A0680690BB
:10A69000207910B1012815D109E001208DF80400BE
:10A6A00020690390E0680490606905900BE0022047
:10A6B0008DF804000749E068096848430390606921
:10A6C000059000E000BF00BF2068816801A88847AE
:10A6D00000BFD4E7E0610300F0B585B005460C4645
:10A6E0001646002C3ED0112C3CD0082C3AD00D2C14
:10A6F00024D11D491D4A891AC908022242EA014093
:10A700002A461B4904F0E0F92A460421684602F073
:10A71000E5FC2EB1307800F0010008B1012000E026
:10A7200002208DF8080000218DF80C1041F2011173
:10A73000ADF80A10684600F025F913E0204605F050
:10A740001FF907460849094A891AC908012242EA3D
:10A7500001402B463A46074904F0C2F921462846F3
:10A7600009F0F8FB05B0F0BD087F0300C07E0300D0
:10A770003C7403004C75030070B504460D46294631
:10A78000206804F071FD2946206804F079FD70BD51
:10A7900070B504460E4615463146206804F067FD44
:10A7A0001DB13146206804F06EFD70BD10B5044641
:10A7B000204600F0E7F810BDF8B505460C462846DF
:10A7C0000AF0DCFA05286AD2DFE800F003212A3912
:10A7D0003F00DCB1012128460AF0E0FA0020009099
:10A7E0006846FDF73BF82A460126002730463946E1
:10A7F000FBF739FE2B4AD2E9003218431143294AAC
:10A8000003C29DF80000FDF72FF800BF47E00CB130
:10A81000022000E00020014628460AF0BFFA3EE090
:10A8200044B1032128460AF0B9FA012128460AF06A
:10A830008FFE03E0012128460AF0B0FA2FE01CB990
:10A84000042128460AF0AAFA29E024B10321284667
:10A850000AF0A4FA22E0002128460AF09FFA00211B
:10A8600028460AF075FE002000906846FCF7F6FFC7
:10A870002A460126002730463946FBF7F4FD0A46F2
:10A88000C143D043074B0CCB11401840054AC2E9E5
:10A8900000109DF80000FCF7E7FF00BF00BF00BFFD
:10A8A000F8BD0000582E002070B505460C462868FB
:10A8B000015929B12146286804F0CCFC012070BD63
:10A8C0000020FCE770B50446608801F0D7FBA0804B
:10A8D000002505E0044850F82510204688476D1CE7
:10A8E000002DF7D070BD0000E82C002070B50446A4
:10A8F000A08801F0F3FA6080002505E0044850F8D4
:10A900002510204688476D1C002DF7D070BD000033
:10A91000FC2C002070B50546002405E0044850F8E2
:10A92000241028468847641C022CF7D370BD000011
:10A93000385E030070B50546002405E0054850F870
:10A94000241028468847641C034800788442F5DBBD
:10A9500070BD00002C5500202A2D002070B5044643
:10A96000608801F08BFBA080002505E0044850F8CA
:10A970002510204688476D1C002DF7D070BD0000C3
:10A98000C85E030070B50546002405E0044850F891
:10A99000241028468847641C002CF7D070BD0000A6
:10A9A000545F030010B586B00446142101A8FBF7DC
:10A9B00086FDA08900F07AFAADF808002078062814
:10A9C0005ED2DFE800F05D0304052E4A00BF00BF41
:10A9D000A08900F070FA18B9E08908F04AFDF8B1D2
:10A9E000E08908F043FD8DF80C002078032801D1A0
:10A9F000012100E000218DF80D10A168049160682C
:10AA000030B909208DF8040001218DF8141004E0FC
:10AA10000A208DF804006168059101A806F0B6FCD3
:10AA20002FE0A08900F047FAB0B1E089A0B96068D2
:10AA300038B90B208DF80400BDF8080006F0F6FECA
:10AA400004E00C208DF80400606803900120114997
:10AA5000087001A806F09AFC13E0606818B9142089
:10AA60008DF8040004E015208DF804006068039060
:10AA70004FF6FF70ADF8080001A806F087FC00E073
:10AA800000BF00BF0348007808B106F015FE06B00D
:10AA900010BD0000092D002038B50546104800788B
:10AAA00010B948F2016038BD4FF6FF70854202D1FF
:10AAB00048F20360F7E7684608F09AF9044614B9CB
:10AAC00048F20760EFE70520207001202071E58043
:10AAD000684608F09DF908F09FFA0020E3E70000BF
:10AAE000B82E002038B50E48007810B948F2016041
:10AAF00038BD684608F07CF9044614B948F207608E
:10AB0000F6E706202070684608F082F905480078CC
:10AB100010B101200349087308F07EFA0020E7E72E
:10AB2000B82E00202C58002070B586B0142101A842
:10AB3000FBF7C5FC3048007828B101A8FFF784FD79
:10AB4000002006B070BD2C48001D02F0B0FD08B119
:10AB50000020F6E700F06EFA06460EB13046F0E748
:10AB600008F082F906F046F9054625B1022D03D01A
:10AB7000062D12D107E000BF00201F490870486071
:10AB800048F20A60DDE701201B4908700020486098
:10AB900001A8FFF759FD0020D3E700BF00BF6846BA
:10ABA00008F026F9044614B948F20760C9E7012005
:10ABB00020700C2D16D2DFE805F0150615071511CB
:10ABC0001512150A0E0B00BF002020710BE000BF0C
:10ABD0000320207107E00220207104E000BF012063
:10ABE000207100E000BF00BF684608F011F908F0CE
:10ABF00013FA0020A5E70000B82E002038B504465F
:10AC000014B948F2046038BD6946204608F02EFBAE
:10AC100008B3BDF8000000EB8000114901EB800093
:10AC2000C068A8B1A07A98B1BDF8000000EB800020
:10AC300001EB8000C068401EBDF8001001EB8101EF
:10AC4000074A02EB8101C8600020A072002504E0E1
:10AC500048F2056501E048F209652846D3E700009F
:10AC6000045800207FB514461D462B46224601A9F4
:10AC7000684608F093FA04B070BD37B50C46154627
:10AC80002B4622466946002008F088FA3EBD37B5BB
:10AC90000C4615462B4622460021684608F07EFAEF
:10ACA0003EBD024602B111B948F204607047106817
:10ACB00008600020FAE70000F8B504460D4604B12C
:10ACC00015B948F20460F8BD6946204608F0CEFA8E
:10ACD000A0B16668BDF8001001EB8101094A02EBE2
:10ACE000810101F10C00012102F0E8FC2E60606896
:10ACF0000C3068600120A0720020E4E748F209608F
:10AD0000E1E700000458002070B504460D4614B970
:10AD100048F2046070BD03230022294620460AF051
:10AD2000B1FEF7E770B504460D460223002229461E
:10AD300020460AF0A7FE70BD70B5054609480068B8
:10AD4000042802D148F20B6409E007480549096864
:10AD500040F821500121034802F0B0FC00242046B5
:10AD600070BD0000C42E0020585700202DE9F84384
:10AD700004464FF4806800262B48007818B948F242
:10AD80000160BDE8F88314B948F20460F9E71221C4
:10AD90002046FBF794FB0320208000253FE005EBD5
:10ADA0008500224901EB8000008905EB85011F4ADF
:10ADB00002EB81014989084487B205EB850102EB6A
:10ADC0008101486805F092FF032802D12088401EC7
:10ADD0002080608805EB8501144A02EB8101C96877
:10ADE00008446080208905EB850102EB81014989D7
:10ADF00008442081608938446081C7F5806086B24C
:10AE0000A089B04200DAA68104F11000831EA21DC1
:10AE1000211D0090284608F07FFB681C85B2022D9A
:10AE2000BDDB0020ADE70000B82E00200458002054
:10AE300070B504460D462A460021204600F009F868
:10AE4000A068401CA06070BD01468A68C868801A6E
:10AE5000704710B583680B44848823400468E35C22
:10AE6000137010BDC26883881A4003689954C26881
:10AE7000521CC260704700003EB504460A4B6A4649
:10AE80000021A01D08F08AF9054635B9064A9188C7
:10AE9000019808F065FA054603E0034800210160C7
:10AEA000416028463EBD0000D42E00200146A1F599
:10AEB000404080B270470146B1F5404F05DB4FF688
:10AEC000FE70814201DC012070470020FCE710B5D4
:10AED0000446A07FFF2802D0A07F03F025FB0020BE
:10AEE0006077207204F10800D4E90021904710BD7A
:10AEF00010B504462078182802D1FDF797F9207084
:10AF000010BD10B504462078182802D1FDF78EF93F
:10AF1000207010BD70B505460E46144624B131466A
:10AF2000284602F0A7FB03E03146284602F03DFB2D
:10AF300070BD30B504461088C01C984201D90C2061
:10AF400030BD0220158848551088401C1080012013
:10AF5000158848551088401C108015884C5510885D
:10AF6000401C10800020EBE770B504460D4640F20F
:10AF70001442115B0122D4F81004FCF7C9FE064606
:10AF800006B1357004F13C0204F5826104F154000D
:10AF900072DF70BD2DE9F04106460C4615460027CC
:10AFA000112C01D1012700E0002765B13A460A487B
:10AFB00001783046FDF75EF90022084801783046F6
:10AFC000FDF758F905E03A46044801783046FDF7A8
:10AFD00051F9BDE8F0810000032E0020002E002072
:10AFE00010B54FF4405400F009F8034908610846D1
:10AFF0000069001BC86010BDBC30002010B540F6D1
:10B00000F8700068401C18B94FF01020406902E049
:10B0100040F6F870006803464FF0805001694269BD
:10B02000581C08B1184601E002FB01F00446204616
:10B0300010BD000010B5FFF7D3FF002202490348FE
:10B0400002F0AEFF10BD0000F0610300BC30002034
:10B05000F7B50D4617460DB90020FEBD0026009835
:10B0600068B1002409E02146684602F0F4FA18B1FC
:10B07000A0B23946A847761C641C142CF3D3304682
:10B08000EBE710B50446606807F01CFF10BD000038
:10B090003EB500BF9DF8000020F00F00401C00905E
:10B0A0009DF8000020F0F0001030009000BF0C224E
:10B0B00016A168467CDF044600BF254635B100BFB7
:10B0C00016A2DB212846FBF7A7F800BF00BF00202F
:10B0D000019002901020ADF80400ADF806000020A9
:10B0E000ADF808004FF4C870ADF80A0001A87ADF87
:10B0F000044600BF254635B100BF08A2E521284619
:10B10000FBF78AF800BF00BF3EBD000053656572C3
:10B110004C696B654A617A7A000000002E2E5C2E25
:10B120002E5C2E2E5C6D61696E2E630070B5054637
:10B130000C4660880D490988884215D1208840F660
:10B140007721884210D1A088C01E0949088009498A
:10B15000094A891AC908032242EA014004490B88B6
:10B160000A8806A103F0BCFC70BD0000182C00206A
:10B170001A2C0020A07F0300C07E0300446174618C
:10B18000206C656E2069732073657420746F2030A5
:10B19000782558282564290070B51149114802F016
:10B1A0006CFB044600BF25463DB100BF0EA24FF424
:10B1B00017712846FBF730F800BF00BFF721094898
:10B1C00002F04CFB044600BF25463DB100BF06A27D
:10B1D00040F25F212846FBF71FF800BF00BF70BD9B
:10B1E0002DB10200D03000202E2E5C2E2E5C2E2E93
:10B1F0005C6D61696E2E630070B5054615B14FF444
:10B20000064070BD1848007B18B10020164908732D
:10B2100001E000F0DFF81448007808281DD2DFE8CC
:10B2200000F01C04080C101C141800F03FF8044631
:10B2300016E000F0BDF8044612E000F099F804466C
:10B240000EE000F047F804460AE000F035F9044645
:10B2500006E000F043F9044602E048F20E6400BF45
:10B2600000BF2046CDE700002C5800200D48008983
:10B27000401C0C49088100204880087300BF0DE085
:10B2800000EB8001084A12F8211009B9012200E000
:10B29000002204490A310A54411C88B20228EFDB1B
:10B2A000704700002C5800200458002010B50848B2
:10B2B00000F036F840B900200549891E0870488022
:10B2C000486041F61D5010BD00F072F8FBE7000029
:10B2D0002E58002070B50F48458805EB85000E49B3
:10B2E00001EB8000C06878B904200A49087005EBBA
:10B2F0008500094A02EB80000023012241680748CB
:10B3000002F096FD044602E000F090F80446204664
:10B3100070BD00002C58002004580020BC300020D4
:10B3200010B501460022002018E00F4B1B5C9BB1BA
:10B3300000240D4B1C5400EB80030C4C04EB8303E6
:10B34000DB684BB900EB800304EB83031B7C012B10
:10B3500002D10880012203E0431C98B20228E4DBFA
:10B3600000BF104610BD00003658002004580020D1
:10B37000F8B50C4844680C4800680B49898800EB14
:10B3800081056088C01C86B2032006490870002031
:10B39000B3000090084629464268044802F0C0FE07
:10B3A000F8BD00002C580020CC2E0020BC3000201E
:10B3B00010B507494888091D07F096FF18B1FFF737
:10B3C000D7FF044602E0FFF785FF0446204610BD84
:10B3D0002C58002010B514480078082820D2DFE847
:10B3E00000F0041F1F0A1016171BFFF73FFF012074
:10B3F0000D49087015E000F07DF802200A49087038
:10B400000FE000F029F806200749087009E000BFA6
:10B4100007200549087004E001200349087000E096
:10B4200000BF00BF10BD00002C58002010B5052043
:10B430000649087002200649888008460023012238
:10B440000168044802F0F4FC10BD00002C580020F4
:10B45000CC2E0020BC3000201449086814494988CB
:10B4600001EB8101134A02EB810149680F4A116027
:10B470000F49498801EB81010E4A02EB81014860C6
:10B480000A4989880A4A528802EB8202094B03EB77
:10B49000820211810221054A91800021044A5288CA
:10B4A00002EB820203EB820211747047CC2E002063
:10B4B0002C5800200458002010B5062005490870BB
:10B4C000498801EB8101044A02EB8101486805F0DB
:10B4D0006FFC10BD2C5800200458002010B5072028
:10B4E000034908700020486005F072FC10BD0000A0
:10B4F0002C580020054A50684288D21C91B2044A58
:10B5000092880A44024B9A80704700002C58002011
:10B51000CC2E00202DE9F04186B00446A688208874
:10B5200050282ED004DC352836D0362808D189E0C2
:10B53000522802D05428F9D103E0304601F058FADD
:10B54000B9E01422634901A8FAF7A0FFADF806603C
:10B55000304600F093FDADF80800BDF8080000F09B
:10B560003BFA00225C4801783046FCF783FE00225B
:10B570005A4801783046FCF77DFE01A8FFF7A2F992
:10B5800099E0A01DFEF7E2F828B10121304601F054
:10B5900091FA09F059FF8EE00027A68804F10A0508
:10B5A0004F4801783046FCF74FFE00B983E0002297
:10B5B0004B4801783046FCF75DFEE088B0F5857FAA
:10B5C0003AD0E08858B1E2884649474BC91AC908C1
:10B5D000022343EA014045A103F076FA2CE02888D3
:10B5E00001280AD02A883F493F4BC91AC9080223BB
:10B5F00043EA01404CA103F067FA688801280BD0A8
:10B600006A883849384BC91AC908022343EA0140FD
:10B6100054A103F059FA0FE0A98800223046A1DFB7
:10B620008046B8F1000F06D1012701225C4801785D
:10B630003046FCF71FFE00BF1FB90021304609F05D
:10B640003DFC38E00027A68804F10A05544801783B
:10B650003046FCF7F9FD00B92DE000225048017892
:10B660003046FCF707FEE08858B1E2881D491E4BC2
:10B67000C91AC908022343EA01401CA103F024FAB5
:10B6800014E0A88801280BD0AA881649164BC91ABD
:10B69000C908022343EA014032A103F015FA05E08C
:10B6A000A87908B1012000E000200746394630465D
:10B6B00009F004FC00BF00BF00BF002239493A482E
:10B6C0000078FCF753FD00BF08F0F2FC06B0BDE8BF
:10B6D000F08100000C5E0300F72C0020F62C002007
:10B6E000F92C0020C87E0300C07E0300556E6578EB
:10B6F00070656374656420474154542073746174A9
:10B700007573207768696C652067657474696E6706
:10B710002043415220636861722076616C75653AFE
:10B7200020307825780000004D756C7469706C6568
:10B730002028256429204341522063686172616397
:10B7400074657269737469637320666F756E642CB7
:10B75000207573696E6720746865206669727374FA
:10B760002E000000556E6578706563746564204333
:10B7700041522063686172616374657269737469B0
:10B78000632076616C7565206C656E67746820282F
:10B790002564292C2073746F726520302E00000000
:10B7A000FA2C002003790200F52C002010B5044685
:10B7B000207858B9608801F01BF9608808F068FCAF
:10B7C0006088FDF78DFF09F03FFE00E000BF00BF7D
:10B7D00010BD000010B500F0CFFDFCF727FD2A4991
:10B7E0000870FCF723FD29490870FCF71FFD284964
:10B7F0000870FCF71BFD27490870FCF717FD264968
:10B800000870FCF713FD25490870FCF70FFD24496B
:10B8100008701D480078182817D01C480078182890
:10B8200013D01B48007818280FD01A480078182821
:10B830000BD019480078182807D018480078182825
:10B8400003D00846007818280BD11649164A891AE1
:10B85000C908012242EA0140144903F02BF90320F0
:10B8600010BD00BF00201249086000BF00BF00BF2C
:10B8700000BFBFF35F8F00BF00BF00BF00BF01204C
:10B880000C4908700020EBE7F42C0020F52C002078
:10B89000F62C0020F72C0020F82C0020F92C00209A
:10B8A000FA2C0020C87E0300C07E030088640300D9
:10B8B000F02C0020EC2C00207CB5044620780928D0
:10B8C00040D1607A00283DD1207A012814D0072881
:10B8D00002D0082834D12BE0A08800F0FFFA0546FA
:10B8E0004FF6FF70854206D00121284601F0E2F8AC
:10B8F0002846FDF7F5FE24E0A0886A46012105F000
:10B9000039FC06469EB90198007880B1A08800F005
:10B91000E5FA05464FF6FF70854207D001220B4835
:10B9200001782846FCF7A6FC08F0C2FB00BF08E03F
:10B9300007480068012802D1054803F0DFFA00E05B
:10B9400000BF00BF09F080FD7CBD0000F62C002088
:10B95000F02C002070B50B48FEF78CFC0A4B0CCB8A
:10B96000841843F10005094903C9201A75EB010049
:10B9700004D24FF08073E41845F1000520462946B3
:10B9800070BD0000602E0020702E0020782E002058
:10B990002DE9F04104468846E0B2FDF74BFE05462E
:10B9A000287804F08BF907466878012800D100E078
:10B9B0000020784080F001064EB10648D0E9001022
:10B9C000002359405840014301D109F0B9FBBDE8BB
:10B9D000F0810000582E00201CB50446044903C91C
:10B9E000CDE9000100226946204605F0D1FD1CBDCD
:10B9F000305E030010B500F0C5FC0120014908705D
:10BA0000002010BD002D00202DE9FC4705462846EA
:10BA100000F034FB06460027B8464FF003094FF00C
:10BA2000010A4FF6FF7086420DD06A460821304663
:10BA300005F0A0FB044634B90198871DB0F80480D6
:10BA4000D0F8009000BF00BF4B464246394628461A
:10BA5000B1DF0446042C01D1112422E0082C01D1CD
:10BA600000241EE00B2C1CD14FF0000A09F002004C
:10BA700010B14FF0010914E017B9B8F1000F04D06C
:10BA80000027B8464FF003090BE00A490A4A891A11
:10BA9000C908012242EA01402A46084903F014F885
:10BAA00003240B2CD0D0BAF1000F00D10B24204678
:10BAB000BDE8FC87D07E0300C07E03005067030012
:10BAC0002DE9FF5F8046404600F0D8FA06464FF663
:10BAD000FF70864204D143F2020004B0BDE8F09F3B
