:020000040002F8
:1060000050830020DD630200E5630200E7630200C5
:10601000E9630200EB630200ED6302000000000090
:10602000000000000000000000000000EF6302001C
:10603000F163020000000000F3630200F563020058
:10604000656C0200F7630200DD700200716D0200F2
:10605000F7630200F76302004D6B0200F763020072
:10606000F7630200C5700200F7630200F7630200E5
:10607000F7630200F7630200F7630200F7630200B0
:10608000F7630200B96C0200F7630200F7630200D5
:10609000F7630200F7630200356E0200F763020047
:1060A000F7630200F7630200F7630200F763020080
:1060B000F7630200F7630200000000000000000028
:1060C000F7630200F7630200F7630200F763020060
:1060D000D16C0200F7630200F763020000000000C9
:1060E00000000000000000000000000000000000B0
:1060F00000000000000000000000000000000000A0
:10610000000000000000000000000000000000008F
:10611000000000000000000000000000000000007F
:10612000000000000000000000000000000000006F
:10613000000000000000000000000000000000005F
:10614000000000000000000000000000000000004F
:10615000000000000000000000000000000000003F
:10616000000000000000000000000000000000002F
:10617000000000000000000000000000000000001F
:10618000000000000000000000000000000000000F
:1061900000000000000000000000000000000000FF
:1061A00000000000000000000000000000000000EF
:1061B00000000000000000000000000000000000DF
:1061C00000000000000000000000000000000000CF
:1061D00000000000000000000000000000000000BF
:1061E00000000000000000000000000000000000AF
:1061F000000000000000000000000000000000009F
:10620000DFF80CD000F092F90048004791D102006D
:106210005083002000B583B002900091019244F2B7
:10622000010071466A4601F003FB03B000BD0000A7
:1062300030B450E8012F93B2C48923448489A34227
:1062400028BF1B1B0489A34202BFBFF32F8F00206E
:1062500007E0C3EA020340E80134002CE9D14FF023
:1062600001000A6030BC704750E8012FC2EA0242C8
:1062700040E801210029F7D1704730B450E8022FDF
:106280001FFAA2F3C488A34202BFBFF32F8F0020DE
:106290000DE0C48923448489A34228BF1B1BC2EAA2
:1062A000034340E80234002CE8D14FF001000A60BB
:1062B00030BC704750E8022FC2EA224240E8022177
:1062C0000029F7D17047034653E8022FD988B2EB73
:1062D000324F4FF0000017BF92B241EA014142EA4B
:1062E000014104E05A68B2EB324F08BF012043E895
:1062F0000212002AE8D1704730B4044654E8000F77
:106300000D4644E80053002BF8D1156030BC7047AF
:1063100030B4044654E8000F40EA010544E8005355
:10632000002BF7D1156030BC704730B4044654E8F8
:10633000000F00EA010544E80053002BF7D1156077
:1063400030BC704730B4044654E8000F80EA0105C1
:1063500044E80053002BF7D1156030BC704730B4CF
:10636000044654E8000F00EB010544E80053002BFD
:10637000F7D1156030BC704730B4044654E8000FC4
:10638000A0EB010544E80053002BF7D1156030BCA9
:10639000704770B404464FF0000054E8006F0D6879
:1063A000AE4207BF44E80023012044E800630E60CA
:1063B000002B1CBF0020F0E770BC704730B40446CF
:1063C00054E8000F88422CBF451A054644E80053A4
:1063D000002BF5D1156030BC70470000064880479F
:1063E00006480047FEE7FEE7FEE7FEE7FEE7FEE7BA
:1063F000FEE7FEE7FEE7FEE74D6E020001620200E7
:106400002DE9F05F0546002092469B4688460646E9
:10641000814640241BE0284641464746224600F07C
:1064200074F853465A46C01A914110D31146184683
:10643000224600F016F82D1A67EB01084F46224657
:106440000120002100F00DF817EB00094E41201E3D
:10645000A4F10104DFDC484631462A464346BDE844
:10646000F09F202A04DB203A00FA02F10020704756
:106470009140C2F1200320FA03F319439040704782
:10648000004870471869030040EA01039B0703D0E6
:1064900009E008C9121F08C0042AFAD203E011F863
:1064A000013B00F8013B521EF9D27047D2B201E025
:1064B00000F8012B491EFBD270470022F6E710B509
:1064C00013460A4604461946FFF7F0FF204610BD62
:1064D000421C10F8011B0029FBD1801A704730B50F
:1064E00004460020034600E05B1C934203D2E05CBC
:1064F000CD5C401BF8D030BD034611F8012B00F8ED
:10650000012B002AF9D118467047202A04DB203AD3
:1065100021FA02F00021704721FA02F3D040C2F1C3
:10652000200291400843194670470000064C074D71
:1065300006E0E06840F0010394E807009847103453
:10654000AC42F6D3FFF760FE0C8403002C840300FA
:1065500070B58C1810F8015B15F0070301D110F825
:10656000013B2A1106D110F8012B03E010F8016B52
:1065700001F8016B5B1EF9D12B0705D40023521ED5
:106580000DD401F8013BFAE710F8013BCB1A921C3D
:1065900003E013F8015B01F8015B521EF9D5A1423B
:1065A000D8D3002070BD10B50446012C06D0022CB3
:1065B0007BD0032C77D0042C76D118E10221042063
:1065C00000F0DAF90A2007F0EBFCFF210D2000F0C3
:1065D000D3F90A2007F0E4FCFF210E2000F0CCF9EB
:1065E0000A2007F0DDFCFF210F2000F0C5F90A208A
:1065F00007F0D6FC0021102000F0BEF90A2007F0B9
:10660000CFFC0021112000F0B7F90A2007F0C8FCE8
:106610002021152000F0B0F90A2007F0C1FC60210C
:10662000052000F0A9F90A2007F0BAFC6021062035
:1066300000F0A2F90A2007F0B3FC6021072000F067
:106640009BF90A2007F0ACFC6021082000F094F9C7
:106650000A2007F0A5FC6021092000F08DF90A202E
:1066600007F09EFC60210A2000F086F90A2007F05E
:1066700097FC60210B2000F07FF90A2007F090FCC6
:1066800060210C2000F078F90A2007F089FC00F066
:1066900059F9282007F084FC00F004F90A2007F0DB
:1066A0007FFCFDE001E058E0F9E0FF210D2000F063
:1066B00063F90A2007F074FCFF210E2000F05CF95A
:1066C0000A2007F06DFC2021152000F055F90A2062
:1066D00007F066FC6021052000F04EF90A2007F063
:1066E0005FFC6021062000F047F90A2007F058FC03
:1066F0006021072000F040F90A2007F051FC6021DA
:10670000082000F039F90A2007F04AFC602109202E
:1067100000F032F90A2007F043FC60210A2000F063
:106720002BF90A2007F03CFC60210B2000F024F933
:106730000A2007F035FC60210C2000F01DF90A202A
:1067400007F02EFC00F0FEF8282007F029FC00F0EE
:10675000A9F80A2007F024FCA2E0C021022000F0E2
:106760000BF90A2007F01CFC0121052000F004F9B8
:106770000A2007F015FC0121062000F0FDF80A2090
:1067800007F00EFC0121072000F0F6F80A2007F0C0
:1067900007FC0121082000F0EFF80A2007F000FCB8
:1067A0000121092000F0E8F80A2007F0F9FB012197
:1067B0000A2000F0E1F80A2007F0F2FB01210B208B
:1067C00000F0DAF80A2007F0EBFB01210C2000F0C2
:1067D000D3F80A2007F0E4FB00F0B4F8282007F013
:1067E000DFFB00F05FF80A2007F0DAFB58E0E02159
:1067F000032000F0C1F8642007F0D2FB95210120AE
:1068000000F0BAF8642007F0CBFBD021022000F0A2
:10681000B3F8642007F0C4FB0521084600F0ACF88B
:106820000A2007F0BDFB0521062000F0A5F80A208C
:1068300007F0B6FB0521072000F09EF80A2007F0BC
:10684000AFFB0521082000F097F80A2007F0A8FB0D
:106850000521092000F090F80A2007F0A1FB05218E
:106860000A2000F089F80A2007F09AFB05210B2086
:1068700000F082F80A2007F093FB05210C2000F0BD
:106880007BF80A2007F08CFB00F05CF8282007F06A
:1068900087FB00F007F80A2007F082FB00E000BF4A
:1068A00000BF10BD10B503F0CDFC102000F0B4F80F
:1068B000FA2000E0401E0028FCDC03F0B6FC0120BA
:1068C00007F06EFB10BD10B503F0BCFC062000F015
:1068D000A3F8012007F064FB03F0A7FC10BD000043
:1068E00070B5044604F12000C5B203F0ABFC2846A5
:1068F00000F092F8002000F08FF8002000F08CF8F3
:106900000349085503F091FC0148005D70BD00008B
:106910003463002010B503F095FC112000F07CF8E2
:1069200003F083FC012007F03BFB10BD10B503F022
:1069300089FC042000F070F8012007F031FB03F01F
:1069400074FC10BD10B503F07DFC082000F064F865
:10695000FA2000E0401E0028FCDC03F066FC10BDBD
:1069600010B503F06FFC022000F056F803F05DFC58
:10697000012007F015FB10BD70B504460D4604F16B
:106980004000C6B203F05EFC304600F045F800203F
:1069900000F042F8284600F03FF803F046FC0148BA
:1069A000055570BD3463002010B50020FFF798FF37
:1069B0000446204610BD000010B504461548007876
:1069C00008B1FFF7CDFFFFF7A5FFA4F1520009289A
:1069D0001CD2DFE800F0150D111B1B091B1B050065
:1069E0000120FFF7E0FD12E00220FFF7DCFD0EE0E2
:1069F0000320FFF7D8FD0AE00420FFF7D4FD06E0EE
:106A0000FFF794FF01200349087000E000BF00BFBA
:106A100010BD0000752F00202DE9F04F85B0044611
:106A20001548047000BF154F80464FF00109DFF88C
:106A300050A0CB4600200490CDF80080CDF8049003
:106A4000CDF808A0CDF80CB000226946381D09F039
:106A500055FE04900498064636B100BF09A25F2196
:106A60003046FFF7D7FB00BF00BF05480578284632
:106A700005B0BDE8F08F00003461002060680300BD
:106A8000346200202E2E5C2E2E5C2E2E5C2E2E5C70
:106A90002E2E5C2E2E5C41445331323939447276AD
:106AA0005C414453313239395F4C696272617279A9
:106AB0002E63000010B5122007F059FF122007F0D6
:106AC000EAFF10BD10B50021132007F01FFF0021C1
:106AD000142007F01BFF10BD10B5132007F0ADFF09
:106AE00008B90EF04BF8142007F0A7FF012810D1C9
:106AF000132007F0A2FF01280BD10F480078401C9B
:106B00000D49087008460078052802D1142002F0CB
:106B10008DFC0A48007801280DD1094991F85400EC
:106B200074DF04463CB900200449087002F044FBBD
:106B3000162002F07BFC10BD942C0020882C002035
:106B40000C31002000210170704700002DE9F84F42
:106B50000026002000904FF480770125002410E0EB
:106B6000384607F0D5FF40B100BF254800682840EF
:106B700018B1384607F0BEFF2E436D00381D87B2AE
:106B8000641C082CECD34FF4BE7007F0C1FF50B169
:106B90004FF4BE7007F0AEFF46F000466A46012192
:106BA000002007F009FFF0B210B3012500241DE01A
:106BB00005EA0600C0B100BF124850F82400C0F337
:106BC0000420814600BF0F4850F82400C0F3014064
:106BD0008246204602F0D0FF8046B8F1000F02D076
:106BE00051464846C04700BF6D00641C082CDFD3E7
:106BF00006F0004010B168460CF01CFABDE8F88FB2
:106C0000046300401065004038B5152009F0FEFA15
:106C10000E480068009000208DF801000C4A69467B
:106C2000152009F06FFA044600BF25463DB100BFAC
:106C300008A240F2B5412846FFF7ECFA00BF00BFBA
:106C40000121152009F008FA38BD0000CC620300CC
:106C500099C402002E2E5C2E2E5C2E2E5C6D616976
:106C60006E2E630010B54FF4807007F07CF980B190
:106C70004FF4807007F080F9012007F087F90D4884
:106C8000407930B901200B4948710846016800205D
:106C900088474FF4827007F066F950B14FF4827064
:106CA00007F06AF9022007F071F902480168012033
:106CB000884710BD442E002010B5034A1068034ACF
:106CC0001168884710BD0000C02E0020BC2E002097
:106CD00010B504220021024805F0F0FD10BD0000AF
:106CE0000040024010B500F02BFA10BD2DE9F0472E
:106CF000074688461646C24607EB47011B4800EB8D
:106D0000C109D9F8140020B1012811D0022826D1D8
:106D10001EE0484600F04CFA0546B54201D2002478
:106D200005E0344632465146484600F088FA18E0FD
:106D3000484600F03DFA0546B54201D2284600E03B
:106D40003046044622465146484600F078FA08E0AC
:106D500032465146484600F039FA044601E0002424
:106D600000BF00BF2046BDE8F0870000805E002025
:106D700010B50249024805F02BFE10BD1C5600203C
:106D8000003000401FB5184B0FCB8DE80F00FF20DF
:106D90008DF803000A208DF8010004208DF8020010
:106DA00005208DF8000006208DF804008007029071
:106DB000FF208DF8050000208DF80D0001208DF8D2
:106DC0000C0000BF00231A466946084807F04CF93A
:106DD000044634B100BF06A23A212046FFF71AFA52
:106DE00000BF00BF1FBD000078680300606803009B
:106DF0002E2E5C2E2E5C2E2E5C2E2E5C2E2E5C2ECD
:106E00002E5C414453313239394472765C414453EB
:106E1000313239395F4C6962726172792E630000D8
:106E200010B5034C201D09F013FC00BF10BD00007D
:106E30006068030010B508F045FF10BD0148024925
:106E4000086070470090D003D430002010B506F0E1
:106E500017FC28B18C480088C0F304208B490860D7
:106E600006F06AFC10B18A488A49486706F0C6FCF9
:106E700030B18548E0380068C0F342308649086088
:106E800006F0EAFC28B18548006820F0807083494C
:106E9000086006F003FD48B10020814908604FF00A
:106EA0008041C1F810017C49091F086006F024FDEB
:106EB00018B1032078496431086006F03FFD68B1DD
:106EC0000520784908600120764978310860002063
:106ED0007449083108603F20091F086006F050FD22
:106EE000002855D06848E03000686F49086066485F
:106EF000E4300068091D08606348E8300068091D37
:106F000008606148EC300068091D08605E48F03098
:106F10000068091D08605C48F4300068091D0860BD
:106F20005948F83000686049203108605648FC3004
:106F30000068091D08605D480068091D08605B481D
:106F4000001D0068091D0860584808300068091DC8
:106F5000086056480C300068091D0860534810301E
:106F60000068514940310860504814300068091DDC
:106F700008604E4818300068091D08604B481C30F6
:106F80000068091D0860494820300068091D086034
:106F900006F048FB30B13C48CC38006800F04F00A8
:106FA0004349086006F09AFB40B14248006800F08F
:106FB000010018B16FF001003E49086006F0DEFBE9
:106FC00028B13D48006840F480603B490860334880
:106FD0007438006840F4700030497439086000BFAC
:106FE00000BF00BFBFF34F8F00BF00BF00BF00BF97
:106FF00000BF00BFBFF36F8F00BF00BF00BF00BF67
:1070000006F0DCFB20B12D48006823491C310860E4
:1070100000BF2A48001D006800F0010080B3012075
:1070200009F0C2FB2548001D006820F001004FF068
:107030001021C1F80C0209F0C1FB002009F0B4FBDB
:1070400000BF00BF00BF00BF00BFBFF34F8F00BF36
:1070500000BF00BF1148F038006800F4E060184934
:107060000843001D0D49F039086000BF00BF00BF94
:10707000BFF34F8F00BF00BF00BF00BF00BFFDE7E1
:10708000FFE7FFF7DBFE10BD240300104035014091
:107090000DF0ADBA00C007403C050040FCED00E03B
:1070A0000C0100401056004020C500402404001090
:1070B000E40E0040000400403C170040081200109D
:1070C0000000FA0510B504220249034805F052FCFD
:1070D00010BD0000105600200090004010B502497D
:1070E0000868804710BD00004C2E002038B50E48BF
:1070F0000068009000208DF801000C4A69461320BA
:1071000009F000F8044600BF25463DB100BF08A2C3
:1071100040F2A2412846FFF77DF800BF00BF0121E1
:10712000132008F099FF38BDC862030099C402001B
:107130002E2E5C2E2E5C2E2E5C6D61696E2E6300F1
:1071400010B5124C02202061606111A0A0611349AA
:10715000E1614FF4007121620021A1626162E1628C
:107160000BA0A0640E49E164102121650021A165F6
:107170006165E1650BA1E01DFFF7BEF90AA120469C
:10718000FFF7BAF92020A07110BD0000685E002052
:107190005465726D696E616C00000000E05E002055
:1071A000E0600020525454005345474745520000C8
:1071B00010B501460A69CB689A4204D88C68641EEF
:1071C000E41AA01801E0D41A601E10BD2DE9F047A2
:1071D0000446894617464FF0000AE56800BFD4F818
:1071E0001080A84503D9A8EB0500461E04E0A5EBD6
:1071F0000800401CA1680E1AA068401BB04201D9CB
:10720000304601E0A068401B0646BE4201D230462F
:1072100000E0384606466168481932464946FFF79D
:1072200033F9B244B144BF1B3544A068A84200D131
:107230000025E560002FD2D15046BDE8F0872DE94A
:10724000F047044689461546E668A068871BAF42AA
:1072500008D9616888192A464946FFF715F9701957
:10726000E06010E0B8466168881942464946FFF779
:107270000BF9A5EB070809EB070142466068FFF729
:1072800003F9C4F80C80BDE8F08702E008C8121FBB
:1072900008C1002AFAD170477047002001E001C1FF
:1072A000121F002AFBD170470146202908DA01206D
:1072B00088400A4A104008B1012070470020FCE7CE
:1072C000402909DAA1F12000012202FA00F008B1F8
:1072D0000120F2E70020F0E70120EEE7FC06FFBD09
:1072E00000BFEFF31081084672B67047F8B5054647
:1072F0000E46D6B9694628460AF08AFE044643F28D
:1073000002018C420AD000BF274637B100BF3B4A7A
:10731000B2213846FEF77EFF00BF00BF9DF8000097
:10732000C0F3400000B1F8BD00BF002128460AF0BC
:1073300081FE0446002C5ED0112C5CD00D2C21D196
:107340002F49304A891AC908022242EA01402A46D6
:107350002D4907F079FE1321284676DF0446002CDC
:1073600049D0204608F0CCFD07462549254A891A10
:10737000C908022242EA01402B463A4623A107F0FF
:107380006FFE38E00B2C0BD11D491E4A891AC90823
:10739000022242EA01402A462A4907F055FE2AE025
:1073A00043F2020084420BD11549164A891AC908D2
:1073B000022242EA01402A46234907F045FE1AE02C
:1073C000204608F09DFD07460D490E4A891AC90856
:1073D000012242EA01402B463A461CA107F040FE3A
:1073E00000BF274637B100BF044AE1213846FEF707
:1073F00011FF00BF00BF00BF95E70000CC74030081
:10740000748403003C8403006C70030073645F6247
:107410006C655F6761705F646973636F6E6E6563EF
:107420007428292072657475726E65642025732036
:107430006F6E20636F6E6E5F68616E646C65202591
:10744000642E00002C710300E0700300417373652B
:107450007274696E672E20706D5F636F6E6E5F73FE
:10746000656375726528292072657475726E65642E
:10747000202573206F6E20636F6E6E5F68616E648F
:107480006C652025642E000070B505460C4605B1DC
:107490000CB9002070BD287840082178B0EB510F5E
:1074A00001D00020F6E70622611C681CFFF717F8E0
:1074B00008B90120EEE70020ECE7014601F00300E7
:1074C00008B9012070470020FCE7024650680068B8
:1074D000401E084008B9012070470020FCE7024622
:1074E000002104E0505C08B101207047491C0629C6
:1074F000F8D30020F9E710B50346D868884206D8CB
:107500008818401E1C69A04201D8012010BD00202F
:10751000FCE7000010B504466CB10848C068A04202
:1075200009D806480069A04205D3204605F0E3FAD1
:1075300008B1012010BD0020FCE70000D830002079
:1075400070B504460D4604F22740FFF7C8FF064613
:10755000012D06D0022D0DD0032D11D0042D19D1EF
:1075600013E0A07928B194F8240010B90EB10120DD
:1075700070BD00BFE07910B10EB10220F8E700BF86
:10758000207A08B10320F3E700BF607A08B1042035
:10759000EEE700BF0020EBE70146481C052290FB08
:1075A000F2F302FB1300C0B27047014691F82420A9
:1075B000012A01D1EE2000E01F20704710B5012202
:1075C0000221002001F004FF044600BF1CB1072C7B
:1075D00001D0204610BD00BF07220221012001F08A
:1075E000F7FE044600BF1CB1072C01D02046F1E78E
:1075F00000BF0A220221002001F0EAFE044600BF7B
:107600001CB1072C01D02046E4E700BF0020E1E7D1
:1076100030B5ABB0AC216846FEF74FFF02208DF8C5
:10762000000000208DF8020006208DF803000121E3
:10763000ADF84C101049149101218DF87C104021B7
:107640002291002123910D48299069460C4800F0B1
:1076500066FD044600BF25463DB100BF09A240F2C9
:1076600003312846FEF7D6FD00BF00BF01210448C4
:1076700000F052FD2BB030BD1C2C0020CD070300C4
:107680000C3100202E2E5C2E2E5C2E2E5C6D61693E
:107690006E2E630070B50446012C02D102F0D4FEB8
:1076A00011E00321084800F001FE054600BF2E4608
:1076B0003EB100BF05A240F281313046FEF7AAFD7F
:1076C00000BF00BF00BF70BD0C3100202E2E5C2E0D
:1076D0002E5C2E2E5C6D61696E2E630070B58CB0D1
:1076E00004460D461646002005E0C0F10F01615C1E
:1076F0000DF80010401C1028F7D30D2104A8FEF748
:10770000DCFE002005E02A5CC0F10F0304A9CA5486
:10771000401C0328F7D3684646DF002005E0C0F18F
:107720000F0208A9895C3154401C0328F7D30CB020
:1077300070BD10B50446022001F0E2FC10BD00004F
:1077400010B5044602480178204600F03FFF10BD06
:10775000282E002010B5002407E00749096811F819
:107760003400012108F078FC641C0448007884424D
:10777000F3D3002010BD0000602E0020642E0020F6
:107780002DE9F84306460D4617460A2F02D2072078
:10779000BDE8F88308F0CCFD38B908F05FFD044679
:1077A00000BF204600B1F3E700BF18480660184844
:1077B00005701848076010211748FEF77EFE00216B
:1077C000164A1160516015E006EBC50814480068C0
:1077D000009098F802008DF8010098F80000114A16
:1077E000694608F08FFC044600BF204600B1CFE791
:1077F00000BF00BF281EA5F10101CDB2E4D10A4AA5
:1078000000210A4800F044F9C2E70000602E002081
:10781000642E0020682E002060560020902E00204C
:107820003C65030045BD0200FDA40200386503006D
:107830002DE9FE4307460E46144672B600BF07F018
:1078400003FD00BF00BF07F067FA0028FBD100BFAF
:1078500000BF012F0CD06FF48050384498B1B0F5C0
:10786000405F2CD06FF440510844002847D115E008
:107870003149324A891AC908012242EA014030A13D
:1078800007F0D8FB47E02C492C4A891AC908012285
:1078900042EA014032A107F0CDFB3CE025462649F3
:1078A000DFF898C0A1EB0C01C9084FF0010C4CEABD
:1078B000014034A1D5E9003207F0D2FB2BE0254688
:1078C000A86808F01DFB8046D5E900108DE843004C
:1078D00019491A4BC91AC908012343EA0140434612
:1078E0002FA1AA6807F0F6FB1349144A891AC908A0
:1078F000012242EA014034A107F09CFB0BE00E4953
:107900000E4A891AC908012242EA0140324633A1CF
:1079100007F09AFB00BF00BF00BF3648006800F0C8
:10792000010000B100BE00BF22463146384600F0DB
:1079300063F8BDE8FE8300001C8503003C8403005F
:10794000534F46544445564943453A2041535345C5
:107950005254494F4E204641494C454400000000D6
:10796000534F46544445564943453A20494E5641A3
:107970004C4944204D454D4F5259204143434553B6
:1079800053000000415353455254494F4E20464145
:10799000494C45442061742025733A257500000048
:1079A0004552524F52202575205B25735D2061742E
:1079B0002025733A25750D0A50432061743A203012
:1079C0007825303878000000456E64206F662065A9
:1079D00072726F72207265706F727400554E4B4EEA
:1079E0004F574E204641554C542061742030782525
:1079F00030385800F0ED00E018B5012300939DF8F1
:107A000000301E4B186059609A606FF48043034445
:107A100063B1012B19D1194BDA60DB681B68174C75
:107A2000A3612346DB685B68E3610EE0134B1A61D8
:107A30001B699B68114C636123461B691B68A3612A
:107A400023461B695B68E36100BF00BF0B4B1B68EB
:107A50000A4B5B68094B9B68084BDB68074B1B694B
:107A6000064B5B69054B9B69044BDB6972B600BF33
:107A70009DF80030002BFBD162B618BD7056002077
:107A800010B5024802F0F4FD10BD0000982E002051
:107A900030B503460C460AB9072030BD19684FF0CF
:107AA000FF358D60CD604A61012C01D1012000E0DD
:107AB000002008610020F0E738B513480068009006
:107AC0000823582211491248006805F092FF044625
:107AD0000CB1204638BD0F4A69460F4802F0CEFD72
:107AE00004460CB12046F5E701210B4802F06CFE7C
:107AF00001230A4A1946084802F08CFD0120084972
:107B000008702046E6E7000050650300905600200C
:107B100040650300B73A0300982E0020FFFF7F0066
:107B2000A42E00202DE9F84306460D469046344623
:107B300000200090684600F053F84FF0FF33D4E97E
:107B4000021059405840014308D104F0DDF84019B3
:107B500041F10001C4E90201012700E000279DF87E
:107B6000000000F043F817B90020BDE8F883C4F81E
:107B70001880206900B12561214600200DF070FDBC
:107B8000F3E7F8B50446254600200090684600F06B
:107B900027F84FF0FF33D5E9021059405840014310
:107BA00001D1002604E04FF0FF31A960E960012611
:107BB0009DF8000000F01AF80EB90020F8BD294623
:107BC00001200DF04DFDF9E710B5002003490870C4
:107BD000002102200DF044FD10BD0000A42E002065
:107BE00010B5044620460CF0C7F810BD70B5044629
:107BF00025460E488068B0B1ADB9FFF771FB064667
:107C00000A4800680A490860084840684FF0E021C7
:107C1000C1F804010020054988601EB900BF62B6A2
:107C200000BF00BF00BF00BF70BD0000F8560020BD
:107C300000E100E0F8B505460C4617462088001D17
:107C4000B84201D90C20F8BD684679DF064600BF6E
:107C5000304600B1F7E700BF032021886854208830
:107C6000401C20801920218868542088401C2080D6
:107C700020884119BDF800000DF0CBFD2188084493
:107C800020800020DFE770B504460D46204605F051
:107C9000F7F870BD10B50446637903F0030221794B
:107CA000208805F0ABF810BD10B50446207918B94E
:107CB000204600F007F803E02046FFF7EBFF00BF87
:107CC00000BF10BD2DE9FE4307463E884FF0000877
:107CD000002259480178304600F08EFC7879C0F3D4
:107CE000800028B90021384609F096FBBDE8FE83E4
:107CF00006F5807188B201AB0122072109F0ACFCC6
:107D00000546C5B1284608F0FBF881464B494C4A68
:107D1000891AC908012242EA014033464A464949C4
:107D200007F09EF9294630460CF070FB00213846DA
:107D300009F072FBDAE7304604F07AFB04464FF6AE
:107D4000FF718C421BD1029804F0C2FA04464FF630
:107D5000FF70844213D02146304604F047FB304682
:107D6000FFF7EEFC58B930460CF0E4FA3046FFF766
:107D7000E7FC20B90021384609F04EFBB6E74FF684
:107D8000FF7084421FD109F07DFE04464FF6FF705C
:107D9000844212D129492A4A891AC908012242EA91
:107DA000014029A107F046F9042130460CF02EFBD2
:107DB0000021384609F030FB98E72146304604F0B0
:107DC00015FB4FF0010806F5807188B222460721A5
:107DD00009F0CAFC054625B90121384609F01CFB0B
:107DE00028E0862D07D130460CF0D6FA012138461E
:107DF00009F012FB1EE0284608F082F881460F4980
:107E00000F4A891AC908012242EA014033464A460C
:107E10001A49009407F034F9294630460CF0F6FA76
:107E20000021384609F0F8FAB8F1000F02D02046D8
:107E300004F0E6FA00BF59E7252E00207C840300F9
:107E40003C8403008C770300436F756C64206E6F75
:107E50007420616C6C6F63617465206E657720704F
:107E60006565725F696420666F7220696E636F6D0D
:107E7000696E6720626F6E642E000000A8780300B0
:107E8000002114E00C48D0F81024012308E000BFC2
:107E9000D0680079884201D1002303E0D0680268ED
:107EA000002AF4D100BF0BB108467047491C0A29CB
:107EB000E8DB4FF0FF30F8E7485A00202DE9F041A9
:107EC00004460F46154615B90E20BDE8F081002086
:107ED000286000BF0CB90E20F7E700BF00BF206884
:107EE00008B90E20F1E700BF00BFE088C11700EB22
:107EF00091718910A0EB810109B10720E5E700BF6E
:107F0000384600F0DBFAC6B2142E01D10520DCE7BA
:107F10002079B04201DC0420D7E7E188206806FB25
:107F2000010028600020D0E72DE9FC410546884685
:107F30001646002437880020308095F82D0058B16F
:107F40003A463146404600F033FC044600BF204626
:107F500008B1BDE8FC8100BFA87850B13A4631466F
:107F60004046FFF767FE044600BF204600B1F0E739
:107F700000BFE87860B1E97848B23B4632464146F6
:107F800003F0B1F9044600BF204600B1E1E700BFAD
:107F9000686868B1696891F900003B46324641461D
:107FA0000DF016FC044600BF204600B1D1E700BF2B
:107FB000288900280EDD43460622022105F108002B
:107FC000CDE900670DF083FD044600BF204600B1F7
:107FD000BFE700BF288A00280EDD434607220321A1
:107FE00005F11000CDE900670DF071FD044600BFFA
:107FF000204600B1ADE700BF288B00280EDD4346C8
:108000001522142105F11800CDE900670DF05FFD80
:10801000044600BF204600B19BE700BF286A58B164
:108020003B4632464146286A01F0C3FF044600BF82
:10803000204600B18DE700BF686A58B13B46324622
:108040004146686A05F056F9044600BF204600B173
:108050007FE700BF95F82C0000280BDD3B46324639
:10806000414628460CF086FB044600BF204600B17E
:108070006FE700BF287858B13B4632464146284654
:1080800005F027FA044600BF204600B161E700BFB3
:1080900020465EE7F8B504460E46154600200090DF
:1080A0002B466A463146204600F008F807460FB9CD
:1080B0000020F8BDBDF800002044FAE7F0B5044602
:1080C0000D461E4604B10AB90020F0BD002103E0B0
:1080D000605C401C084481B2481CA84206DA108843
:1080E0008842F5DC481C205CB042F1D1A94201DB9A
:1080F0000020EAE7881C87B2605C10B1605C401E1B
:1081000000E0002083B213B1F818A84201DD00207E
:10811000DBE717801846D8E780F83010704770B555
:1081200004460D4605B10CB90E2070BD05F178006E
:1081300001F0BFFE08B90720F7E70020A0702C224D
:1081400005F17801201DFEF79FF9002084F830002A
:10815000D5F8A4006063D5F8A800A0634FF6FF70BF
:10816000A4F8240404F58260C4F82004002140F23D
:108170002C40C4F82614A4F82A140155207810B90C
:10818000FF2084F8540004F15500C4F81004204680
:10819000FFF70BFA40F21441085304F2144204F1C1
:1081A00055012846FFF7C0FE064600BF304600B125
:1081B000BBE700BF04F231204FF483610851204631
:1081C000FFF7F3F9A4F81C044FF48360015904F29B
:1081D0001C4205F13C00FFF7A7FE064600BF3046F3
:1081E00000B1A2E700BF012151200155208B81B2CF
:1081F00048200153012084F83C00002121645020D4
:1082000001556169616404F13C02002104F15400EC
:1082100072DF064600BF304600B186E700BF01208E
:108220002070304681E770B504460D462E46208802
:10823000102804D0112807D026280FD109E02146A4
:10824000304608F0B7FB0AE02146304608F0C4FC8F
:1082500005E02146304608F05AFE00E000BF00BFAE
:1082600070BD70B5044694F8540074DF012084F8A2
:108270002E04002084F830040021502001550621EE
:10828000204603F04BF8054600BF284600B170BDFC
:1082900000BFA178204600F009F8054625B1A06B83
:1082A00010B12846A16B88470020F0E770B504465E
:1082B0000E46207808B9082070BDA670002140F253
:1082C0002C40C4F82614A4F82A140155A07910B142
:1082D000A078012809D0E07910B1A078012804D055
:1082E000E07970B1A07802280BD1606B30B1012029
:1082F00084F82D040820616B884702E0002084F890
:108300002D0431462046FFF71BF9A070606BA0B129
:10831000A078032802D0A07804280ED1607960B13B
:1083200094F82E0448B9002084F83004012084F821
:108330002F040720616B884702E0002084F82F0497
:10834000182104F13C00FEF7B8F8012084F83C0045
:1083500004F12C0009F080FD20B194F82C1051207C
:10836000015502E001215120015594F8240060B12B
:1083700004F1280009F070FD20B194F82810522073
:10838000015502E0012152200155002150200155E4
:10839000A078052824D2DFE800F01F030A11180096
:1083A00004F13C0120460CF085FA054619E004F181
:1083B0003C0120460CF066FA054612E004F13C014F
:1083C00020460CF089FA05460BE004F13C012046FA
:1083D0000CF0B0FA054604E0002084F8310000E01B
:1083E00000BF00BFA07898B104F13C0204F1540032
:1083F000D4F8201472DF05460DB128465CE794F8E6
:10840000301094F8540073DF05460DB1284653E749
:10841000606B18B194F83100616B884700204BE71E
:108420002DE9F041044600BF14B90E20BDE8F081EB
:1084300000BF1C2221461C48FEF726F81B481A499B
:108440000860206860B120687ADF05460DB12846D3
:10845000ECE7164821680A6802604968416005E057
:1084600012487BDF05460DB12846DFE7002617E0FE
:1084700006EB86000E4901EB800700BF4FF6FF7048
:10848000388000BF0B4800EB461078600A4A002194
:10849000381DFFF7FDFA05460DB10320C6E7761C2F
:1084A000002EE5D00020C1E724520020202D00201E
:1084B00010520020F0510020DD59030010B5044691
:1084C000204600F0AFF808B1204610BD1420FCE7AC
:1084D00010B50446204600F0A5F820B12146034817
:1084E00005F029FB10BD0020FCE7000050520020E1
:1084F00070B504460D46164620460DF0B9FA08B987
:10850000002070BD034951F824003246294602F08C
:1085100079FFF6E75C52002010B50446204600F0D3
:1085200081F820B12146034805F005FB10BD00206D
:10853000FCE700005852002010B50446204600F029
:1085400071F820B12146034805F0F5FA10BD00206E
:10855000FCE700005452002070B504460025204678
:1085600000F060F850B12146054805F0E4FA0646EF
:108570000EB1022000E00120054600BF284670BD74
:108580004C52002070B504460025204600F04AF801
:1085900050B12146054805F0CEFA06460EB102203C
:1085A00000E00120054600BF284670BD485200206B
:1085B00010B51821044805F08EFA0446182C00D195
:1085C00010BDE0B2FCE700004052002070B5054647
:1085D0000C4620460DF04CFA50B1284600F022F827
:1085E00030B1044901EB8400294605F0A4FA70BDBE
:1085F0000020FCE75C52002070B505460C4616468C
:1086000020460DF035FA50B1284600F00BF830B195
:10861000034901EB84003246294602F055FE70BD45
:108620005C52002010B50446142C01DB002010BD64
:108630002146024805F07FFAF9E700004452002085
:10864000F8B5002000904D48007800284AD04C48EA
:10865000808800904A4801684A4803886A464A4828
:1086600000F0DAFB044643F201418C421DD10023A5
:108670001A46194643480088B1DF054600BF2E461A
:108680003EB100BF41A240F2A2313046FDF7C2FD2B
:1086900000BF00BF4149424A891AC908032242EA81
:1086A0000140404906F0C6FC11E0082C0FD0132C05
:1086B0000DD0052C0BD000BF25463DB100BF33A225
:1086C0004FF46A712846FDF7A5FD00BF00BF4CB905
:1086D00035480068BDF800100844334908600020A0
:1086E000264908703FE000222549304806F064FF23
:1086F000044600BF25463DB100BF24A240F2B6317A
:108700002846FDF787FD00BF00BF1D488088009008
:108710001B4801681B4803886A461B4800F07CFB25
:108720000446082C0FD0132C0DD0052C0BD000BF05
:1087300025463DB100BF15A240F2BE312846FDF7E7
:1087400069FD00BF00BF54B917480068BDF80010AC
:1087500008441549086000200849087003E001201A
:108760000649087007E0114806F074FF18B903487D
:1087700000780028B7D000BFF8BD0000962C00207C
:108780008C2C0020182C0020FC2B00202E2E5C2E80
:108790002E5C2E2E5C6D61696E2E63001C850300BD
:1087A0003C8403001C690300402C0020508503001A
:1087B0002DE9FC4105460C46174620880930B84291
:1087C00002D90C20BDE8FC8168466DDF064600BF7B
:1087D000304600B1F6E700BF0820218868542088A1
:1087E000401C20801B20218868542088401C208049
:1087F00020882844DDF801100160BDF80510818053
:108800002088801D20809DF80000400818B90020B5
:108810002188685402E00120218868542088401C87
:1088200020800020CEE7000010B54FF0FF3100207F
:108830003DDF044600BF204600B110BD00BFB1219E
:1088400000203CDF044600BF204600B1F5E700BF32
:108850000448416901208847022006F07BFE002081
:10886000EBE70000F060002010B5054800684169A2
:1088700000208847FFF7D8FF0446204610BD0000BF
:10888000702F002070B504460D4600BF04B970BDBE
:1088900000BF2088102806D0112808D051280AD0FF
:1088A000532810D10BE0204608F07EF80CE020465B
:1088B00008F084F908E0204608F0D2FA04E02046E7
:1088C00008F044FA00E000BF00BF00BFDFE700008F
:1088D00070B504460426207B012802D0022822D14C
:1088E00009E002F019F805460DB9012602E0112D44
:1088F00000D1062619E0607B142801DC607B08B9F2
:1089000005260FE0627B04F10E011248FDF7BCFD65
:10891000607B1049091F886108460CF039F805464C
:1089200005B9012601E0022600BF00BF012E0FD0CD
:10893000207B314600F058F8054625B1064800680E
:10894000416903208847044800684169022088473C
:1089500070BD00001C610020702F002070B505461E
:108960000E4600BF1E48006820B11D48406808B18F
:10897000012000E0002000B970BD00BF184800F1E0
:108980000801426828469047044600BF082C24D0BE
:108990007CB900201349096848760121022000F0C3
:1089A00023F80446CCB10F4800684169032088478A
:1089B00013E000200B49096848760621022000F0E8
:1089C00013F8044624B1074800684169032088472A
:1089D0000448006841690220884700BFCCE70000D6
:1089E0000C610020702F0020F0B587B004460D46C2
:1089F000032700200190029003900490032006902A
:108A000020208DF814008DF815408DF816500E4872
:108A1000C088ADF8040002208DF806000020ADF8F3
:108A2000080006A8039005A804900749888801A9B2
:108A3000AEDF064626B9BDF81800032800D00C2684
:108A4000304607B0F0BD0000F06000202DE9F8438B
:108A5000054688462F1D288821285DD006DC102871
:108A60000BD0112841D013287ED169E03B287CD05F
:108A700052287CD05628F7D19EE05A495A4A891A82
:108A8000C908032242EA014058A106F0D3FA0720A0
:108A900000F0CCFC044600BF26463EB100BF56A203
:108AA00040F2F3113046FDF7B5FB00BF00BFA888C8
:108AB0005549088008460188544805F0EDF90446F8
:108AC00000BF26463EB100BF4BA24FF4FB713046BB
:108AD000FDF7A0FB00BF00BF38884D498FDF04467B
:108AE0000121032007F0B8FA78E03E493E4A891A8E
:108AF000C908032242EA014046A106F09BFA4FF65C
:108B0000FF7041490880032007F07CFA00204549A6
:108B100008604549086061E0444800680090A88802
:108B200069468FDF044600BF26463EB100BF32A231
:108B300040F20F213046FDF76DFB00BF00BF4DE056
:108B400000231A468521304800887FDF044600BF95
:108B500026463EB100BF28A240F215213046FDF75F
:108B600059FB00BF00BF39E037E014E0FFE7002306
:108B70001A46194624480088B1DF044600BF26463D
:108B80003EB100BF1CA240F21B213046FDF742FB64
:108B900000BF00BF22E0A888132176DF044600BF93
:108BA00026463EB100BF14A240F222213046FDF716
:108BB00031FB00BF00BF11E0A888132176DF044617
:108BC00000BF26463EB100BF0BA240F2292130462D
:108BD000FDF720FB00BF00BF00E000BF00BFBDE805
:108BE000F88300001C8503003C840300436F6E6E15
:108BF00065637465640000002E2E5C2E2E5C2E2EA4
:108C00005C6D61696E2E6300182C0020003100201D
:108C10009C620300446973636F6E6E656374656480
:108C200000000000402C0020442C0020A86203001B
:108C300070B505460E462888102802D011282CD180
:108C400015E01748006860B901F0B4FA044600BFA7
:108C500034B11448006818B12046124909688847A1
:108C600000BF0F480068401C0D49086016E00C4822
:108C70000068401E0A4908600846006860B9FEF7AF
:108C80009DFC044600BF34B10648006818B1204678
:108C900004490968884700BF00E000BF00BF70BDFD
:108CA0001C2D0020182D002070B504460D4620888C
:108CB000102806D0112808D012280ED0502810D124
:108CC00007E0204607F0FEFD0CE0204607F05CFFC1
:108CD00008E0204608F04CF904E0204607F0DAFDF1
:108CE00000E000BF00BF70BD2DE9F04104460F4613
:108CF000A6882088102806D0112819D019283FD01E
:108D00001A284AD118E00AF031FE30460AF0A2FCD7
:108D100030B900BF22A2F0210420FDF77BFA06E063
:108D2000E07B022803D131462C4804F013FF34E0E5
:108D300030460AF03FFE30E0207A0509042D01DBC1
:108D4000012000E000200246314624480C3002F0A9
:108D5000BBFA032D01DB012000E000200246314672
:108D60001E48083002F0B0FA022D01DB012000E0BD
:108D70000020024631461948001D02F0A5FA0CE019
:108D8000207A48B9607AC0F3C0052A4631461348B4
:108D90000C3002F099FA00BF00BF00BFBDE8F081BF
:108DA0002E2E5C2E2E5C2E2E5C2E2E5C2E2E5C2EFD
:108DB0002E5C636F6D706F6E656E74735C626C6554
:108DC0005C636F6D6D6F6E5C626C655F636F6E6E22
:108DD0005F73746174652E63000000004C520020C4
:108DE00070B504460D4600BF0A48007800B970BD52
:108DF00000BF204603F008FE00B1F8E7204603F06C
:108E0000D1F920460BF00CFF204602F05DFD00BFBB
:108E1000EDE700005C2D00202DE9F04186B004460E
:108E2000884617461D4600BF1CB90E2006B0BDE897
:108E3000F08100BF01AA29466069FFF73FF80646A6
:108E400000BF304600B1F1E700BF4FF6FF7085422A
:108E500001D0019808B90520E8E70198007808B921
:108E60000820E3E73888F42801DD0720DEE700204A
:108E70000290039004900590A088ADF80800CDF80A
:108E80001480049701208DF80A0002A92846AEDF5D
:108E9000CCE7000070B58EB004460E463E4B0FCBBB
:108EA00009AD0FC500BF14B90E200EB070BD00BFD4
:108EB00000BF0EB90E20F8E700BF3068A061214660
:108EC00009A862DF054600BF284600B1EDE700BFF4
:108ED00020788DF836000120ADF83400A21C0DA9D1
:108EE000A8DF054600BF284600B1DEE700BF20210D
:108EF00001A8FDF7E2FA0220ADF8040020788DF811
:108F00000600F420ADF808000120ADF80A008DF845
:108F100010009DF8110020F0080008308DF81100B5
:108F20009DF8110020F00400001D8DF811000120B3
:108F30008DF815008DF81600608804F10C0201A967
:108F400000F068FE05460DB12846AEE7202101A8D5
:108F5000FDF7B3FA0320ADF8040020788DF8060081
:108F6000F420ADF808000120ADF80A008DF81000DB
:108F70009DF8110020F0100010308DF81100012034
:108F80008DF815008DF816008DF817006088221DE9
:108F900001A900F03FFE88E7C464030070B50446F1
:108FA0000D4605B104B970BD2E462088102804D0A6
:108FB000502807D057280FD109E02146304607F046
:108FC000B9FC0AE02146304607F0FEFF05E02146E5
:108FD000304607F0D1FE00E000BF00BF00BFE2E76F
:108FE00070B5044620460CF00EFC0546C5F3400063
:108FF00070BD70B5044620460CF005FC054605F032
:10900000010070BD38B506F01BFE044600BF2546C2
:109010003DB100BF15A24FF40F712846FDF7FAF8D5
:1090200000BF00BF002000906946012006F002FC4E
:10903000044600BF25463DB100BF0CA240F24221CC
:109040002846FDF7E7F800BF00BF684606F0C2FCFF
:10905000044600BF25463DB100BF04A240F24621B0
:109060002846FDF7D7F800BF00BF38BD2E2E5C2E76
:109070002E5C2E2E5C6D61696E2E630001460148E8
:10908000405C7047D362030010B50146094B585C41
:1090900000BF4FF0A044234600BFD3F81045C440A2
:1090A00004F001040CB1012000E00020024682F02F
:1090B000010010BDD36203007CB500240DE0084818
:1090C000055D0326002000903346024601460190CC
:1090D000284605F0B3FB00BF641C042CEFD37CBD15
:1090E000D362030010B5044604F0010008B100F09B
:1090F0004BF804F0020008B1FFF7DEFF10BD0000DE
:1091000010B502460949885C00BF4FF0A0442146D3
:10911000D1F80435012484409C43C1F8084501245A
:1091200084401C40C1F80C4500BF10BDCF62030055
:1091300010B504460249085D012105F0B7FC10BDD9
:10914000CF62030010B504460249085D002105F016
:10915000ADFC10BDCF62030010B50146094B585C51
:1091600000BF4FF0A044234600BFD3F80445C440DD
:1091700004F001040CB1012000E00020024682F05E
:10918000010010BDCF6203007CB500240CE009484B
:10919000055D0020009003460122114601902846FB
:1091A00005F04CFB00BF641C042CF0D300F004F865
:1091B0007CBD0000CF62030010B5002403E0204610
:1091C000FFF7B6FF641C042CF9D310BD10B50024C2
:1091D00003E02046FFF7B6FF641C042CF9D310BD52
:1091E00002464FF0FF30002106E0054B5B5C9342E6
:1091F00001D1084602E0491C0429F6D300BF70479C
:10920000D362030070B505460C460026064805608B
:1092100014B120460CF028F80448006810B9FEF795
:10922000CDF90646304670BD182D00201C2D0020BB
:1092300010B5002000F056FB044600BF1CB1062C00
:1092400001D0204610BD00BF012000F04BFB0446BA
:1092500000BF1CB1062C01D02046F3E700BF002060
:10926000F0E700002DE9F04106460F464FF00008F8
:1092700000243046FFF7B4FF0446042C3ED20FB35F
:10928000012F02D0022F38D130E004EB44002149F5
:1092900011F8008004EB44000844407850B11E4AA5
:1092A0004FF480411D480068FEF73CFC05460DB9AF
:1092B0001948067004EB44001649084480781849A0
:1092C00008551AE015480068FEF75BFC1448005D7D
:1092D00004EB44010F4A11448978884205D104EB1C
:1092E00044001146084490F8028006E004EB440074
:1092F0000849084490F8018000BF00BFB8F1000F92
:1093000006D00848006818B14046064909688847F1
:10931000BDE8F081DE510020102D0020E062030046
:10932000112D0020E82C002010B50446042C03D297
:109330002046FFF7A9FE10BD0020FCE770B50546EA
:10934000042D09D0072D1BD00A2D32D1002000F0AA
:109350006DF8FDF759FC2DE013211748008876DFE2
:109360000446082C0BD000BF26463EB100BF13A216
:109370004FF41F713046FCF74DFF00BF00BF19E0EE
:109380000D4800884FF6FF71884211D10F48FEF753
:1093900068FF0446082C0BD000BF26463EB100BF34
:1093A00006A240F286213046FCF734FF00BF00BF22
:1093B00000E000BF00BF70BD182C00202E2E5C2ED8
:1093C0002E5C2E2E5C6D61696E2E63000C310020C8
:1093D00030B503460020042B23D2012A07D10129EE
:1093E00003D103F10E04E4B200E00024224679B177
:1093F000012902D0022911D104E003EB43040A4DF4
:109400002A550DE003EB4304074D2C44627007E03E
:1094100003EB4304044D2C44A27001E0072000BF7D
:1094200000E0072030BD0000DE51002070B504468A
:1094300000250548007800F0010018B1204600F032
:109440005BF80546284670BD9C2C00202DE9F041B4
:1094500005460F4600241F4805601F48076005F0B9
:10946000020000B3002606E0012211463046FFF755
:10947000AFFF0446761C042E01D2002CF4D034B980
:1094800040F2333204211548FEF77AF9044614B944
:10949000FEF760F904462CB9114A00211148FEF785
:1094A000F7FA044600BF05F0010080B10120FFF784
:1094B00019FE2CB90C4A00210C48FEF7E9FA0446C3
:1094C0002CB90B4A01210B48FEF7E2FA044620466C
:1094D000BDE8F0819C2C0020E82C0020E462030011
:1094E0004D9A0200E062030089CB0200D8620300BB
:1094F00033770200DC6203002DE9F04704460026C2
:109500000025F348007820B10020F149087003F0ED
:1095100027FB182C7ED2DFE804F00C16174A7EB227
:10952000F6F4F3F2F1F0EFEEEDECEBEAE9E8E7E662
:10953000E5E403F015FBE7480068FEF722FB06466A
:10954000E5480470BFE100BF0020FFF705FE58B1F9
:109550000020FFF7EDFD022C02D14FF4E16001E0A5
:109560004FF47A60054609E00020FFF7EBFD022C7E
:1095700001D1C82001E04FF4C8700546D6480470F8
:109580004FF40040A5FB00304FF47A729F1840F171
:109590000001520000233846FCF732FF81460022CA
:1095A0004946CC480068FEF7BDFA06468BE100202C
:1095B000FFF7D2FD58B10020FFF7BAFD032C02D10E
:1095C0004FF4487001E04FF47A60054609E000204E
:1095D000FFF7B8FD032C01D1C82001E04FF4C8709B
:1095E0000546BD4804704FF40040A5FB00204FF431
:1095F0007A73D71840F100015A0000233846FCF76F
:10960000FFFE814600224946B2480068FEF78AFA0A
:10961000064658E156E10020FFF79EFD58B10020B4
:10962000FFF786FD042C02D14FF47A6001E04FF47D
:109630007A6005460AE00020FFF784FD042C02D181
:109640004FF4C87001E04FF4C8700546A24804709A
:109650004FF40040A5FB00204FF47A73D71840F177
:1096600000015A0000233846FCF7CAFE814600225A
:10967000494698480068FEF755FA064623E100205F
:10968000FFF76AFD50B10020FFF752FD052C01D114
:10969000C82001E04FF47A60054609E00020FFF79A
:1096A00051FD052C01D1C82001E04FF4C8700546DA
:1096B000894804704FF40040A5FB00104FF47A7203
:1096C0008F1840F10001520000233846FCF798FE45
:1096D0008146002249467F480068FEF723FA064685
:1096E000F1E0EAE0B6E0AAE0A1E098E092E05FE015
:1096F0005DE05BE059E057E051E042E033E024E018
:1097000015E00EE0FFE70020FFF7FAFC7248047056
:10971000002240F266616F480068FEF703FA0646D1
:10972000D1E00020FFF70EFD6B480470CBE0012074
:1097300067490870FFF7E4FC002240F26661654863
:109740000068FEF7EFF90646BDE0012060490870A9
:10975000FFF7D6FC00224FF400515E480068FEF788
:10976000E1F90646AFE0012059490870FFF7C8FC4F
:10977000002240F2666157480068FEF7D3F90646BA
:10978000A1E0012052490870FFF7BAFC00224FF413
:10979000005150480068FEF7C5F9064693E0FFF710
:1097A00015FD4D4804708EE000BF00BF00BF00BF34
:1097B0004A480068FEF7E5F90646C4F1110515B3FD
:1097C0000EBB012D18D9A8B2C82148434FF400415F
:1097D00080FB01104FF47A73CF1840F100015A005A
:1097E00000233846FCF70CFE8146002249463B48E0
:1097F0000068FEF797F906460220FFF7A3FC012058
:109800003749087005E00220FFF792FC0020344938
:10981000087058E003F0A4F92F48047053E003F0F7
:109820009FF90020FFF78EFC2B4804704BE003F0FB
:1098300097F90120FFF786FC2748047043E003F006
:109840008FF90020FFF77EFC0120FFF77BFC224808
:10985000047038E00220FFF77FFC58B10220FFF7C8
:1098600067FC162C02D14FF4E16001E04FF47A60FE
:10987000054609E00220FFF765FC162C01D1C8203F
:1098800001E04FF4C8700546134804704FF40040DF
:10989000A5FB00304FF47A729F1840F1000152008E
:1098A00000233846FCF7ACFD8146002249460948B2
:1098B0000068FEF737F9064605E0FFF787FC064823
:1098C000047000E000BF00BF3046BDE8F087000034
:1098D000992C0020D8620300982C0020DC62030041
:1098E000A02C002010B50446012120460CF081F97F
:1098F00010BD00002DE9FC4704460D461646A71C86
:109900004FF001080020019001A8FEF769F93048E6
:10991000406828602E4840682D498968411A2D48C2
:109920000068401CA0EB010915E001212A4804F061
:1099300035F903F0C7FB82465146274804F02EF95B
:109940002348406822498968411A22480068401C1F
:10995000A0EB010900BF4F45E7D8B8F1000F30D0A8
:109960000021009176B1009921F00301491C00917A
:10997000009921F00401091D0091009964F38911F7
:1099800000910DE0009921F00301891C00910099DC
:1099900021F00401091D0091009964F39F51009189
:1099A0000B4949680B4A12681140094A0C3202EB14
:1099B0008100009901600649496839440C3A5160B8
:1099C00000BF9DF80400FEF711F94046BDE8FC8792
:1099D000485A0020282F0020645E002070B50446FD
:1099E0000D460A2D03D10D212046FFF7F7FFA16890
:1099F000481CA06020684554D4E90110884202D375
:109A0000204604F06AFB70BD044880680349496839
:109A1000884201D1012070470020FCE7485A00200D
:109A20000246002108E0074B1B6803EBC1000378E6
:109A3000934200D17047491C034800788142F2DB11
:109A40000020F7E7602E0020642E002010B50446A9
:109A500020780221FFF706FC10BD0000F8B505468E
:109A600015490320FFF7F2FC044600BF26463EB12D
:109A700000BF12A240F212313046FCF7CBFB00BF10
:109A800000BF69460020FFF7BDFB044600BF264625
:109A90003EB100BF09A240F215313046FCF7BAFBD7
:109AA00000BF00BF9DF80000022801D1012000E0A6
:109AB00000202870F8BD00003D9302002E2E5C2E81
:109AC0002E5C2E2E5C6D61696E2E63007CB50446A3
:109AD000204602F0ADFC054600236A46092107F046
:109AE00019FF052805D10122024801782046FEF71A
:109AF00083FD7CBD382D00207CB504460E46002039
:109B0000019042F6A620ADF8040001208DF8060071
:109B10000748006800906A4601A92046A0DF054674
:109B20002DB90122034801782046FEF765FD7CBD72
:109B300060630300392D002001468879012809D18E
:109B40000879012806D1488842F60212904201D1D4
:109B5000012070470020FCE74FF0FF31054A42F832
:109B60002010082804DBFF23A0F1080150325354D1
:109B700070470000B45500200146024850F821000B
:109B800070470000B45500202DE9F04F03460C4605
:109B90004FF0FF390AB1002000E0082084460AB1E6
:109BA000082000E00C208046614624E0154850F86B
:109BB0002100401CF0B91D460846274616464FFABC
:109BC00080FBDFF840A00AF1300A0AF805B0DFF8A0
:109BD00034A04AF820704EB94FFA85FBA0F1080A6C
:109BE000DFF820E00EF1500E0EF80AB000BF4FFA79
:109BF00081F902E0491C4145D8D300BF4846BDE881
:109C0000F08F0000B45500200146014840567047CF
:109C1000E455002070B590B006460C461546A07875
:109C200018B901208DF80E0002E0A0788DF80E0022
:109C30002088ADF80C0000200290607C02A90AF098
:109C4000D7FEA07C0DF109010AF0D2FEE07B08B13D
:109C5000012000E000209DF80A1060F3C3018DF898
:109C60000A10207C08B1012000E000209DF80A10B5
:109C700060F304118DF80A10207B08B1012000E088
:109C800000209DF80A1060F300018DF80A10207D75
:109C900008B1022000E001209DF80A1060F34201A3
:109CA0008DF80A101C2109A8FCF707FC607BC0F3A3
:109CB000001018B9607BC0F34010F8B1002000908C
:109CC000E07C0DF101010AF093FE00BF9DF8000059
:109CD00020F00F00401C8DF800009DF8000020F0DF
:109CE000F00010308DF8000000BF9DF8020020F059
:109CF0000600801C8DF80200CDF838D0607B8DF80E
:109D00002400A07B8DF82500142104A8FCF7D5FBC6
:109D100003A8049002A80590A088ADF81C00A068D4
:109D200020B1E088ADF81800A0680890A06900286C
:109D300049D000200190A0690088ADF82C00A069EE
:109D40004088ADF82E00A06940680A9001A80D90E7
:109D5000A169087B01A90AF04BFEA169487B0DF1BE
:109D600005010AF045FEA069807A08B1012000E0F3
:109D700000209DF8061060F3C3018DF80610A0695D
:109D8000C07A08B1012000E000209DF8061060F3C1
:109D900004118DF80610A069007A08B1012000E0D6
:109DA00000209DF8061060F300018DF80610A069F0
:109DB000807B08B1022000E001209DF8061060F3CE
:109DC00042018DF80610E06908B1E0690C902B465D
:109DD00004AA09A93046AADF10B070BD10B5044628
:109DE000FCF77AFE10BD2DE9F04104460D464FF612
:109DF000FF76304684420AD14FF48071284603F042
:109E00006AFE86B2B6F5807F10D126460EE0FF2CA2
:109E10000CDC2146284603F047FE80F001070FB115
:109E2000204601E04FF6FF70064600BF3046BDE811
:109E3000F081000070B505460DB9094C01E0084CF1
:109E4000083409E0204602F05EFE064606B904E04A
:109E500028467168884700BFF4E700BF70BD000066
:109E6000A855002010B504462CB9012006494870B9
:109E70000020FFF7DFFF012C04D101200249887088
:109E8000FFF7D8FF10BD0000A05500202DE9F047D6
:109E9000024613468C46D3E90245DCE90267B6EB7D
:109EA000040877EB050002D30120BDE8F08700200D
:109EB000FBE701468878012805D191F820000128A8
:109EC00001D100207047886A042802D0486A04281B
:109ED00001D10020F6E70120F4E700007CB5002066
:109EE0000090019001208DF800006946022067DF94
:109EF000044600BF25463DB100BF04A24FF4647183
:109F00002846FCF787F900BF00BF7CBD2E2E5C2ED3
:109F10002E5C2E2E5C6D61696E2E630033B58BB0A6
:109F20000546002000900C9878B100240BE02146F3
:109F30000CA803F000FE28B1009A501C009001A864
:109F400020F81240641C142CF1D32C2269462846B8
:109F5000FCF79AFA0DB030BD01460888062808DBE8
:109F60000888B0F5486F06DD08884FF6FF7290420A
:109F700001D0072070474888062808DB4888B0F5DC
:109F8000486F06DD48884FF6FF72904201D00720E7
:109F9000F0E708884FF6FF72904208D04888904258
:109FA00005D008884A88904201DD0720E2E70020BA
:109FB000E0E72DE9F04107460D4614469846208813
:109FC000801D404502D90C20BDE8F0813846FFF7DE
:109FD000C3FF064600BF304600B1F5E700BF0520CD
:109FE000218868542088401C2080122021886854D1
:109FF0002088401C20802288511938880BF009FCE9
:10A000002188084420802288511978880BF001FCAF
:10A010002188084420800020D6E7000010B50446BF
:10A0200000BF04A24FF4C9712046FCF7F3F800BF4B
:10A0300010BD00002E2E5C2E2E5C2E2E5C6D6169F4
:10A040006E2E630030B587B01C216846FCF735FAE8
:10A05000002000904FF4A03001904FF4F0200290C7
:10A0600003208DF80C000020ADF80E008DF81000D4
:10A070000A4805900A4806906846FEF7D1F904465A
:10A0800000BF25463DB100BF06A240F2A9112846F7
:10A09000FCF7C0F800BF00BF07B030BD5508030093
:10A0A0001DA002002E2E5C2E2E5C2E2E5C6D616992
:10A0B0006E2E6300F8B505460C46607A88B9207AA2
:10A0C00010B91048476801E00E4887682A463946AB
:10A0D0006068FDF727FD064616B130460AF03CF9E8
:10A0E0000EE0002020720748406948B101208DF839
:10A0F0000000ADF80250034841696846884700BF38
:10A10000F8BD000024520020F0B585B004460D468D
:10A1100017461E4614220B496846FCF7B5F9ADF800
:10A1200002408DF80850ADF80A708DF80C600022DE
:10A13000054801782046FEF75FFA684600F00CFEFD
:10A1400005B0F0BD70640300252E002010B586B068
:10A150000446208807F016F900BB2088FEF7B8F9FE
:10A1600030B92088012241F2060100F0CAFB15E057
:10A17000208800220A490978FEF73EFA03208DF86C
:10A1800004002088ADF8060000208DF80C000021A6
:10A190008DF80D1001A800F0DFFD00BF06B010BD66
:10A1A000252E002070B504460D4629462046FDF7B1
:10A1B0009DF870BD10B50A2202210020FFF708F9B2
:10A1C000044600BF1CB1072C01D0204610BD00BFC3
:10A1D000072202210120FFF7FBF8044600BF1CB153
:10A1E000072C01D02046F1E700BF0020EEE710B5B4
:10A1F000112004F0BCFB0A2005F0ECFE00240EE068
:10A20000112004F048FC4FF4FA7005F0E3FE112031
:10A2100004F0F7FB642005F0DDFE601CC4B2072CDF
:10A22000EEDB112004F037FC10BD062000BF4FF01C
:10A23000A0410A46012303FA00F1C2F8081500BF45
:10A2400000BF7047062000BF4FF0A0410A4601231F
:10A2500003FA00F1C2F80C1500BF00BF7047000000
:10A260002DE9FF4105460C46002002900390ADF811
:10A270000840ADF80A40009001906A4602A92846BD
:10A2800090DF0646002E32D0304605F039FE0746F4
:10A2900019491A4A891AC908012242EA01403B4673
:10A2A0002A46174904F0DCFEBDF8000010B9BDF8DD
:10A2B000020068B1BDF80230BDF800200E490F4F12
:10A2C000C91BC908012747EA01400EA104F0C8FED6
:10A2D000BDF8040058B1BDF804200749074BC91A5E
:10A2E000C908012343EA0140164904F0ADFE304697
:10A2F00004B0BDE8F08100003C8403003C8403000E
:10A3000060690300546865207265717565737465D2
:10A31000642054582F5258207061636B6574206C10
:10A32000656E67746820697320746F6F206C6F6E40
:10A33000672062792025752F2575206F63746574F9
:10A34000732E0000AC6903001CB51F49096801EBBE
:10A35000C102C2EB81111D4A02EB8100DC221C49C3
:10A36000FCF792F81848006800EBC001C1EB8010C0
:10A37000164901EB80000090DC20ADF8040069462E
:10A38000144805F08AF90446FEF75AF90E480068A9
:10A39000401C0D49086008460068142812D10E4977
:10A3A000096801EB41020D490D4BC91AC908032385
:10A3B00043EA01400BA104F047FE00200249086077
:10A3C000054908601CBD0000442C002044360020D4
:10A3D000DC2F002050850300402C00201C8503004A
:10A3E0003C8403003D3D2A2A53706565643A20256C
:10A3F0006420422F732A2A3D3D0000002DE9F041E0
:10A4000005460F460F4C0121204603F0FEFB064691
:10A4100000BF00BF00BF00BFBFF35F8F00BF00BF22
:10A4200000BF0EB9012000E0002040B1284602F034
:10A4300095FD08B1BDE8F081024805F01FF800BFA6
:10A44000F8E70000302D002070B50D490D4A891A3B
:10A45000C908032242EA01400BA104F0EBFD08F019
:10A4600051FD044600BF25463DB100BF0AA240F29F
:10A4700046312846FBF7CEFE00BF00BF70BD00008E
:10A480001C8503003C840300457261736520626F84
:10A490006E647321000000002E2E5C2E2E5C2E2E8A
:10A4A0005C6D61696E2E630070B506460D4616B18F
:10A4B0004FF4064070BD287920B1012809D0022848
:10A4C00015D111E002202871284609F021F904462F
:10A4D00010E0284600F0AAFE044648F209608442D3
:10A4E00001D141F61D5405E041F61D5402E048F249
:10A4F0000E6400BF00BF2046DCE700002DE9F041FC
:10A500008046002414E01248006800EBC405287857
:10A5100005F072FE07466878012800D100E00020AF
:10A52000784080F001062878314600F043FB641C37
:10A53000084800788442E6DB0748D0E90010002391
:10A5400059405840014301D00BF0AAF8BDE8F08112
:10A55000602E0020642E0020902E002070B504464E
:10A5600020793D2802D141F23D0001E04FF48850AE
:10A57000054620880022294602F040FC70BD0000FC
:10A5800038B50C480068009000208DF801000A4A98
:10A590006946032005F0B6FD044600BF25463DB1DF
:10A5A00000BF06A240F292412846FBF733FE00BFEF
:10A5B00000BF38BDC462030099C402002E2E5C2E79
:10A5C0002E5C2E2E5C6D61696E2E630010B500212D
:10A5D000034803F01AFB044684F3100010BD00008A
:10A5E000645E002070B505460C464FF4803000FADA
:10A5F00004F1284600F0BEFA70BD70B505460C4661
:10A600004FF4A07000EB840086B23146284600F07B
:10A6100049FB70BD2DE9F04704460D4616461F461E
:10A620004FF4803000FA05F84FF4A07000EB85007D
:10A630001FFA80F926F07F464146206805F0E0F8D1
:10A640004146206805F0D0F84946206805F0C2F878
:10A6500032462946206805F0ADF84146206805F0ED
:10A66000C6F81FB14146206805F0CDF8BDE8F08777
:10A6700010B50446206805F0A2F810BD2DE9F0479A
:10A6800004460D4617466079324941F820706079DA
:10A69000314901EBC000007968B108262F49304AE2
:10A6A000891AC908022242EA01402EA104F0C2FC24
:10A6B0003046BDE8F08729882068C0F8081500BF3B
:10A6C00094F90420AB7810461946002808DB4FEABD
:10A6D000417C4FEA1C68DFF8B0C00CF800800BE04A
:10A6E0004FEA417C4FEA1C69DFF8A0C000F00F0878
:10A6F000A8F104080CF8089000BF00BF94F90410FA
:10A70000084600280DDB00BF00BF00F01F03012238
:10A710009A4043099B0003F1E023C3F8002100BFE6
:10A7200000BF00BF00BF012061790B4A02EBC101ED
:10A7300008716079114641F8304000260749084AFF
:10A74000891AC908032242EA014011A104F072FCEF
:10A750003046AEE7BC2E0020C02E0020EC84030063
:10A760003C84030052544320696E7374616E6365C8
:10A7700020616C726561647920696E697469616CCD
:10A78000697A65642E00000000E400E018ED00E046
:10A790005254433A20696E697469616C697A6564E0
:10A7A0002E00000010B5014691F90400002807DBD7
:10A7B00000F01F0301229A40024B440943F8242071
:10A7C00000BF10BD00E200E070B505460C46224611
:10A7D0000221284600F0DAF970BD10B504464FF4A6
:10A7E0008271204600F05EFA10BD10B504460021CB
:10A7F000206805F010F810BD10B50446042120684B
:10A8000005F009F810BD2DE9F84F044688461546B5
:10A8100099464FF4803000FA08FA4FF4A07000EB2C
:10A8200088001FFA80FB25F07F455146204600F046
:10A83000A1F9206804F0C3FF06464146206804F0F1
:10A84000B3FF009032464146206804F0B3FF5946FA
:10A85000206804F0BFFF314600980AF055FE012839
:10A8600006D1102005F0AAFB5946206804F0B2FF7B
:10A87000206804F0A4FF0646314628460AF044FE4C
:10A8800007465146206804F0B2FF012F0FD16A1C21
:10A890004146206804F08EFF102005F08FFB2068F1
:10A8A00004F08DFFB04225D00D20BDE8F88F2A4678
:10A8B0004146206804F07EFF206804F080FF0646D1
:10A8C000681E31460AF020FE07466FF07F40A0EB7D
:10A8D0000900B84201D20D20E7E75FB96A1C414682
:10A8E000206804F067FF206804F069FFB04201D0DF
:10A8F0000D20DAE701225146204600F047F90020FA
:10A90000D3E770B506460C4615462B462246002175
:10A910003046FFF7F9FB70BD10B510480068407E67
:10A9200060B106210120FEF75FF8044624B10B4810
:10A930000068416903208847002010BD01200749B5
:10A940000968087601210846FEF74EF804461CB156
:10A9500000200249096808762046EEE7702F0020A3
:10A960002DE9F84305460E461746984669461048B5
:10A97000006803F052F8044614B90420BDE8F883D7
:10A980001C212046FBF799FD012020712560C4F8A9
:10A99000088008480068B6FBF0F0E060676169462F
:10A9A0000348006803F063F808F0B2FD0020E5E713
:10A9B0005C6703005067030010B50446D4E9032127
:10A9C000501828DF10BD0278072A38D2DFE802F0DD
:10A9D00037040712222B340000220A7030E00122D3
:10A9E0000A7003898B818388CB81C2688A600023C7
:10A9F0000B7425E002220A7003898B818388CB8146
:10AA0000C2688A60827D062A01D1012300E000230A
:10AA10000B7415E003220A70C3888B810389CB81F4
:10AA2000C2688A600CE004220A70C3888B8100230C
:10AA3000CB8100228A6003E005220A7000E000BF9B
:10AA400000BF704770B50546002409E0064850F87D
:10AA5000240020B1044850F8241028468847641C7C
:10AA6000042CF3D370BD00001057002030B587B020
:10AA700004460D462068806808B907B030BD18212B
:10AA800001A8FBF71AFD0295A0680690207910B185
:10AA9000012815D109E001208DF8040020690390F8
:10AAA000E0680490606905900BE002208DF80400D6
:10AAB0000749E0680968484303906069059000E031
:10AAC00000BF00BF2068816801A8884700BFD4E7A5
:10AAD00050670300F0B585B005460C461646002CBD
:10AAE0003ED0112C3CD0082C3AD00D2C24D11D493D
:10AAF0001D4A891AC908022242EA01402A461B4916
:10AB000004F0A2FA2A460421684602F057FD2EB14D
:10AB1000307800F0010008B1012000E002208DF83B
:10AB2000080000218DF80C1041F20111ADF80A1057
:10AB3000684600F025F913E0204605F0E1F90746E4
:10AB40000849094A891AC908012242EA01402B46EC
:10AB50003A46074904F084FA2146284609F06AFC7F
:10AB600005B0F0BD848403003C840300B879030081
:10AB7000C87A030070B504460D462946206804F0E3
:10AB800033FE2946206804F03BFE70BD70B50446D4
:10AB90000E4615463146206804F029FE1DB13146A7
:10ABA000206804F030FE70BD10B50446204600F069
:10ABB000E7F810BDF8B505460C4628460AF068FBD4
:10ABC00005286AD2DFE800F003212A393F00DCB112
:10ABD000012128460AF06CFB002000906846FCF733
:10ABE000FFFF2A460126002730463946FBF739FC8D
:10ABF0002B4AD2E9003218431143294A03C29DF877
:10AC00000000FCF7F3FF00BF47E00CB1022000E0BA
:10AC10000020014628460AF04BFB3EE044B10321E8
:10AC200028460AF045FB012128460AF041FF03E0CF
:10AC3000012128460AF03CFB2FE01CB904212846DC
:10AC40000AF036FB29E024B1032128460AF030FB44
:10AC500022E0002128460AF02BFB002128460AF0BA
:10AC600027FF002000906846FCF7BAFF2A4601261D
:10AC7000002730463946FBF7F4FB0A46C143D04370
:10AC8000074B0CCB11401840054AC2E900109DF853
:10AC90000000FCF7ABFF00BF00BF00BFF8BD000025
:10ACA000902E002070B505460C462868015929B140
:10ACB0002146286804F08EFD012070BD0020FCE7CD
:10ACC00070B50446608801F0B3FBA080002505E064
:10ACD000044850F82510204688476D1C002DF7D0F9
:10ACE00070BD0000282D002070B50446A08801F03A
:10ACF000CFFA6080002505E0044850F82510204672
:10AD000088476D1C002DF7D070BD00003C2D002041
:10AD100070B50546002405E0044850F82410284684
:10AD20008847641C022CF7D370BD0000A0630300A9
:10AD300070B50546002405E0054850F82410284663
:10AD40008847641C034800788442F5DB70BD00002E
:10AD5000545500206A2D002070B50446608801F02B
:10AD600067FBA080002505E0044850F82510204628
:10AD700088476D1C002DF7D070BD000030640300C3
:10AD800070B50546002405E0044850F82410284614
:10AD90008847641C002CF7D070BD0000BC64030021
:10ADA00010B586B00446142101A8FBF786FBA089E4
:10ADB00000F056FAADF80800207806285ED2DFE8E9
:10ADC00000F05D0304052E4A00BF00BFA08900F01B
:10ADD0004CFA18B9E08908F0BCFDF8B1E08908F038
:10ADE000B5FD8DF80C002078032801D1012100E089
:10ADF00000218DF80D10A1680491606830B9092018
:10AE00008DF8040001218DF8141004E00A208DF85B
:10AE100004006168059101A806F0C8FC2FE0A08934
:10AE200000F023FAB0B1E089A0B9606838B90B200E
:10AE30008DF80400BDF8080006F008FF04E00C20BF
:10AE40008DF804006068039001201149087001A882
:10AE500006F0ACFC13E0606818B914208DF804000B
:10AE600004E015208DF80400606803904FF6FF7031
:10AE7000ADF8080001A806F099FC00E000BF00BF93
:10AE80000348007808B106F027FE06B010BD0000A8
:10AE9000492D002038B505461048007810B948F211
:10AEA000016038BD4FF6FF70854202D148F2036061
:10AEB000F7E7684608F00CFA044614B948F2076050
:10AEC000EFE70520207001202071E580684608F03A
:10AED0000FFA08F011FB0020E3E70000D42E002059
:10AEE00038B50E48007810B948F2016038BD6846A0
:10AEF00008F0EEF9044614B948F20760F6E70620B8
:10AF00002070684608F0F4F90548007810B1012077
:10AF10000349087308F0F0FA0020E7E7D42E002078
:10AF2000E457002070B586B0142101A8FBF7C5FADC
:10AF30003048007828B101A8FFF784FD002006B052
:10AF400070BD2C48001D02F022FE08B10020F6E77B
:10AF500000F04AFA06460EB13046F0E708F0F4F980
:10AF600006F058F9054625B1022D03D0062D12D161
:10AF700007E000BF00201F490870486048F20A60DF
:10AF8000DDE701201B4908700020486001A8FFF799
:10AF900059FD0020D3E700BF00BF684608F098F9CC
:10AFA000044614B948F20760C9E7012020700C2D4F
:10AFB00016D2DFE805F01506150715111512150A4A
:10AFC0000E0B00BF002020710BE000BF032020719A
:10AFD00007E00220207104E000BF0120207100E0A2
:10AFE00000BF00BF684608F083F908F085FA00202A
:10AFF000A5E70000D42E002038B5044614B948F265
:10B00000046038BD6946204608F0A0FB08B3BDF8CF
:10B01000000000EB8000114901EB8000C068A8B17E
:10B02000A07A98B1BDF8000000EB800001EB800031
:10B03000C068401EBDF8001001EB8101074A02EB19
:10B040008101C8600020A072002504E048F2056577
:10B0500001E048F209652846D3E70000BC5700200C
:10B060007FB514461D462B46224601A9684608F0C6
:10B0700005FB04B070BD37B50C4615462B4622467D
:10B080006946002008F0FAFA3EBD37B50C46154671
:10B090002B4622460021684608F0F0FA3EBD0246E3
:10B0A00002B111B948F204607047106808600020CE
:10B0B000FAE70000F8B504460D4604B115B948F2A8
:10B0C0000460F8BD6946204608F040FBA0B1666800
:10B0D000BDF8001001EB8101094A02EB810101F189
:10B0E0000C00012102F05AFD2E6060680C3068608F
:10B0F0000120A0720020E4E748F20960E1E70000C7
:10B10000BC57002070B504460D4614B948F20460DF
:10B1100070BD03230022294620460AF063FFF7E7AB
:10B1200070B504460D4602230022294620460AF047
:10B1300059FF70BD70B5054609480068042802D162
:10B1400048F20B6409E007480549096840F82150B6
:10B150000121034802F022FD0024204670BD0000BA
:10B16000E02E0020105700202DE9F84304464FF44C
:10B17000806800262B48007818B948F20160BDE8C5
:10B18000F88314B948F20460F9E712212046FBF76E
:10B1900094F90320208000253FE005EB850022493B
:10B1A00001EB8000008905EB85011F4A02EB81015C
:10B1B0004989084487B205EB850102EB81014868A3
:10B1C00005F0A4FF032802D12088401E208060885B
:10B1D00005EB8501144A02EB8101C96808446080CF
:10B1E000208905EB850102EB810149890844208112
:10B1F000608938446081C7F5806086B2A089B0421A
:10B2000000DAA68104F11000831EA21D211D00900A
:10B21000284608F0F1FB681C85B2022DBDDB00203A
:10B22000ADE70000D42E0020BC5700203EB50446F8
:10B230000A4B6A460021A01D08F020FA054635B9E0
:10B24000064A9188019808F0FBFA054603E0034896
:10B2500000210160416028463EBD0000F02E002024
:10B260000146A1F5404080B270470146B1F5404F1C
:10B2700005DB4FF6FE70814201DC012070470020A3
:10B28000FCE710B50446A07FFF2802D0A07F03F0A2
:10B29000F7FB00206077207204F10800D4E9002158
:10B2A000904710BD10B504462078182802D1FDF74C
:10B2B0007FF9207010BD10B504462078182802D1FF
:10B2C000FDF776F9207010BD70B505460E461446A0
:10B2D00024B13146284602F03DFC03E031462846C1
:10B2E00002F0D3FB70BD30B504461088C01C9842F4
:10B2F00001D90C2030BD0220158848551088401C0B
:10B3000010800120158848551088401C1080158831
:10B310004C551088401C10800020EBE770B50446A7
:10B320000D4640F21442115B0122D4F81004FCF7E0
:10B33000B1FE064606B1357004F13C0204F58261A7
:10B3400004F1540072DF70BD2DE9F04106460C4651
:10B3500015460027112C01D1012700E0002765B117
:10B360003A460A4801783046FDF746F90022084877
:10B3700001783046FDF740F905E03A460448017887
:10B380003046FDF739F9BDE8F0810000432E00207A
:10B39000402E002010B54FF4405400F009F8034946
:10B3A000086108460069001BC86010BDD830002045
:10B3B00010B540F6F8700068401C18B94FF0102026
:10B3C000406902E040F6F870006803464FF0805094
:10B3D00001694269581C08B1184601E002FB01F0FE
:10B3E0000446204610BD000010B5FFF7D3FF002231
:10B3F0000249034803F030F810BD00006067030005
:10B40000D8300020F7B50D4617460DB90020FEBD17
:10B410000026009868B1002409E02146684602F041
:10B420008AFB18B1A0B23946A847761C641C142CBC
:10B43000F3D33046EBE710B50446606807F0B2FF7F
:10B4400010BD00003EB500BF9DF8000020F00F00C9
:10B45000401C00909DF8000020F0F000103000909B
:10B4600000BF0C2216A168467CDF044600BF2546BB
:10B4700035B100BF16A2DE212846FAF7CBFE00BF89
:10B4800000BF0020019002901020ADF80400ADF83C
:10B4900006000020ADF808004FF4C870ADF80A00AF
:10B4A00001A87ADF044600BF254635B100BF08A2D7
:10B4B000E8212846FAF7AEFE00BF00BF3EBD0000FF
:10B4C000536565724C696B654A617A7A00000000C9
:10B4D0002E2E5C2E2E5C2E2E5C6D61696E2E63000E
:10B4E00070B505460C4660880D490988884215D11B
:10B4F000208840F67721884210D1A088C01E0949D3
:10B5000008800949094A891AC908032242EA014008
:10B5100004490B880A8806A103F0A2FD70BD000053
:10B52000182C00201A2C00201C8503003C840300EA
:10B5300044617461206C656E2069732073657420AA
:10B54000746F2030782558282564290070B511497A
:10B55000114802F002FC044600BF25463DB100BF81
:10B560000EA240F261212846FAF754FE00BF00BF48
:10B57000F721094802F0E2FB044600BF25463DB131
:10B5800000BF06A24FF419712846FAF743FE00BF28
:10B5900000BF70BDE1B40200EC3000202E2E5C2E06
:10B5A0002E5C2E2E5C6D61696E2E630070B50546B3
:10B5B00015B14FF4064070BD1848007B18B100204B
:10B5C0001649087301E000F0DFF8144800780828F5
:10B5D0001DD2DFE800F01C04080C101C141800F049
:10B5E0003FF8044616E000F0BDF8044612E000F013
:10B5F00099F804460EE000F047F804460AE000F02F
:10B6000035F9044606E000F043F9044602E048F24A
:10B610000E6400BF00BF2046CDE70000E4570020C5
:10B620000D480089401C0C4908810020488008739F
:10B6300000BF0DE000EB8001084A12F8211009B9A3
:10B64000012200E0002204490A310A54411C88B258
:10B650000228EFDB70470000E4570020BC570020B1
:10B6600010B5084800F036F840B900200549891E99
:10B6700008704880486041F61D5010BD00F072F817
:10B68000FBE70000E657002070B50F48458805EB42
:10B6900085000E4901EB8000C06878B904200A4992
:10B6A000087005EB8500094A02EB800000230122A7
:10B6B0004168074802F018FE044602E000F090F8E6
:10B6C0000446204670BD0000E4570020BC5700200F
:10B6D000D830002010B501460022002018E00F4BA2
:10B6E0001B5C9BB100240D4B1C5400EB80030C4CE5
:10B6F00004EB8303DB684BB900EB800304EB8303AB
:10B700001B7C012B02D10880012203E0431C98B26C
:10B710000228E4DB00BF104610BD0000EE570020F9
:10B72000BC570020F8B50C4844680C4800680B4929
:10B73000898800EB81056088C01C86B20320064919
:10B7400008700020B300009008462946426804486B
:10B7500002F042FFF8BD0000E4570020E82E002070
:10B76000D830002010B507494888091D08F02CF88A
:10B7700018B1FFF7D7FF044602E0FFF785FF044644
:10B78000204610BDE457002010B514480078082862
:10B7900020D2DFE800F0041F1F0A1016171BFFF766
:10B7A0003FFF01200D49087015E000F07DF80220F0
:10B7B0000A4908700FE000F029F8062007490870D0
:10B7C00009E000BF07200549087004E00120034993
:10B7D000087000E000BF00BF10BD0000E45700206B
:10B7E00010B50520064908700220064988800846E1
:10B7F000002301220168044802F076FD10BD00001C
:10B80000E4570020E82E0020D830002014490868B2
:10B810001449498801EB8101134A02EB810149680F
:10B820000F4A11600F49498801EB81010E4A02EB72
:10B83000810148600A4989880A4A528802EB8202DB
:10B84000094B03EB820211810221054A91800021FC
:10B85000044A528802EB820203EB820211747047A1
:10B86000E82E0020E4570020BC57002010B5062029
:10B8700005490870498801EB8101044A02EB810106
:10B88000486805F0A5FC10BDE4570020BC57002017
:10B8900010B50720034908700020486005F0A8FC97
:10B8A00010BD0000E4570020054A50684288D21CB1
:10B8B00091B2044A92880A44024B9A807047000071
:10B8C000E4570020E82E00202DE9F04186B0044620
:10B8D000A688208850282ED004DC352836D036287B
:10B8E00008D189E0522802D05428F9D103E030462B
:10B8F00001F0C6FAB9E01422634901A8FAF7C4FDC1
:10B90000ADF80660304600F093FDADF80800BDF8D4
:10B91000080000F03BFA00225C4801783046FCF752
:10B920006BFE00225A4801783046FCF765FE01A8FC
:10B93000FFF7C6F999E0A01DFEF7FEF828B1012136
:10B94000304601F0FFFA0AF02FF88EE00027A688B3
:10B9500004F10A054F4801783046FCF737FE00B97C
:10B9600083E000224B4801783046FCF745FEE08832
:10B97000B0F5857F3AD0E08858B1E2884649474B18
:10B98000C91AC908022343EA014045A103F05CFB40
:10B990002CE0288801280AD02A883F493F4BC91A41
:10B9A000C908022343EA01404CA103F04DFB68881B
:10B9B00001280BD06A883849384BC91AC9080223B4
:10B9C00043EA014054A103F03FFB0FE0A9880022A5
:10B9D0003046A1DF8046B8F1000F06D101270122D1
:10B9E0005C4801783046FCF707FE00BF1FB9002114
:10B9F000304609F0EDFC38E00027A68804F10A057E
:10BA0000544801783046FCF7E1FD00B92DE00022F2
:10BA1000504801783046FCF7EFFDE08858B1E288E5
:10BA20001D491E4BC91AC908022343EA01401CA143
:10BA300003F00AFB14E0A88801280BD0AA88164955
:10BA4000164BC91AC908022343EA014032A103F088
:10BA5000FBFA05E0A87908B1012000E000200746C4
:10BA60003946304609F0B4FC00BF00BF00BF0022D9
:10BA700039493A480078FCF73BFD00BF08F088FDE3
:10BA800006B0BDE8F081000074630300372D00208C
:10BA9000362D0020392D0020448403003C8403000F
:10BAA000556E657870656374656420474154542011
:10BAB000737461747573207768696C652067657449
:10BAC00074696E6720434152206368617220766119
:10BAD0006C75653A20307825780000004D756C74DF
