:020000040007F3
:10800000588F0020D9830700E1830700E38307002E
:10801000E5830700E7830700E9830700000000000D
:10802000000000000000000000000000C583070001
:10803000ED83070000000000EF830700F1830700D5
:10804000F3830700F3830700F3830700F38307003C
:10805000F3830700F3830700F3830700F38307002C
:10806000F3830700F3830700F3830700F38307001C
:10807000F3830700F3830700F3830700F38307000C
:1080800035970700F3830700F3830700F3830700A6
:10809000F3830700F3830700B1940700F38307001D
:1080A000F3830700F3830700F3830700F3830700DC
:1080B000F3830700F38307000000000000000000C6
:1080C000F3830700F3830700F3830700F3830700BC
:1080D0003D940700F3830700F383070000000000CE
:1080E0000000000000000000000000000000000090
:1080F0000000000000000000000000000000000080
:10810000000000000000000000000000000000006F
:10811000000000000000000000000000000000005F
:10812000000000000000000000000000000000004F
:10813000000000000000000000000000000000003F
:10814000000000000000000000000000000000002F
:10815000000000000000000000000000000000001F
:10816000000000000000000000000000000000000F
:1081700000000000000000000000000000000000FF
:1081800000000000000000000000000000000000EF
:1081900000000000000000000000000000000000DF
:1081A00000000000000000000000000000000000CF
:1081B00000000000000000000000000000000000BF
:1081C00000000000000000000000000000000000AF
:1081D000000000000000000000000000000000009F
:1081E000000000000000000000000000000000008F
:1081F000000000000000000000000000000000007F
:10820000DFF810D000F03AF9004800476DA70700EA
:10821000AFF30080588F002030B450E8012F93B2A4
:10822000C48923448489A34228BF1B1B0489A34219
:1082300002BFBFF32F8F002007E0C3EA020340E82C
:108240000134002CE9D14FF001000A6030BC7047C6
:1082500050E8012FC2EA024240E801210029F7D18B
:10826000704730B450E8022F1FFAA2F3C488A3422B
:1082700002BFBFF32F8F00200DE0C48923448489FF
:10828000A34228BF1B1BC2EA034340E80234002C70
:10829000E8D14FF001000A6030BC704750E8022F6F
:1082A000C2EA224240E802210029F7D17047034682
:1082B00053E8022FD988B2EB324F4FF0000017BFBE
:1082C00092B241EA014142EA014104E05A68B2EB4C
:1082D000324F08BF012043E80212002AE8D170475C
:1082E00030B4044654E8000F0D4644E80053002B18
:1082F000F8D1156030BC704730B4044654E8000F24
:1083000040EA010544E80053002BF7D1156030BC6A
:10831000704730B4044654E8000F00EA010544E811
:108320000053002BF7D1156030BC704730B40446C1
:1083300054E8000F80EA010544E80053002BF7D110
:10834000156030BC704730B4044654E8000F00EBB1
:10835000010544E80053002BF7D1156030BC70478D
:1083600030B4044654E8000FA0EB010544E8005384
:10837000002BF7D1156030BC704770B404464FF045
:10838000000054E8006F0D68AE4207BF44E80023C8
:10839000012044E800630E60002B1CBF0020F0E7C2
:1083A00070BC704730B4044654E8000F88422CBFBC
:1083B000451A054644E80053002BF5D1156030BC42
:1083C000704700001EF0040F0CBFEFF30880EFF3BE
:1083D000098003F0E7BC00000648804706480047D4
:1083E000FEE7FEE7FEE7FEE7FEE7FEE7FEE7FEE765
:1083F000FEE7FEE7B594070001820700202A04DBB0
:10840000203A00FA02F1002070479140C2F12003A7
:1084100020FA03F319439040704740EA01039B0799
:1084200003D009E008C9121F08C0042AFAD203E0E9
:1084300011F8013B00F8013B521EF9D27047D2B24D
:1084400001E000F8012B491EFBD270470022F6E73D
:1084500010B513460A4604461946FFF7F0FF2046BA
:1084600010BD30B504460020034600E05B1C93427B
:1084700003D2E05CCD5C401BF8D030BD064C074D0C
:1084800006E0E06840F0010394E8070098471034E4
:10849000AC42F6D3FFF7B8FE8CDB0700ACDB07007D
:1084A0002DE9F0478AB01446DDF848A055461F462E
:1084B00015F9046B0096804689462B4602462146F4
:1084C00002A800F082FC02A95246084600F079FC9E
:1084D000534602AA4146404600F063FC534602AAB6
:1084E0002146204600F05DFC2B464A463946384678
:1084F000009600F06AFC5246394602A800F061FC82
:1085000002A92B4642460846009600F05EFC02A9EE
:108510002B4622460846009600F057FC2B46424662
:1085200021462046009600F050FC5346224649461C
:10853000484600F036FC2B4602AA414620460096EB
:1085400000F043FC534622463946384600F029FCE9
:108550002B464A4639463846009600F036FC3246ED
:1085600002A9204600F0FBFD0AB0BDE8F08770B517
:1085700014468AB006460D461A46214602A80193C3
:1085800000F01FFC019B02AA3146304600F009FCB6
:1085900002A9019B2246084600F003FC019B02AAA7
:1085A0002946284600F0FDFB0AB070BD8B18104428
:1085B0008B4200D1704713F8012D00F8012DF7E729
:1085C0002DE9F0471F46B3F9023013F11F0448BFED
:1085D00003F13E04DD1D48BF03F10E056611EC10EA
:1085E000944275B228BF14468946294600F06CFAB9
:1085F000224649468046FFF7D9FFB7F90230B3EB70
:10860000C40F4FEAC4021FD2D21A08EB860400211D
:10861000C2F12006A0450ED324372A4641463846EB
:1086200000F05DFA01280FD02B463A464046BDE8DF
:10863000F04700F0A5BD54F8040D20FA02F30B43F7
:10864000236000FA06F1E5E7BDE8F0872DE9F04781
:1086500093F9006092B004468946104631461546AB
:108660001F4600F051FA002840F091803A464946F2
:1086700002A800F0A6FB3B4602AA21460AA800F089
:1086800090FB02A908463A4600F09BFB3B462A466F
:108690004946484600F085FB07F104083A4629465A
:1086A000284600F08EFB43462A4621462046009687
:1086B00000F039FA43462A4629462846009600F03B
:1086C00032FA43462A4621462846009600F07DFBB2
:1086D0003B462A462146204600F063FB434622469D
:1086E00021462846009600F01EFA434600962A4688
:1086F0002146204600F017FA2368DB074AD53346A7
:1087000042462146204600F0B3F9314682462046D3
:1087100000F018FD06F18043013B54F8232042EAA3
:10872000CA7244F823203A462146284600F049FB05
:1087300043460AAA29462846009600F046FB4346CF
:108740000AAA29462846009600F03FFB0AA90846D7
:1087500043462A46009600F038FB3B460AAA2146CB
:10876000204600F01EFB02AA434610462146009612
:1087700000F02BFB32462946204600F0F0FC49462B
:10878000284600F0ECFC02A9484600F0E8FC12B0D4
:10879000BDE8F0873146204600F0D4FCC3E7000076
:1087A00000487047DCDA07002DE9F04F2DED028B11
:1087B000EBB00D46769E03901946B6F9023096F955
:1087C000004013F11F0848BF03F13E0848F3471863
:1087D00008F1FF3B22AB002743F82B706AAB03EB99
:1087E0008B034AA843F8807C43F8607C924696F954
:1087F0000120FFF7DBFE96F9012052A81144FFF794
:10880000D5FE21464AA800F07FF98146002840F0B5
:10881000278152A800F078F90290002840F02281C8
:1088200006F1240942464AA9484600F058F90128B1
:1088300040F01A81424652A9484600F050F90128FA
:10884000049040F011810AAF43464A461AA800F04E
:1088500086F9029B47F82B30524629463846334664
:10886000FFF7AEFE394638464B461AAACDF80080CF
:1088700000F0F9F95AAD4B461AAA4AA912A8CDF848
:10888000008000F0F0F922462846039900F067FCCA
:10889000A3000593039B05EB840A03EB840106F117
:1088A000440B504600F05BFC594632A800F057FCE0
:1088B000A3000BEB03013AA800F051FC331D29463D
:1088C00032AA1AA8009408EE103A00F07EFA534635
:1088D0002A463AA932A80096FFF7E2FD1AA90846EF
:1088E00018EE102A234600F03AF91AAA51462846F3
:1088F0003346FFF73CFE029BCDE9063B039B414616
:108900003846CDE9083500F0FDFB4146834612A804
:1089100000F0F8FB5845B8BF584685B2691E09B249
:108920003846039100F05CFC0399071E12A818BF9B
:10893000012700F055FC002814BF022000200DF193
:10894000180A074322465AF8271022A800F007FC0D
:108950000DF1A80BA3001944584600F000FC1AA81A
:10896000214600F0B1F8049B0360023D22AB2DB21A
:1089700003938246002D26DA18EE102A234651462C
:10898000504600F0ECF80398334652465946FFF73C
:10899000EEFD03994246484600F0A1F8012804D0B4
:1089A00043464A46084600F0EBFB013C64B24AAA43
:1089B00023064AD5029BB3FA83F040096BB0BDECA5
:1089C000028BBDE8F08F33465246D6F8A470039868
:1089D0005946B84729460AA800F002FC2946071E56
:1089E00012A818BF012700F0FBFB002814BF0220CB
:1089F0000020074306AB53F8271019B3224632A8CC
:108A000000F0ADFB059B3AA8194400F0A8FB014615
:108A10003346524632A8FFF7AAFD18EE103A0399E2
:108A2000009432AA42A800F0D0F9039A00965B465F
:108A30003AA932A8FFF734FD334642AA51465046C0
:108A400000F0AFF9013D2DB294E7039B52F82410DA
:108A500053F824304B40029919430291013CA7E797
:108A60003846ABE74846A9E70298A7E700000000B0
:108A7000C3F10803DB0070B501330446002003A5F1
:108A80005B1920C940CAAD1920C4184720C940CA83
:108A9000754120C420C940CA754120C420C940CABC
:108AA000754120C420C940CA754120C420C940CAAC
:108AB000754120C420C940CA754120C420C940CA9C
:108AC000754120C4404170BD002310B51C465AB208
:108AD000914200DC10BD40F823400133F7E710B5A8
:108AE000013A52B2130601D5002010BD50F82240C1
:108AF00051F822309C4205D802F1FF32F2D24FF0F9
:108B0000FF30F2E70120F0E710B500231A465CB20F
:108B1000A14203DCB2FA82F0400910BD50F82340B4
:108B200001332243F3E737B51D469DF91830019311
:108B30000446FFF79DFF019B38B91A462146284697
:108B4000FFF7CDFF0128019B07D02A46214620468A
:108B500003B0BDE8304000F013BB03B030BDF0B54A
:108B60000F46A1B006461946384615461C46FFF783
:108B7000CBFF28B1304621B0BDE8F040FFF7A4BFDD
:108B800022463946684600F0EAFA294608A800F06D
:108B9000E6FA10A82146FFF797FF012318A81093C3
:108BA000FFF792FF224608A96846FFF798FF30B901
:108BB000224610A9304600F0D2FA21B0F0BD009B49
:108BC000DA0709D42146684600F0BCFA2246294655
:108BD00010A800F0E7FBE5E7089BDB0707D4214678
:108BE00008A800F0AFFA2246294618A8F1E70028A5
:108BF00023461CDD08AA6946684600F0C1FA2146F2
:108C0000684600F09FFA224618A910A8FFF767FFF0
:108C1000002805DA10A923462A460846FFF728FF50
:108C200010A9234618AA084600F0AAFACEE76A4619
:108C300008A800F0A5FA214608A800F083FA224609
:108C400010A918A8FFF74BFF002805DA18A923463A
:108C50002A460846FFF70CFF18A9234610AA084623
:108C600000F08EFABFE72DE9F04FB5B004AC9DF9E6
:108C7000F8501F4680462B46204600F0BAF824AB39
:108C800029463846CDE9023400F03CFAC0EB8510A5
:108C900004B2002C2146B8BF04F11F01634203F067
:108CA0001F0341F3471104F01F0614A858BF5E428A
:108CB000FFF70AFF002E08B22BDD14AB002203EBF6
:108CC0008000C6F1200E1346AB4217D36B00019310
:108CD00014AB03EB85096F1E34AB012603EB87074A
:108CE000002C54DA34AB03EB86062A4656F8C81C2F
:108CF000404600F034FA35B0BDE8F08F57F823C095
:108D00000CFA06F10A4340F8042B01332CFA0EF258
:108D1000DAE714AB2A46394603EB800000F01FFA6D
:108D2000D4E70FFA82FE5AF8C83C53F82EB034ABA1
:108D300003EB8202013052F8803C0B44BBEB03038F
:108D400034BF012200229B4518BF11465CF8C82C95
:108D500042F82E30019B42B29A42E2DB731A5E4225
:108D6000294614A85E4100F0EDF934AB03EB85030E
:108D7000294653F8802C57F8803C43EAC27347F8E1
:108D8000803C4846013C00F0DDF924B2A8E734AB52
:108D90000020C6F1010C014603EB860A03EB8C0CA4
:108DA000D8E730B51C4691B0054693F900306846C7
:108DB00000F01FF8D4F8AC3069462846984711B047
:108DC00030BD13460A46FFF7ECBF37B51D469DF987
:108DD00018300193044600F0D3F9019B38B12A46BC
:108DE0002146204603B0BDE83040FFF741BE03B046
:108DF00030BD2DE9F04F08B4F8CA04B451F8042B83
:108E0000A3FB028940F8048B4FF0000AE4FB629A4E
:108E10004FF0000BE5FB62AB4FF0000CE6FB62BCD1
:108E20004FF0000EE7FB62CE51F8042B4FF0000824
:108E3000E3FB628940F8048BE4FB629AE5FB62ABDA
:108E4000E6FB62BCE7FB62CE51F8042B4FF0000852
:108E5000E3FB628940F8048BE4FB629AE5FB62ABBA
:108E6000E6FB62BCE7FB62CE51F8042B4FF0000832
:108E7000E3FB628940F8048BE4FB629AE5FB62AB9A
:108E8000E6FB62BCE7FB62CE51F8042B4FF0000812
:108E9000E3FB628940F8048BE4FB629AE5FB62AB7A
:108EA000E6FB62BCE7FB62CE40F8049B40F804ABF3
:108EB00040F804BB40F804CB40F804EB0CBC052B95
:108EC00000F01E810C68A0F11400A1F11401A2F1C0
:108ED000140252F804EB4FF0000550F8046BE4FB69
:108EE0006E5652F804EB50F8047BE4FB6E6752F8C0
:108EF00004EB50F8048BE4FB6E7852F804EB50F866
:108F0000049BE4FB6E8952F804EB50F804ABE4FBDD
:108F10006E9AA0F1140052F8044B51F804EB4FF094
:108F2000000CE4FB6EC540F804CB51F804EBE4FB05
:108F30006E5640F8045B51F804EBE4FB6E6740F8B2
:108F4000046B51F804EBE4FB6E7840F8047B51F8B5
:108F500004EBE4FB6E8940F8048B51F804EBE4FB6E
:108F60006E9AA0E80006062B00F0CA800C68A0F1FB
:108F70001800A1F11801A2F1180252F804EB4FF009
:108F8000000550F8046BE4FB6E5652F804EB50F801
:108F9000047BE4FB6E6752F804EB50F8048BE4FBAF
:108FA0006E7852F804EB50F8049BE4FB6E8952F89B
:108FB00004EB50F804ABE4FB6E9A52F804EB50F863
:108FC00004BBE4FB6EABA0F1180052F8044B51F85F
:108FD00004EB4FF0000CE4FB6EC540F804CB51F8F5
:108FE00004EBE4FB6E5640F8045B51F804EBE4FB41
:108FF0006E6740F8046B51F804EBE4FB6E7840F8C0
:10900000047B51F804EBE4FB6E8940F8048B51F8C3
:1090100004EBE4FB6E9A40F8049B51F804EBE4FB8C
:109020006EABA0E8000C072B6AD008B40C68A0F166
:109030001C00A1F11C01A2F11C0252F804EB4FF03C
:10904000000550F8046BE4FB6E5652F804EB50F840
:10905000047BE4FB6E6752F804EB50F8048BE4FBEE
:109060006E7852F804EB50F8049BE4FB6E8952F8DA
:1090700004EB50F804ABE4FB6E9A52F804EB50F8A2
:1090800004BBE4FB6EAB52F804EB50F804CBE4FBFA
:109090006EBCA0F11C0052F8044B51F804EB4FF0E9
:1090A0000003E4FB6E3540F8043B51F804EBE4FBAD
:1090B0006E5640F8045B51F804EBE4FB6E6740F831
:1090C000046B51F804EBE4FB6E7840F8047B51F834
:1090D00004EBE4FB6E8940F8048B51F804EBE4FBED
:1090E0006E9A40F8049B51F804EBE4FB6EAB40F839
:1090F00004AB51F804EBE4FB6EBCA0E8001808BC1C
:10910000BDE8F08F013910B549B2041D0A06CBB293
:1091100004D4013954F82120002AF7D001335BB27E
:1091200073B103F18042013A50F82220002022B9A5
:10913000013B00EB431318B210BD52080130F6E7B3
:109140001846F9E700EB81010023884200D37047FD
:1091500051F8042D43EA52030B60D307F5E710B52D
:1091600000235CB2A24200DC10BD51F8234040F85D
:1091700023400133F5E7000000000000000000007C
:10918000C3F10803DB0070B50133002403A500BF61
:109190005B1920C940CAAD1B20C0184720C940CA6E
:1091A000B54120C020C940CAB54120C020C940CA2D
:1091B000B54120C020C940CAB54120C020C940CA1D
:1091C000B54120C020C940CAB54120C020C940CA0D
:1091D000B54120C06441B4FA84F0400970BD00BFBD
:1091E0004A11012350F8220001F01F0103FA01F196
:1091F000084070472DE9F042082288B0FFF7AFFF22
:10920000CB6A03930B6B04934B6B05938B6B0693A9
:10921000CB6B07930C4681460027134669466A4686
:109220006846CDE901770097FFF722FC0823054641
:109230006A4649464846FFF71BFC236B0393636B62
:109240000493A36B0593E36B0544CDE906376A46A7
:10925000082369466846FFF70BFC082305446A4665
:1092600049464846FFF704FC236A0093636A01936A
:10927000A36A0293A36B0693E36B07930544082349
:109280006A4649464846CDE904770397FFF7F0FB65
:10929000636A0093A36AA26B0193E36A0293049248
:1092A000636BE26B0393CDE90523236A07932E18C2
:1092B00008236A4649464846FFF7DAFBE36A00930B
:1092C000236B0193636B0293236A0693A36A07934C
:1092D000351808236A4649464846CDE9047703977E
:1092E000FFF74EFF236B0093636B0193A36B029315
:1092F000E36B0393636A0693E36A07932E1A0823CA
:109300006A4649464846CDE90477FFF739FF636B63
:109310000093A36B0193E36B0293236A0393636A45
:109320000493A36ACDE90537236B0793361A082304
:109330006A4649464846FFF723FFA36B0093E36B59
:10934000CDE90137636A0393A36A0493E36ACDE925
:109350000537636B0793361A08236A464946484621
:10936000FFF70EFF361A0E4C0FD436B908224946C5
:109370002046FFF7B4FB01280FD0082322464946B8
:109380004846FFF7FDFE361AEFE708232246494616
:109390004846FFF76DFB3618F7D408B0BDE8F082F9
:1093A000E0DA070070B5036813F0010605461446BD
:1093B00005D013460A460146FFF75AFB06462146EA
:1093C0002846FFF7BFFE46B104F18042013A55F846
:1093D000223043F0004345F8223070BD2DE9F041C2
:1093E00015468AB004460E461C22002103A8FFF74A
:1093F0002FF82F1D95F9008003232A463146204679
:109400000293FFF7DEFC3B4602AA21462046CDF838
:109410000080FFF7DAFC2B46324621462046FFF754
:10942000C0FCCDF800803B4605F184022146204671
:10943000FFF779FB0AB0BDE8F08100002DE9F041AB
:10944000194E4FF48271D6F8040130B11748C26842
:10945000521CC260304602F03DFB00254FF4A0775D
:1094600007EB85018AB23046B258BAB189B202F030
:1094700031FB0E48103000EB0514204603F080FF4E
:10948000616819B1204603F003FF07E0A16811B13C
:10949000204603F0FDFE206800B180476D1C022DC0
:1094A000DED3BDE8F081000000400240705900208A
:1094B00002F00CBCF0B5904990484FF080550B6815
:1094C000D5F830210078D5F83411541CC0F30310BE
:1094D00006D0944601270026BCF1060F03D00AE00F
:1094E00003F0FF0CF6E7B5F82443DFF814C2C4F329
:1094F0000424CCF80040DCB2062C06D1032804D1A9
:10950000DFF804C27F4CCCF87440541C04D094465D
:10951000BCF1060F03D00AE003F0FF0CF8E7D5F822
:109520004442DFF8E8C1C4F34234CCF80040DCB276
:10953000062C08D1032806D1754CD4F800C02CF0B5
:10954000807CC4F800C0541C04D09446BCF1060FC3
:1095500003D00BE003F0FF0CF8E74FF08044C4F8B1
:109560000C61C4F81061694C241F2660DCB2062C23
:1095700008D1032806D1DFF894C103240CF1640C50
:10958000CCF80040DCB2062C10D103280ED1DFF855
:1095900084C10524CCF800405E4C783427605D4CD3
:1095A000083426600CF104063F243460541C04D0B7
:1095B00016460C46062E03D05BE0DEB20446F9E701
:1095C000E41E012C55D9544C2468544E3460524C3E
:1095D000241D2468361D34604F4C08342468361D21
:1095E00034604D4C0C342468361D34604A4C1034C1
:1095F0002468361D3460484C14342468361D3460A9
:10960000454C18342468454E20363460424C1C3496
:109610002468361D3460404C20342468361D346084
:109620003D4C24342468361D34603B4C2834246877
:10963000361D3460384C2C342468361D3460364C6A
:1096400030342468354E40363460334C343424682A
:10965000361D3460304C38342468361D34602E4C4E
:109660003C342468361D34602B4C40342468361D4D
:109670003460541C03D01646062E02D007E0DEB23A
:10968000FAE7D5F85842264E04F04F043460541CD3
:1096900003D01346062B02D008E0DBB2FAE72148DC
:1096A0000368DB0702D06FF001030360062A07D1CD
:1096B000C91E022904D91C48016841F48061016077
:1096C00013487438016841F470010160BFF34F8F93
:1096D000BFF36F8FD5E94C10062909D1C01E0328AE
:1096E00006D94FF01020D0F8080208491C31086054
:1096F0000F490E480860F0BDE00F00F0E80F00F0E1
:10970000403501400DF0ADBA00C007403C050040B7
:10971000FCED00E0105600400404001020C500409D
:10972000E40E0040000400403C1700400090D003CD
:10973000085A0020034808B5002101600068009025
:1097400008BD00000001014002E008C8121F08C166
:10975000002AFAD170477047002001E001C1121FB2
:10976000002AFBD1704700000121202803DA814044
:109770000548014003E0402802DA2038814009B161
:109780000120704700207047FC06FFBD800701D014
:109790000020704701207047C3688B4206D81144EF
:1097A0000069491E814201D801207047002070479E
:1097B00030B585B00D46164C1621ADF800101ECC04
:1097C0000DF1040C8CE81E00124C022101222170C4
:1097D0006270A0700320E070217159206071FE203A
:1097E000A071694604F109007DDF00280ED1BDF8A3
:1097F00000002A46411CE17109212172BDF80810C0
:109800000844ADF8080001A9034872DF05B030BD77
:1098100090D70700405E0020A859002010B586B000
:109820000624182208496846FEF7F7FD69462046D7
:10983000FFF7BEFF002805D1044C207874DF01211A
:10984000207873DF06B010BDA0D70700A85900200C
:1098500070B5104CA66C656A01F00CFB216B0844D6
:109860006A1A3144814200D10022082300F0B8FE78
:1098700006000DD101F0FEFA0022294600F0F6FBA9
:10988000A16A814203D10121A561C4E907013046E3
:1098900070BD0000D875002002F0C8FB02F0C6FBC6
:1098A0002DE9F84F254C8146924660880E4681424C
:1098B00041D800274FF6FF788DF80070684600F019
:1098C00075F822786078A188884201DA401C00E0AF
:1098D0000020C0B2904204D19DF8000000F08AF848
:1098E00027E065786078884201DA401C00E00020BB
:1098F00060709DF8000000F07DF8454519D0A06823
:10990000B9F1000F40F835A00DD066B16188E0686C
:10991000324605FB01004946FEF77FFDA06800EBDB
:10992000C500868002E000EBC50087800020BDE80E
:10993000F88F0420FBE70920F9E70000E859002030
:1099400010B50E4C03E0401C00E000202070207891
:109950006178814210D022786188E068A36802FBB8
:10996000010003EBC20153F8322089889047207828
:10997000A1888842E9DAE6E710BD0000E859002036
:1099800030B5CB0008339DB293074FF0000401D0EF
:10999000072030BD044B9A602A44DA605C701C706A
:1099A00058809980002030BDE859002030B5EFF391
:1099B000108172B60D4A9468012324B10370002906
:1099C00000D162B630BD93604FF0E023D3F88051F0
:1099D000074C25401560C3F88041D3F8844154609A
:1099E0005A17C3F8842100220270E8E74C7D00205A
:1099F000FC06FFBD0B498A68002A11D000280FD150
:109A0000EFF3108072B60B684FF0E022C2F800311D
:109A10004B68C2F8043100228A60002800D162B687
:109A2000704700004C7D002070B5164E154856F862
:109A3000245F846CB168AC2901D024B111E0406B83
:109A400004442D1A05E001F029FA0446B068AC2858
:109A500007D12A46A4F580410B48FEF702FD0028F5
:109A60000ED02A4621460848FEF7FBFC002807D006
:109A700001F07AF829462046BDE8704001F032BB7B
:109A800070BD0000D87500200080070030B5044686
:109A90002C4995B04FF6FF70488001208DF81200D8
:109AA0004FF65960ADF81000224604A90120A8DF46
:109AB000002844D1244B0FCB8DE80F00A11C684631
:109AC00062DF00283BD120491C2260390BA8FEF739
:109AD000A4FC1E4D142205F1C401A8681290A078C0
:109AE0008DF84A002868139006A8FEF796FC12A885
:109AF000069013A807902088231D06AA0BA9AADFA9
:109B000000281CD11C2205F1D8010BA8FEF785FC0A
:109B1000E8681290A0788DF84A00686813901422C3
:109B200005F1F40106A8FEF778FC12A8069013A828
:109B30000790208804F10C0306AA0BA9AADF15B030
:109B400030BD0000A859002068D8070060D7070082
:109B5000F0B585B0044614216846FEF777FC2078FE
:109B6000032308280BD12748C188491E89B2C18028
:109B70008288002A3ED000293CD1C28023702178FF
:109B8000607860228DF800208DF801108DF80200B9
:109B90006078032101280AD00B2828D100F0CCFCE2
:109BA0008DF80300002000F0CFFC04211FE0207896
:109BB00009281CD2DFE800F01B1B1B201B1B051B08
:109BC0002000D4E902706D46E91C666803F0E2FBF0
:109BD000044629193046C91C03F0DCFB044429194A
:109BE0003846C91C03F0D6FB2044C01CC1B26846ED
:109BF00003F026F805B0F0BDD4E90112684603F081
:109C00000EF8F2E7A85900202DE9F0411349034668
:109C100000208A68D4071ED0114CA3421BD048886C
:109C2000A0F57F43FF3B10D042F004028A6013216D
:109C300076DF00280FD10B4EC8254FF47A47741CED
:109C40003846A0476D1EFAD101E0087874DFBDE800
:109C5000F04101F0D7BFBDE8F0810000A859002015
:109C6000ACDB070070D7070038B5214C0021227A01
:109C7000D20701D0084638BDE0601E4800F020FE43
:109C80000020009001F03AFA88B91B4813DF70B940
:109C900001F0E2FF58B9684601F022FF38B9694681
:109CA000012001F027FF10B9684601F071FF00287C
:109CB000E1D101F00FFB30B1104801F0FFFAA068CC
:109CC00040F00200A06000F055FC0028D3D10B4802
:109CD0001C30FFF7DBFE0028CDD1FFF79FFD0028E9
:109CE000C9D1A06840F00100A060002038BD00008C
:109CF000A8590020B4DB070000800700605E002048
:109D000070B50446011D008800226F4D86B02128E1
:109D10007ED025DC13287CD018DC01287AD01028CE
:109D20005BD011284AD14FF6FF706880287A40072F
:109D300004D4FFF773FD08B1FFF7B0FDE96800290F
:109D40003CD006B00220BDE870400847142878D007
:109D50001A2877D01F2831D16888091D75DF62E085
:109D6000512870D02CDC222828D0232862D0242827
:109D700024D0502822D1554D34F8060FA9888842A6
:109D80001CD1534800F062FD060017D0628904F12F
:109D90000C01FEF742FB18224E496846FEF73DFBD8
:109DA000049601956089ADF81400684601F0DAF96F
:109DB000002803D03146464800F06AFD06B070BD69
:109DC00052287BD0552813D05628F7D1A0790028E7
:109DD000F4D11321688876DF25E008886880E96877
:109DE00009B1012088473B4968887A3975DFE5E782
:109DF000E188F72914D28807B0F1404F11D0C91F6C
:109E000089B2481EC21700EB927222F0030202E0F0
:109E100033E01CE036E0801A081A801D81B200E0B1
:109E2000F7216888B5DF0028C8D006B0BDE87040CB
:109E3000FFF734BD00920192A0880022694690DFAE
:109E400018E034E03AE021E0FFF728FDB6E72148CA
:109E50006A46903842F60521806A009002A8019077
:109E60006888ADDF08B1FFF719FD00231A46852188
:109E700068887FDF0028E7D1A0E70092088869465C
:109E80008FDFF7E70021688866DFCCE7A07900283C
:109E900094D021460D4802F0E1F800288ED006B09B
:109EA00004F10801BDE87040084801F0C9BF002472
:109EB000088822462346214686DFB4E70023088827
:109EC0001A461946B1DFAEE7A85900207C5E002093
:109ED000B4DB0700F0D70700007800F001007047FE
:109EE00013B90378012B01D001F017BB0120704793
:109EF0000022C32100F5187000F0B8B82DE9F04336
:109F0000A1B00446DDE9289520200F462090984610
:109F10001646782102A8FEF799FA41212046FEF75D
:109F200095FAB7F8940006EB061107EB8101B042F1
:109F300001D991F8965025701DB3012D04D0022D42
:109F40000AD0032D13D116E000224946404600F006
:109F50008DF8C4F8010014E020A9601CCDE90001CF
:109F60004B4642460A4902A800F0ACFE48B1002028
:109F700021B0BDE8F083B1F89820601C9A31FEF75B
:109F80004CFA4A464146204601F0C7FAF0E7000085
:109F900088D5070010B500284FF0000006D004490E
:109FA0000870BDE81040034801F0C0B900F01CFA89
:109FB00068590020E9A307002DE9FC410646C007C7
:109FC0004FF000050ED0104F00240122385D00959F
:109FD00000231146019501F00EFD641C042CF4D3FE
:109FE00000F024F8B0070DD5074E0024361D0022DE
:109FF000305D032300951146019501F0FCFC641CC3
:10A00000042CF4D3BDE8FC816CD507000249085C40
:10A01000012101F002BD00006CD507000249085C77
:10A02000002101F0FABC00006CD5070010B5002437
:10A030002046FFF7EBFF641C042CF9D310BD10B5CC
:10A0400043689C18446021B905E013F8010B01F83E
:10A05000010B521EF9D2012010BD00000249CA6B4B
:10A060004260096C81607047D8750020F0B54FF0F0
:10A07000FF3622B11268D24300230A4D0DE032466A
:10A08000FAE7C45C62400824D70700D037462F4067
:10A0900087EA5202641EF7D15B1C8B42F1D3D04396
:10A0A000F0BD00002083B8ED10B504460068401CE8
:10A0B00007D0204602F09AFE2168814201D101209A
:10A0C00010BD002010BD000010B50B4C90B06078A2
:10A0D00000280ED100F05AFE20220849684600F000
:10A0E00075FE40236A460649064800F0ABFD012094
:10A0F000607010B010BD0000D85900202CD50700AA
:10A10000847C0020A0D50700F0B5146906468DB008
:10A1100020681546271DE0B1022920D00A200090B2
:10A120006B4609AA304602F049FD00280FD009A964
:10A1300001A8009A02F038FB01AE96E80F0005AEC8
:10A1400086E80F00236869683A4605A898470DB06D
:10A15000F0BD0DB03046BDE8F04002F099BB694655
:10A16000304602F02BFB0028F1D0236869683A469C
:10A17000684698470028EAD002980028F5D101984F
:10A1800070600120E3E753689B7813F0C00303D0AD
:10A19000402B03D00020704700F002B8FFF7B4BF97
:10A1A0002DE9FF410B465168064614468878334D29
:10A1B00000F00F0210F0300055F8225006D01028A1
:10A1C00006D0202808D0302856D13EE022694DE044
:10A1D00061690120087047E0022B28D1042A26D8A3
:10A1E0004FF0010869463046676902F0E7FA002837
:10A1F0001AD009E00B89226903FB00226846A847B0
:10A2000070B13888401C3880029820B16168388865
:10A210004A899042EED301987060029860BB02E0D8
:10A220004FF00008F7E7404604B0BDE8F081D4E9FC
:10A2300004300F890288498907FB02338A421BD206
:10A24000521C02801A46616810E008886169072A7A
:10A25000088009D1606801892069FEF7F7F8606815
:10A260002169C06802F0C5FA2269616804B030460D
:10A27000AC46BDE8F04160470020D5E7B8DA0700FA
:10A2800070B5204801240168C90301D5811308E095
:10A290001D48016801F0F901A92904D1016801F004
:10A2A000560101600024194D286A012828D14FF475
:10A2B000405017494068884208D123464FF48051E6
:10A2C00005F518706A6BFFF70BFEC8B100F0D2FD00
:10A2D000014623460F48AA69FFF702FE80B14FF0FE
:10A2E000A040D0F81005000C10F0010F08D006486F
:10A2F000001F006800F0F900B12801D0002070BDF7
:10A30000012070BD0004004020050040D8750020E9
:10A31000DBE5B151797800204169002901D0C0689E
:10A320000847704710B5082825D2DFE800F004126E
:10A330002419240424040120FFF73EFE0020FFF727
:10A340006DFE0120FFF76AFEBDE810400220FFF716
:10A350005DBE0020FFF762FE0120FFF757FE05E01B
:10A360000020FFF753FE0120FFF758FEBDE8104024
:10A370000220FFF753BE10BD10B50446801E06280C
:10A3800010D2DFE800F00D03030F09090A494FF46A
:10A39000701000F0EFFA05E00120FFF7FBFD01E08F
:10A3A00000F0ECFF05484168002903D02046BDE8D5
:10A3B0001040084710BD000071A607006859002032
:10A3C00010B50446062801D0072C02D1002001F068
:10A3D0006DF804480168002903D02046BDE810400C
:10A3E000084710BDA4590020BFF34F8F05480168EE
:10A3F000054A01F4E06111430160BFF34F8F00BFD4
:10A40000FDE700000CED00E00400FA052DE9FC4139
:10A4100080461F4615460E4600240D4800F008FAF7
:10A4200038B11120BDE8FC8106EB043001F000FBDF
:10A43000641CAC42F8D1064800F0F7F9CDE90057AA
:10A44000334600220221404600F02AF80020E9E7C6
:10A45000F85900202DE9F843104D0F4680461E465E
:10A4600091466946286800F0B4F9040014D01C2114
:10A47000FDF7ECFF01202071C4F81490380BC4F8EC
:10A480000080C4E902606946286800F0C3F902F060
:10A4900075FB0020BDE8F8830420FBE7E4D8070043
:10A4A0002DE9F04387B00446DDE90E8980681D463A
:10A4B00016460F4600280BD018216846FDF7C6FF48
:10A4C00002A88DF8007080E86003A168684688479C
:10A4D00007B0BDE8F08330B50446006887B00D468C
:10A4E000806800281FD018216846FDF7AFFF01954E
:10A4F000A0680590207910B1012810D107E0012053
:10A500008DF8000020690290E068039005E00220C9
:10A510008DF80000E06800030290606904902068F4
:10A5200081686846884707B030BD0B2803D30B38D5
:10A53000C0B200F009B870470249002208780A70DA
:10A5400070470000C0590020014908700B20704777
:10A55000C059002001490120087070476859002047
:10A560000149012008707047A05900200123723072
:10A5700000F0FCBF0EB59DF8080020F00F00401C55
:10A5800020F0F00010308DF8080068466DDF0028DC
:10A5900019D19DF80100401C8DF8010068466CDF60
:10A5A000002810D10848007A800703D50748011D0C
:10A5B000806901E006A10B2082B202A87CDF00289E
:10A5C00001D106487ADF0EBDA8590020605E002048
:10A5D000536565724466754D6F64650076D70700F4
:10A5E0002DE9F04781461D4616468846494502D169
:10A5F0000020BDE8F087A8EB0900040B06F6FF7009
:10A600004FF0000A070B00F0C3FAA5422AD22C46ED
:10A6100028E0A74202D8BA46354601E0A246250303
:10A6200000225146484600F023FD0028E1D1681E73
:10A6300000F003002A1A002341464846D21C00F0CD
:10A640002DFD0028D5D10948A7EB0A07761B016B21
:10A65000A94429440163A844002000F013FF5FEAE5
:10A66000000AC6D1002ED4D15046C2E7D8750020CA
:10A670000120FFF78FBC00000149416000207047B6
:10A68000B8D8070010B50B4941600B4800F0D0F86E
:10A6900068B901F02DFB08491C234FF4EE720874D1
:10A6A0000448A1F5EE71001F006800F07FF800205B
:10A6B00010BD0000E8D80700447F00200248006871
:10A6C000002800D001207047F85900200248007A85
:10A6D000002800D001207047447F002010B54FF4BF
:10A6E0004051144B4C6800F500509C4204D0426825
:10A6F0009A4201D1012200E000229C4218D1446814
:10A700009C4215D10A78142A01D9496900E0002138
:10A71000094A0378B1FBF2F1142B01D9406900E03A
:10A720000020B0FBF2F0814201D0012200E00022C3
:10A73000104610BDDBE5B15140420F0070B5054633
:10A7400008680C464A6886682846314601F072FF60
:10A750006068286104F10C006861B0780221B1EBF7
:10A76000901F01D1241D2C6170BD000000F0E4F9A0
:10A770004FF48051002000F011F940B90548C0F5B0
:10A78000FC2100F00BF910B9034800F073F901F057
:10A790004DFC00000080070025A3070010B5FDF761
:10A7A00086FD08B1002010BD112010BD10B531B1DB
:10A7B000B2FBF3F403FB14241CB1092010BD0E20DE
:10A7C00010BD01600021416081608281C381084623
:10A7D00010BD70B50C460546FDF71EFD002802D0E1
:10A7E00021882868084470BD10B50A8849888A42C3
:10A7F00003D1FDF753FD012010BD002010BD70B541
:10A800000C460546FDF72DFD002802D0618828681A
:10A81000084470BD10B50A8849888A4203D1FDF703
:10A8200017FD012010BD002010BD002100F003B86D
:10A83000012100F006B808B56A46FDF76AFD0098E8
:10A8400008BD08B56A46FDF757FD08BD38B5044692
:10A8500000258DF800506846FFF7A8F82168626867
:10A86000086890420ED9401E08600178238AE26889
:10A8700001FB0325227A2168101AC0B20A798242AC
:10A8800000D208719DF80000FFF7B4F8284638BDE3
:10A8900038B5054600208DF800000C466846FFF7E5
:10A8A00085F8E868298A201AB0FBF1F12A68106857
:10A8B000431C136001709DF80000FFF79BF838BD42
:10A8C00010B530B1017A42680368891AC9B21A60BA
:10A8D00006E00E2010BD03681A68541C1C6011703D
:10A8E000491EC9B2F7D2006800210171084610BDA7
:10A8F00010B54FF0E0224FF0FF314FF48054C2F812
:10A900008011C2F8801200F005FC2046BDE810401E
:10A91000AFF3008010B504461448C0F5FE2100F0E6
:10A920003DF808B1FEF7BAFF00F0A4FA014610485E
:10A930008069421EC2F30B02801A0144002001F616
:10A94000FF7100F02BF808B1FEF7A8FFD4E9000171
:10A95000002282F3148882F3108882F3118882F334
:10A96000138880F30888BDE810400847008007007E
:10A97000D875002070B5084D04460E46686802F090
:10A98000FFFC002C06D0324621466868BDE87040C6
:10A9900002F0E8BC70BD000070590020F0B50A0557
:10A9A00002D1B0F5FE2F01D90720F0BD134D000BE9
:10A9B000491E124F01222E1D103700EB113407F1F2
:10A9C000040C17E04309C3F1000100EB411E02FA39
:10A9D0000EF106D0012B06D0022B06D0032B08D196
:10A9E00005E0296005E0316003E0396001E0CCF862
:10A9F0000010401CA042E5D90020F0BD0006004038
:10AA000070B5194D0024E86A2435012807D0A5281F
:10AA100008D0AA2809D0AC280AD0002070BDFEF7C3
:10AA200017FF0BE002F02AF907E0FEF7FDFF05E053
:10AA300002F024F908B9FEF7F7FF0124284600F0D8
:10AA40003DFA0A4900200870094800F01BFD08B1D2
:10AA5000032070BD0120002CFBD00349096A0129A5
:10AA6000F7D1022070BD0000D8750020A059002049
:10AA700061A5070070B5284D294900266860274860
:10AA8000C1F80007304600F057FC18BBFFF7B8FFCD
:10AA900020B101281BD0022835D105E04FF47014F5
:10AAA000FFF7EEFB10B92BE04FF4A02400F070F894
:10AAB0001C4A20211820FEF763FF08B1FEF7EEFEC6
:10AAC0001948016801F0F901B12904D007E001201B
:10AAD000FFF760FA17E0016801F04E01016000F035
:10AAE000FFFA80B911492046FFF744FF104800F0F3
:10AAF000E1FA40B900F038F8FEF722FF41DFF9E74C
:10AB000000F0C2FB08B1032070BD2E70094800F0B0
:10AB10000DFCFFF7EDFEF6E7685900200C0003007E
:10AB200040000050205A00201C05004071A607007C
:10AB300079A3070055A5070010B540F6F870016825
:10AB4000491C02D1074900F08BFF40F6FC700168F8
:10AB5000491C05D1BDE810404FF4FC2100F080BF36
:10AB600010BD00000080070010B501F061F9002859
:10AB700003D0BDE8104002F06BBC10BD034A9368DF
:10AB80000A4601469860184602F0ECBB7059002056
:10AB900070B50E4D2878002817D101F049F901262B
:10ABA00090B10B480468A4F54864962C00DA96240A
:10ABB00002F04EFC07492046FFF7E0FF4FF0E0218E
:10ABC0004FF48030C1F800012E7070BDA1590020F3
:10ABD000040501408DD4070040688068004710B527
:10ABE00042680830527900F0F1F8002010BD2DE9DC
:10ABF000F04399B01C4690460D460846DDF880901B
:10AC0000FFF7EAFF6E6807467079A04200D8044655
:10AC10002246414611A800F015F97279494601A86B
:10AC200000F0D4F801AB224611A905F10800009705
:10AC3000FDF7BAFD18B1002019B0BDE8F08348F265
:10AC40004250F9E770B516460C46054600F0E2F8AA
:10AC500000280ED1AA791946304600F0E8F80028FD
:10AC600007D131462046FFF7BAFF002801D101493C
:10AC7000216070BD7052464D2DE9F8430C46DDE968
:10AC800008578146984616460D49204600F0B6F80A
:10AC9000002810D16068394640794200284600F00B
:10ACA000C6F8002807D146B14346324621464846F9
:10ACB0000095FFF79CFFBDE8F88348F21050FAE7D3
:10ACC0007052464D2DE9F0411D46DDE906871646D6
:10ACD000044600F02DF800280DD12A4631462046C2
:10ACE00000F03CF8002806D13A4641462046BDE82F
:10ACF000F04100F002B8BDE8F08170B515460E468F
:10AD0000044602F095FB002807D13EB1606829682F
:10AD1000C268914205D248F2145070BD48F21350F7
:10AD200070BD83682A4631462046BDE8704018470A
:10AD300010B550B161B141600968044688470028E8
:10AD400002D105482060002010BD48F2015010BD1E
:10AD500048F2105010BD00006E52464870B51546BE
:10AD60000E46044602F064FB00280BD146B155B1F3
:10AD700060682A46314643682046BDE8704018475F
:10AD800048F2105070BD002070BD00002DE9F04168
:10AD90000B480C4D0C4F401BC60801203870002496
:10ADA00006E000BF55F834008047002805D1641C38
:10ADB000B442F7D3022038700020BDE8F0810000D3
:10ADC0000000000000000000A259002070B51446E9
:10ADD0000D46064600F036F8291930192246BDE81E
:10ADE000704000F02FB830B50C46054600F035F83D
:10ADF00028192146BDE8304000F02FB828B100687E
:10AE0000884205D048F24050704748F210507047D1
:10AE10000020704728B139B10022C1E90020104656
:10AE2000704748F21050704748F21350704720B1F5
:10AE3000914205D048F21150704748F210507047C7
:10AE4000002070470244521E04E000BF11F8013B8D
:10AE500002F801398242F9D270470144491E05E0E7
:10AE600002780B7800F8013B01F801298142F7D202
:10AE7000704700004FF44050074A4168914207D1A3
:10AE80008068411EC1F30B01401A00F6FF70704745
:10AE90004FF4805070470000DBE5B15100B5FFF77B
:10AEA000E9FF054989690A18401E0844C0F30B00F0
:10AEB000101A00F6FF7000BDD87500200021016057
:10AEC000416081600148016370470000D87500202F
:10AED0002DE9F0419846214F16460C4605460023C1
:10AEE00001215BB1012B11D0022B1ED00020381A9A
:10AEF000A0F54050A8421BD201221AE0FFF7CEFF76
:10AF00008EB11749096A0129F1D00CE0FFF7B2FFB1
:10AF1000B8F1000F05D14FF44051124A49689142EF
:10AF200001D00121E3E70021E1E74FF48050DEE7A3
:10AF3000002242EA0400884305D0022B03D25B1CA6
:10AF4000DBB2022BCCD912B10420BDE8F0811BB1D9
:10AF500003481830FFF7B2FF0020F6E70080070033
:10AF6000D8750020DBE5B15170B50446007809289A
:10AF700011D2DFE800F01005101125103810130071
:10AF80000D461D490320C9688847606900F056FBDB
:10AF9000FFF7CBFA687070BD084628E00D46A18A1D
:10AFA000206900F027FBFFF7C0FA68702846FFF71A
:10AFB00055F8E1680029EED02069BDE870400847E7
:10AFC0000C460D490831081F00F052FBFFF7ADFA9F
:10AFD00060700128DFD1002000F054FA0028DAD098
:10AFE0000A20607070BD08464FF40071C160BDE872
:10AFF0007040FFF733B80000C459002070B51A4AFA
:10B0000005780124936C092D2CD2DFE805F02B057F
:10B010002B0B0F2B252B080000F04CFF22E000F03B
:10B02000BFFF1FE08B60106D48601BE0D2E9145435
:10B03000566C2C1BA64203D008204870012411E056
:10B040000024556554642146D36400F06DFF074920
:10B050000420C968884705E08B60106D48604FF494
:10B060008050C860204670BDD8750020C4590020AB
:10B0700013460A460146014800F0F0BB0C5A002076
:10B0800008B1034900E003490022034800F0FCBB7B
:10B09000F4D80700C4D807000C5A002008B5009364
:10B0A00013460A460146024800F086FC08BD00002F
:10B0B0000C5A0020084910B508600020FFF780F9FD
:10B0C000064800F00DFA002804D1BDE810400348FE
:10B0D00000F026B810BD0000A4590020C1A307004D
:10B0E000002070471FB58908002201AB009283E859
:10B0F0000700684618DF04B010BD00001FB5044B00
:10B100000FCB8DE80F00684618DF04B010BD0000BB
:10B1100078D807004FF48050410408600020704741
:10B1200010B5040011D00120FFF7AAFF00280BD1B1
:10B1300000F04EFA00F0DEFA48B10949081F00F0AD
:10B1400097FA012803D0032010BD072010BD044842
:10B150000838C4600020FFF7F7F9002010BD000098
:10B16000CC590020816819B1024A1821FEF798BB1A
:10B170000720704779B10700AFF3008030B587B082
:10B18000044618221F496846FDF747F920788DF8D4
:10B19000000022781C4D0D2A25D2DFE802F0240B96
:10B1A000270B0B240B240B2424240700E968072019
:10B1B00088471BE020466946062A01D0012A01D1B2
:10B1C000027C2A702A78012A05D0022A06D00020A3
:10B1D0002870052008E0FFF7C7FE07E0FFF70EFF25
:10B1E00020B907B030BD02208DF80100D4E901126A
:10B1F000684690479DF801000128F2D0E9680520D3
:10B200008847EEE7A0D80700C459002038B10549A7
:10B2100001600549416001210172002070470E2044
:10B22000704700002DB2070065B2070010B50C0092
:10B2300001464FF0110007D02278052A05D2DFE839
:10B2400002F00F050D0F0F000E2010BD084600F094
:10B2500051F80028F9D10221217010BD112010BD34
:10B26000082010BD0246082041B10B78022B04D102
:10B27000022A05D0032A00D1112070470E20704702
:10B28000002003220A70704770B50B480024D0F8E4
:10B290002413491C03D1D0F86403401C09D04FF497
:10B2A000FE25284600F0C4FBC9220349284600F0C9
:10B2B000EFFB204670BD0000D875002010B528B106
:10B2C0001C220349FDF7A9F8002010BD0E2010BD77
:10B2D00064F3070010B5064C00221821201DFEF76C
:10B2E000C5FE2168814201D1012010BD002010BDA2
:10B2F00064F3070070B50C4D0400D5F8640305F540
:10B30000597503D0401C03D0082070BD0E2070BDBD
:10B3100000221821201DFEF7A9FE206007222146E9
:10B32000284629DF70BD000000F00700014901F048
:10B3300053BD000000F0070010B5FFF7A1FE30B9C3
:10B3400000F01CF8002000F09DF8002800D0032039
:10B3500010BD000010B5FF224FF400710648FDF744
:10B360006EF8054820212438FDF770F802490020C6
:10B370005C39086310BD0000347600202DE9F047E9
:10B380002E48FEF791FE2E4E074634682046FEF703
:10B390008BFE4FF0010A4FF0000958B16068012898
:10B3A00006D02046FEF7A4FDD4F85C12884201D1F5
:10B3B000012500E00025234C4FF002084FF4607196
:10B3C0009FB10A461D492046FDF727F89DB1366812
:10B3D00025465422311D281DFDF71FF84FF4327207
:10B3E00006F15C0105F15C0003E015B30A4615485F
:10B3F0003168FDF712F86068012818D1124940221F
:10B4000001F5E470FDF709F80F491C22403101F500
:10B41000E470FDF702F884F8609284F8A1A20B486A
:10B4200084F8E292E169C0F82210C4F80480BDE813
:10B43000F0870448FDF70AF8F7E7000000F007007E
:10B44000D4590020D8750020347700205878002087
:10B4500070B50546094801F0C9FC084C206020463B
:10B46000FEF746FDC4F85C02A4F5E0632A462146D7
:10B47000BDE87040024801F0BEBC0000D875002055
:10B4800000F0070070B505460020FFF7E1FF04005B
:10B4900003D10349284601F09FFC204670BD0000FF
:10B4A000D87500204FF48050704700002DE9F0411E
:10B4B00007460948094D401BC6080020044607E01E
:10B4C00005EBC400416838468847002802D1641C57
:10B4D000B442F5D3BDE8F081B4DB0700ACDB070074
:10B4E0002DE9F04107460948094D401BC6080020D8
:10B4F000044606E055F8341038468847002802D143
:10B50000641CB442F6D3BDE8F0810000B4DB070050
:10B51000ACDB0700012201F0E9B938B51446027826
:10B520000B467AB1012A04D0022A0DD0032A1BD17E
:10B5300012E0D0F80150002221461846FEF796FD91
:10B54000A84211D1012038BD01B02246BDE83040EB
:10B550000023401C00F00AB8411C40220020009447
:10B5600000F0F2F80128EED0002038BD2DE9F041BE
:10B57000AAB005462020884628901E46174601247A
:10B58000782102A8FCF762FFFEF79EFD2EB1202273
:10B59000294620A8FFF756FC20AD28A90A48CDE986
:10B5A00000013B464246094902A8FFF78BFB28B938
:10B5B000202229460448FCF754FF00B100242AB099
:10B5C0002046BDE8F08100002C7D002088D50700D2
:10B5D00010B50648064C806B20B101F0F5FD08B1AE
:10B5E000012000E00020207010BD0000D875002070
:10B5F000D85900202DE9F0410F4C07460D46E06B6D
:10B60000A26B01264119914201D9032610E00A4993
:10B610002A465C3108443946FCF7FFFEE06B064AD7
:10B620002844E063403229463846FEF71FFD206477
:10B630003046BDE8F0810000D875002070B50400E8
:10B640004FF0010504D0B4F5007F03D9042508E0CC
:10B65000032506E0044900200870FFF77BFE03483D
:10B660008463284670BD0000D8590020D87500209A
:10B670002DE9F04106461D480F46C16B806B8142A3
:10B6800001D008242FE01A4D287840B1FFF706FCBE
:10B6900030603946E86801F09FFE044623E001F07F
:10B6A00093FDF8B100F02CF80446002030603860BB
:10B6B000012C0FD13946E86801F08EFE04460128BE
:10B6C00008D13868012700213B460A46FFF700FCF5
:10B6D00018B10424FFF73EFE05E0FFF7DFFB306002
:10B6E0002F7000E005242046BDE8F081D8750020C9
:10B6F000D85900200148007870470000D859002030
:10B7000038B50F4C251D002094F86C3101460246D7
:10B710003BB194F8D802B4F8DA2204F5B87504F510
:10B720003771084B9C6800945B6800F00DF80128A5
:10B7300004D1281DBDE8384000F050B838BD0000E5
:10B7400058790020D85900202DE9F041A2B00646D2
:10B7500020200D4620901F461446DDF8A080782159
:10B7600002A8FCF773FE00202190FEF7ADFC25B186
:10B770002EB1162022B0BDE8F0811320FAE720A9EF
:10B780001448CDE9000143463A46134902A8FFF7A1
:10B7900099FA08B9402C01D00A20EBE70D4822465F
:10B7A00029464038FCF739FE0A4820214038FFF787
:10B7B0001AFB084840214038CDE90001A0F14801BA
:10B7C000044A21A8209BFFF757FA08B10520D1E7CA
:10B7D0000120CFE70C7D002088D5070070B5044616
:10B7E00090F85400012570B394F8550028B1012851
:10B7F00003D0022801D003282AD194F86E00032830
:10B8000001D0142525E0207AE8B1E068342801D081
:10B8100011251EE0204601F07DFA68B1207898B12C
:10B8200094F855100C4849B1012907D06168C068E7
:10B8300081420ED810250CE012250AE0616880686C
:10B84000814206D2F6E703E094F85500012800D0C3
:10B850000F25284670BD0000D87500202DE9F04165
:10B860000446406815461E4602680F466A43204655
:10B87000FDF792FF206833462A46D0F810C03946BB
:10B880002046BDE8F041604701600B68114618474B
:10B890002DE9F04128B1016819B1C969BDE8F0414D
:10B8A00008470D4D0D480024461B14270DE000BF2E
:10B8B00004EB840005EB8000016829B1C969884761
:10B8C00010B10120BDE8F081641CB6FBF7F0A04286
:10B8D000EED80020F6E700000C5A0020205A002085
:10B8E000044801214174007A08B10020704701200A
:10B8F00070470000447F0020012801D0032808D1B0
:10B900000449002201284A7400D00020087401F084
:10B91000E7B87047447F002070B50146022801D087
:10B92000032943D1224C207A00283FD0012831D06E
:10B9300002282FD11F4800230229006802D00329C2
:10B9400028D119E0E360027912B1012A22D10BE07B
:10B95000D0E90565721B142A00D314222A4482619F
:10B960004569AA420ED015E00169491C016142698E
:10B9700091420FD1237213E0E268521CE260082A60
:10B9800008D9E360237202290AD00D21FEF7A3FD36
:10B9900001F09CF8607C28B1BDE8704000F0AEB9C1
:10B9A0000021F3E7BDE8704001F09AB870BD0000D7
:10B9B000447F0020FC5900202DE9F84304461D4631
:10B9C00016460F460846DDF82080FDF7DFFE3046BC
:10B9D000FDF7DCFE2A4639462046FDF7DDFECDF8B0
:10B9E000008020682B463246D0F80CC039462046ED
:10B9F000E047BDE8F88370B541EA4201DDE904564D
:10BA00004FF0A04441EA830141EA052104EB8000A4
:10BA100041EA0641C0F8001770BD01224FF0A04373
:10BA2000824011B1C3F808257047C3F80C25704750
:10BA3000094902220A60BFF36F8FBFF34F8F0A1DBF
:10BA4000106006480268002AFCD000200860BFF39E
:10BA50006F8FBFF34F8F704704E5014000E4014052
:10BA6000094A01231360BFF36F8FBFF34F8F01604B
:10BA7000064801680029FCD000201060BFF36F8FDA
:10BA8000BFF34F8F7047000004E5014000E4014020
:10BA900070B50E4C01232360BFF36F8FBFF34F8F40
:10BAA00000230B4D08E000BF51F8236040F82360ED
:10BAB0002E68002EFCD05B1C9342F5D30020206042
:10BAC000BFF36F8FBFF34F8F70BD000004E50140DF
:10BAD00000E4014008B5002242504058009008BDE3
:10BAE00020B1034909680160002070470E207047AB
:10BAF0008CDA0700FEB506460D460846FFF7F0FF54
:10BB0000002844D1002400940194012706208DF8D8
:10BB10000060ADF8040002948DF8027069462020A0
:10BB20002A6869DF00948DF801708DF80240019455
:10BB300002948DF80340694640202A6869DF00942A
:10BB40008DF80060F720ADF8020001940294694678
:10BB500023202A6869DF0094019402948DF8007014
:10BB6000694601202A6869DF4FF4B06000900194B3
:10BB700002946946A1202A6869DF00940194029426
:10BB80008DF800406946A0202A6869DF0020FEBDCC
:10BB900060DF002802D1024A0121117070470000C5
:10BBA000075A002030B51548ADF5017D0078002812
:10BBB00021D04FF4FA7500BFADF8005280A9684655
:10BBC00061DF38B1052816D00DF5017DBDE83040A4
:10BBD000FDF764BE6C460A497DA800F0BBF806E09C
:10BBE000D0E90021204690477DA800F0CAF87F9850
:10BBF0000028E1D0F4E70DF5017D30BD075A0020A3
:10BC000090DA0700F8B5134C2078C0B10120A0707D
:10BC100001F0B4F8112814D0022001F0C7F8002573
:10BC20008DF800506846FDF7C1FE11DF064625700D
:10BC30009DF80000FDF7DEFE2EB13046F8BD08206D
:10BC4000F8BD0020F8BDA57001F072FA032001F0E4
:10BC5000ADF8F6E7045A00207CB5194C207808B1FD
:10BC600008207CBD0120A070002001F087F8112879
:10BC700019D0002001F09AF81248002600680190BF
:10BC80008DF800606846FDF791FE0F4901A810DFAE
:10BC900005000AD0002020709DF80000FDF7AAFEE4
:10BCA0002DB128467CBD00207CBD0120F3E7A670A5
:10BCB000667001F05DFA012001F078F8F3E700000A
:10BCC000045A002024DA0700999807000EB50749A6
:10BCD000684600F03FF805E0D0E900108847684664
:10BCE00000F04FF802980028F6D10EBD40DA0700A8
:10BCF0000148007870470000045A00200548817808
:10BD000019B1007818B1FFF77DBF08207047FFF721
:10BD1000A3BF0000045A00201FB568464BDF30B1B6
:10BD2000052814D004B0BDE81040FDF7B7BD0849A0
:10BD300001A800F00FF806E0D0E900210098904734
:10BD400001A800F01EF803980028E6D0F4E71FBD14
:10BD5000ACDA0700016009684160AFF3008010B5FC
:10BD6000D0E900215368994201D1002104E0D1E9D2
:10BD70000034A34202D01946816010BD08314160F1
:10BD8000F0E7816800290BD0026892680A4482605B
:10BD900041684B689A4203D108314160FFF7DFBF29
:10BDA000704700002DE9F04104461348134BC01AB8
:10BDB0000C21B0FBF1F6A0694FF0FF3110F8022C16
:10BDC00002B92169002011E000EB400503EB850575
:10BDD0002F68974209D14F1C02D06F688F4204D15F
:10BDE00094E80F00AD68A84703E0401CB042EBD3D5
:10BDF00001202060BDE8F08104DC0700F8DB0700CB
:10BE000010B5144612680830202A02D248F21450A5
:10BE100010BD002201F017F80028F9D12020206081
:10BE2000002010BD083001F097B8083001F056B975
:10BE300002480068002800D001207047000401403B
:10BE400030B587B00C460546182217496846FCF7FE
:10BE5000E4FA217B15488DF800100195012906D0E0
:10BE6000022917D0062919D1607B049016E0818839
:10BE7000C180607B0490217CE08961F31F40617C7C
:10BE800040EA016005900498012807D10848FFF7AF
:10BE90000DFB03E0B4F80D108180C1806846FFF708
:10BEA00061F907B030BD0000C8D70700A8590020CD
:10BEB000ACDB07002DE9F0410C460546FFF71AFC04
:10BEC0000826B8B16969032041B3154A154B0F051F
:10BED00005D0576DD3F808C00F4467451ED1B1F5A2
:10BEE000805F01D9042019E0506DD3F808C04718CD
:10BEF000674502D96670BDE8F0815164D16C106568
:10BF00009164106369695A6801F6FF711044090B66
:10BF10000022FFF7ADF80028EDD005206070EAE7B9
:10BF2000D8750020C459002010B5044686B0002002
:10BF3000FFF7AEFC30B1154A18212046FDF7B0FCE2
:10BF400006B010BD182212496846FCF766FA11487F
:10BF5000026D114881688A4210D14068FFF7DAFA11
:10BF60008DF80100FEF7E1FA8DF80100D4E9011225
:10BF7000684690470948FFF785FAE1E701208DF808
:10BF80000100D4E9011268469047D9E729BF0700AC
:10BF900088D80700D8750020C459002021C00700A8
:10BFA0002DE9F0410E460446FFF7A4FB60B11A4D9F
:10BFB000D5E91401401AA18A6A6C0844904205D957
:10BFC00003207070BDE8F0810820FAE7134A286B5F
:10BFD00052688718104A20694832FEF747F8D4E9BA
:10BFE00003318046A28A3846FFF758F820B1D4E9D9
:10BFF0000310BDE8F0410847A18A286B0844286374
:10C00000A18A286DC5F8488008442865C6F80880CC
:10C01000286D7060D6E70000D8750020C459002054
:10C0200001490620C9680847C4590020BFF34F8F53
:10C0300005480168054A01F4E06111430160BFF35E
:10C040004F8F00BFFDE700000CED00E00400FA0593
:10C0500001460148FEF71CBCB4DB070030B58A1D61
:10C060008B79083187B0022B33D153888489A3425E
:10C070002FD1127A012A2CD1184C0DF1040C3CCC92
:10C080008CE83C000A89ADF80C204A890C310491F7
:10C090001249ADF80E208039114C096A0591CDF88E
:10C0A00018D0018A05AA6088ADDF18B96846FDF787
:10C0B00013FF38B10020ADF8080001A96088B0DF97
:10C0C00050B106E040F2FD10ADF8080001A960880B
:10C0D000B0DF002007B030BD0120FBE7E0D707004C
:10C0E000A8590020F8B50D4614460646694600F0EA
:10C0F0005DFA00280FD0009BB3F5803F0AD2981C50
:10C10000834207D8A9780222B2EB911F02D0298975
:10C11000814201D20020F8BD2380A11C3046009A44
:10C1200000F07AFBF8BD114600F0D5B8114600F0DA
:10C13000E7B8F8B50C4615460646694600F036FAEB
:10C1400000280CD0009A501C904207D3A1780223FB
:10C15000B3EB911F02D02189814201D20020F8BDAA
:10C160002946304600F058FB009A0021A954F8BD3A
:10C170002DE9FF410C46CE6817460546694600F09A
:10C180001DFB00280ED0E06800280BD0A0783A46AE
:10C19000C0F3011002283146684606D000F0DEF8F0
:10C1A0000199696004B0BDE8F08100F085F8F7E717
:10C1B0007CB50D461446694600F095F9002820D05C
:10C1C0002889082806D0042809D002280AD0012886
:10C1D0000CD015E0DDE90001C4E900010AE0009897
:10C1E000206006E0009800B2208002E0009840B293
:10C1F0002070C117DDE9002350405940084301D0A9
:10C2000000207CBD01207CBD7CB50D4614466946EE
:10C2100000F0A7F9002820D02889082807D000219D
:10C22000042809D002280AD001280CD014E0DDE946
:10C230000001C4E9000109E00098206006E00098D0
:10C2400080B2208002E00098C0B22070DDE90023B7
:10C2500050405940084301D000207CBD01207CBDE6
:10C260007CB50D461446694600F07BF9002820D0C5
:10C270002889082808D00099CA1704280BD002285A
:10C280000CD001280DD013E0DDE90012C4E9001242
:10C290000846134608E00846216004E008B2208002
:10C2A00001E048B22070C31748405340184301D002
:10C2B00000207CBD01207CBD70B50D4606461446AD
:10C2C0001146284600F095FA224629463046BDE838
:10C2D000704000F043B838B50C460422694600F0BF
:10C2E0009BFA00280BD09DF80210BDF8000061F306
:10C2F0001F409DF8031040EA01602060012038BD16
:10C300001CB50C460822694600F086FA002824D0A5
:10C310009DF801109DF800209DF80230080E42EAB9
:10C32000012242EA034240EA13409DF803309DF89F
:10C33000041040EA132008439DF8051042EA036206
:10C3400040EA01209DF8061040EA01409DF80710E0
:10C3500040EA0160C4E9002001201CBD2DE9F04F36
:10C3600005469DB000200F90064610904FF0FF3A12
:10C3700001A800F05FF94FF0010B0DF13C0983E0DB
:10C3800012AB6A460BA9284600F0CAF850B101A8C2
:10C39000009900F060F960B10298807810F0300FD9
:10C3A00054D061E09DF84800002871D11DB0BDE86F
:10C3B000F08F0098B04243D3029C01AE029880787F
:10C3C00000F00F00082812D0304600F05BF9029808
:10C3D000A042F3D156460098B04231D3D5F8088038
:10C3E00007909DF82C000E900598046821E00298B3
:10C3F0000688F0E7206807682FB1214628460E9B83
:10C40000079AB84712E01195216807980E9F89682E
:10C41000098881420CD1214617A8FEF78FF984F8CC
:10C420000CB017AA39461198FDF7ADFE0028BDD013
:10C43000A46814B1A9684145DCD0A968414523D15D
:10C440009DF82C10284600F023FA1BE003984028A2
:10C450000AD200F01F000BFA00F20398400959F8C5
:10C460002030134349F82030EC682CB101AB9DF823
:10C470002C2028460099A04701AA9DF82C10284698
:10C48000FDF781FE002891D0A86800287FF478AFDE
:10C49000DDE90204857801A800F0F4F80028F7D15E
:10C4A00015F0300F03D10298008800B1641CC4B1AC
:10C4B0000020494605E000BF51F82020521C0ED153
:10C4C000401CB0EB541FF7D3600959F8201004F05A
:10C4D0001F00C0F120022AFA02F0814201D00020A0
:10C4E00064E7012062E71CB50C46694600F039F8A4
:10C4F000002814D0DDE90002C10709D051084FEA35
:10C5000030006FEA00026FEA0100C4E9002004E095
:10C5100051084FEA3000C4E900014FF001001CBD92
:10C52000F8B507460020187008700E4610601C46CB
:10C5300015466946384600F039F801004FF0010011
:10C5400009D0009959B1C8082860009800F0070088
:10C5500030700120F8BDB96809B10020F8BD207025
:10C56000FBE72DE9F84300268846814634463546E8
:10C5700004E0402E02D30020BDE8F8836946484617
:10C5800000F076F90028F7D09DF80070324607F0E9
:10C590007F00C10FFBF732FF29430443F61D0D4610
:10C5A0003806E6D4C8E900410120E5E7F8B50E46B3
:10C5B0000746694600F05CF900280AD09DF8004063
:10C5C000200616D5072504F07F0403E0202D01D3B3
:10C5D0000020F8BD6946384600F04AF90028F8D036
:10C5E0009DF8001001F07F00A8400443ED1D0806EF
:10C5F000ECD401203460F8BD10B559680B4AC96805
:10C60000914212D10A4AD0E90110D2E90134234300
:10C6100001D0002008E011F8013BA0F101001B0649
:10C62000F9D4C2E901100120907010BD10D60700A6
:10C63000D8590020C26000230160C0E901138B8833
:10C640001A440261B1F906301A4442610888002890
:10C6500000D00120704770B545680E4604466068FA
:10C660000188B14206D1807800F00F00082801D07F
:10C67000012070BD204600F005F86068A842EED1A8
:10C68000002070BD30B541680A885AB101F110032D
:10C6900043600A8A42B18C780A89C4F30115032DDC
:10C6A00007D00BE0002030BDC2680168FFF7C2FF71
:10C6B000F8E79D78C5F30115032D06D00225B5EBEB
:10C6C000141F08D14C89624309E08D880469002257
:10C6D000641B046103E0B5EB941F00D10422897848
:10C6E00011F0300F02D18168491C81609C8801697A
:10C6F000214411440161B3F9062011444161012034
:10C7000030BD30B54168002487B0897801F00F0250
:10C71000082A11D08A091ED00222B2EB911F09D13A
:10C720000269C1F301110229146001D0032901D16A
:10C730004069048007B030BD0069056808E02C73CB
:10C7400029466846FDF7FAFF6846FFF7DAFFAD684D
:10C75000002DF4D1EEE7C1F30111012912D0022915
:10C76000E6D00329E4D04268917801F00F0107294F
:10C770000BD0D16881B11289006907B0BDE83040A3
:10C78000FBF74BBE41690C70EDE70169D06807B05B
:10C79000BDE8304000F02DB81189006907B0BDE850
:10C7A0003040FBF753BE000010B5034B002408C017
:10C7B00080E8160010BD00003FA0070038B50D4608
:10C7C00004466946FFF7F2FE00280BD0D4E90002C8
:10C7D000D4E90213C5E90002C5E9021300988142B9
:10C7E00001D2002038BDA860A168081AA06001200D
:10C7F00038BD00B50A4687B001466846FFF71AFF04
:10C80000002807D06846FFF77CFF6846FFF73AFF2D
:10C810000028F7D107B000BD7FB514460546A9B979
:10C82000124A2868904208D110E010226946284632
:10C83000FFF7F2FF002807D0103C102CF5D8224655
:10C8400069462846FFF7E8FF04B070BDA868A0421B
:10C8500001D20020F8E72B68224628469847002896
:10C86000F2D0A868001BA8600120EDE73FA00700F8
:10C8700010B504468068002809D0236801222046AC
:10C880009847002803D0A068401EA060012010BD7A
:10C8900038B5002439B1012912D0022912D0052956
:10C8A0001DD0002038BD0546012269462846FFF705
:10C8B000B3FF90B19DF800000006F5D4012038BD0B
:10C8C00008220DE005466946FFF770FE28B10021F9
:10C8D0002846009AFFF7A0FF38BD204638BD042245
:10C8E000BDE838400021FFF797BF00002DE9F04F69
:10C8F00081462C4817460E46C5680A4693B0012467
:10C9000049462846FDF732FEDFF89C80A24670B10A
:10C9100095F8550068B100F00101C0F340024B46A4
:10C920002846CDE9006700F043F8D8B11BE0172492
:10C9300019E0CDE9006A4B460022294602A8FDF71E
:10C94000DDFA4FF0000B68B10FB3412202A917487E
:10C95000FBF763FDC8F820B0C8F82CA06968C8F8D8
:10C96000081017E005246FB1012C13D00E482430B5
:10C97000FEF7A4FAFEF7EEFCC8F8489013B0204684
:10C98000BDE8F08F012C02D0FEF7E4FCF6E7C8F812
:10C9900014A0F3E7002231464846FDF767FBC8E9DB
:10C9A0000960E7E7D8590020D87500207978002081
:10C9B0002DE9F047A4B08946DDE92C5A0446984693
:10C9C0001646442102A8FBF741FD442113A8FBF7BA
:10C9D0003DFD4746B9F1000F38D008F50050384A00
:10C9E0004368A16D934255D14B1EC3F30B03C91A83
:10C9F00041F6FF73D0F808C019448C454AD34FF470
:10CA000040514B6893420DD10A78102A01D9096927
:10CA100000E000210278102A01D9006900E000201E
:10CA2000814237D14046FDF759FE00B18EB3012156
:10CA3000A06DCDE9000143460022214602A8FDF782
:10CA40005DFA002827D0A06D07442D1A56B10020AA
:10CA5000CDE900503B464A46214613A8FDF74EFA61
:10CA6000002818D0BAF1000F28D0164DB9F1000FE8
:10CA700019D04046FDF732FE18B105F11800FEF757
:10CA80001DFA412202A91048FBF7C7FC36B1AC20C1
:10CA900005E0FFE7002024B0BDE8F087A520E862AC
:10CAA000A06D686301E0AA20E8623EB10648412219
:10CAB00013A98230FBF7B1FC6068E8600120EAE767
:10CAC000DBE5B151D87500203878002003480249D1
:10CAD0000068FDF789BE0000005A0020E4D8070076
:10CAE0002DE9F041224C0025224E207A012730B951
:10CAF0002148311D0068FDF782FE306038B1022008
:10CB000020723168087928B101281CD114E06560D1
:10CB1000BDE8F081D1E90503C01A142800D3142020
:10CB2000B7EB900F01D2820800E001220869C968C2
:10CB30001844194429DF03E0D1E90301084428DF40
:10CB400058B1112812D003213068FDF7C4FC2572BA
:10CB50006560BDE8F041FFF7B9BF207C0028D7D160
:10CB6000BDE8F04100210220FEF7D6BE2772CFE7D4
:10CB7000447F0020FC590020E4D8070010B5074C82
:10CB8000201DFDF755FE002806D1607C002803D14A
:10CB9000BDE81040FFF7A4BF10BD0000447F002097
:10CBA00010B510461A46FBF738FC002010BD10B532
:10CBB00010461A46FBF731FC002010BD2DE9F0416C
:10CBC0001E681C461546074621B1012918D00529C3
:10CBD00023D119E000202060401C2060B0421CD806
:10CBE000012229463846FFF717FE002806D015F81F
:10CBF000010B000601D52068EEE70120BDE8F081B9
:10CC000008200246186002E0042002461860294607
:10CC10003846BDE8F041FFF7FFBD0020EEE770B5F4
:10CC200016460A460446C11C104600F0B3FB0546F2
:10CC300061193046C91C00F0ADFB284470BD0000EE
:10CC400003B5094A85B0D2E91612CDE900120749A9
:10CC50008989ADF8001006A9CDE90210044869469B
:10CC60004088AEDF07B000BD60D707007C5E0020C3
:10CC7000A8590020084670470846704770B5FEF76F
:10CC800011FC114A114E136B546B916CE21A551E34
:10CC9000C5F30B05521B42F2040518446D5802F609
:10CCA000FF72B54201D0032070BD1944A34201D1E7
:10CCB000002070BD0823FDF793FC0028F9D1BDE8E2
:10CCC0007040FEF7DFBB0000D8750020DBE5B151F6
:10CCD000F0B50546002003464FF440540C4E4FF685
:10CCE000FE7712E0D4F804C0B44505D155F823C04E
:10CCF000B4F80CE0F44504D02AB155F823C0BC4583
:10CD000001D10120F0BD5B1CDBB28B42EAD3F0BD48
:10CD1000DBE5B15110B54FF44051174B4A68018A19
:10CD20009A4221D171B100F11403426990F8550083
:10CD300062B1042808D00022BDE81040C9B21846EC
:10CD4000FFF7C6BF002010BD0122F5E710B1012892
:10CD500008D1F7E7012905D9C9B200221846FFF723
:10CD6000B7FFEFE7012010BD11B141690029E9D1FA
:10CD700000780028F6D110BDDBE5B1513EB5044680
:10CD800009496846FEF7E6FF08E000BFD0E9002148
:10CD90002046904730B16846FEF7F3FF029800281E
:10CDA000F4D13EBD11203EBD28DA07003EB5044651
:10CDB00008496846FEF7CEFF07E000BFD0E9002132
:10CDC000204690476846FEF7DCFF02980028F5D120
:10CDD0003EBD000034DA070002460348014B0068FC
:10CDE00000F009B858720020D459002000225821C0
:10CDF000001DFDF73BB92DE9F04114464FF4607575
:10CE00001E460F4680462A46FBF72BFB30B1002218
:10CE100001214046FEF72CF998B905E00CB100203D
:10CE2000A0470020BDE8F0812A4639463046FBF78E
:10CE3000F4FA23462A4631464046FEF72FF90028E9
:10CE4000F0D00320EEE770B516460D46040007D07B
:10CE500035B1206C802200213828225403D307E00A
:10CE60000E2070BD2154401C3828FBD30BE0215408
:10CE7000401C4028FBD32146084600F097F8382193
:10CE80002046FBF7E3FA216CD4E912304A0FC900BF
:10CE9000383459185041C4E90410227CE2710A0A5E
:10CEA00042EA0062A2710A0C42EA00426271020286
:10CEB00042EA116020716069E070010AA170010C02
:10CEC0006170000E04F838092146084600F06EF83B
:10CED0004FF00002EEB1E06ED100C840A854A36E3E
:10CEE000CB40A8180371636ECB400372236ECB4016
:10CEF0000373E36DCB400374A36DCB400375636D87
:10CF0000CB400376236DCB40521C0377042AE2D337
:10CF10001FE018235042216D03EBC000C140A9540B
:10CF2000666DC640A9180E71A66DC6400E72E66DFC
:10CF3000C6400E73266EC6400E74666EC6400E75F1
:10CF4000A66EC6400E76E66EC640521C0E77042AC8
:10CF5000E0D3002070BD0000A8B100210164C0E949
:10CF600012110A4901650A4941650A4981650A4960
:10CF7000C1650A4901660A4941660A4981660A494A
:10CF8000C166002070470E207047000067E6096AFE
:10CF900085AE67BB72F36E3C3AF54FA57F520E51DA
:10CFA0008C68059BABD9831F19CDE05B2DE9F04F51
:10CFB000C8B0002213466F46CC181B1D2588A678E2
:10CFC0006DBA2D04E47845EA0625254347F822503A
:10CFD000521C102AF0D31BE007EB820151F8083CE9
:10CFE0004FEA734484EAF34484EA932451F83C3CC6
:10CFF0004FEAF31585EAB34585EAD303234451F894
:10D000001C4C51F8401C2144194447F82210521C72
:10D01000402AE1D3036D4793416D4691846D459459
:10D02000C26D44929246026E4392456E4295A94665
:10D03000856E4195C66E4096B34600264FEAB217FC
:10D0400087EAF22787EA726C02EA090725EA0208F2
:10D0500087EA0807BC44204F57F8268008EB0B07E7
:10D06000BC445DF82670AB460CEB070E4FEAB307E5
:10D0700087EA733787EAB35C81EA04074D4601EA21
:10D08000040891461F400AEB0E02A24687EA0807F1
:10D090000C46BC441946761C0EEB0C03402ECDD337
:10D0A000479E33440365469B194441654599214495
:10D0B000816544995144C16543991144016642997F
:10D0C0004944416641992944816640995944C16661
:10D0D00048B0BDE8F08F000014D907002DE9F041F9
:10D0E00016460F46040004D006B317B10025A84623
:10D0F0001AE00E20BDE8F081216C785D6054206C50
:10D10000401C206440280ED121460846FFF74EFF00
:10D11000D4E912014FF40072801841F10001C4F803
:10D120004080C4E912016D1CB542E5D30020E1E75F
:10D1300010B51620FCF718FB48B10C4882684FF474
:10D14000800152B1016821F48001016010BDBDE889
:10D15000104042F20100FCF7A1BB4FF0E020C0F804
:10D160008011BFF34F8FBFF36F8F10BD4C7D002038
:10D1700010B51620FCF7F8FAA0B1114890F8000499
:10D180004009082811D20121814011F0EC0F0CD088
:10D190000C4882684FF480016AB1016841F4800153
:10D1A000016010BD42F2010001E042F20200BDE860
:10D1B0001040FCF773BB4FF0E020C0F8001110BD29
:10D1C00016E000E04C7D00207FB52A4800F15C01AC
:10D1D000826B6846FFF7E8FA274E9DE8070006F1E4
:10D1E0001C03274C83E8070019462448C860002028
:10D1F000A0706060A0604FF44771A6F54070FBF727
:10D2000025F9A6F540721F4902F54770FFF754F85B
:10D2100000282BD0A07858B3A6F5407090F86C1178
:10D22000002901781CD019BB90F8720100B3D4E931
:10D230000112A6F5C6756846FFF7B6FA9DE80F001D
:10D240001C3686E80F004FF4B2712846FBF7FEF853
:10D250002A460D493046FFF72FF8002806D003E094
:10D2600031B1807920B1094D0120E56004B070BD75
:10D270000020FBE7D8750020587C0020F9C5070086
:10D28000D859002030D7070010D607006079002059
:10D2900070B503466FF07F40814200D20846124DC0
:10D2A000D5F804250244081A411E22F07F42586036
:10D2B000952902D29630963A58601C7B05EB840083
:10D2C000C0F8402509494FF4F86088474FF4A07032
:10D2D00000EB84012846FEF7FDFB4FF48030A040B0
:10D2E000C5F8040370BD00000040024081D507006E
:10D2F00070B5174E3078002829D1164800680125EE
:10D30000C0F3004008B914480560144C4FF4807114
:10D310002046FEF7DFFB4FF4A0712046FEF7DAFB54
:10D320004FF4A2712046FEF7D5FB0D49A02081F8ED
:10D3300000040B4910202039C1F800010020C4F876
:10D340000805A56025600220C4F80403357070BD8F
:10D3500070590020180400400800004000400240BE
:10D3600024E000E070B515460E460446FFF7C0FF06
:10D37000314620462560BDE87040FFF789BF0000B8
:10D38000017B4FF4803088400149C1F808037047A1
:10D39000004002400870020A4A70020C8A70000EB7
:10D3A000C87004207047000010B50248FDF73DFA30
:10D3B000002010BDF859002010B514210448FBF7D7
:10D3C00045F804480068FDF7E9F9002010BD0000A9
:10D3D000447F0020E4D8070030B50F2490F8553082
:10D3E00000220BB1042B03D190F86450012D06D01C
:10D3F000DD0707D090F85650012D02D002E0826E72
:10D400000DE0826D9B070AD590F85C30012B06D1A8
:10D41000064B006EC3F5FC23984205D802440AB1BE
:10D4200001240A60204630BD0424FBE70080070089
:10D4300030B100680549884205D048F20250704773
:10D4400048F2015070470020704700006E52464875
:10D4500070B5FEF7EDFC002811D00020084A094BFA
:10D46000094C0121166801FA00F52E4203D004EBA5
:10D470008005C5F80036401CC0B20728F2D370BD45
:10D48000080501403546526E00000140FFF7E0BF3D
:10D4900000207047002070472DE9FC4180461C4663
:10D4A00017460E460C48089DFDF7C2F910B1112031
:10D4B000BDE8FC81A20839463046FEF7E9FA064885
:10D4C000FDF7B3F933463A4601214046CDE9004520
:10D4D000FCF7E6FF0020EBE7F85900202DE9F84FB4
:10D4E000114D884681461E4617466946DDF828A03C
:10D4F0002868FDF76EF9040013D01C21FAF7A6FF87
:10D5000000202071C4F80090C4E90486C4E902A791
:10D5100069462868FDF77EF9FFF730FB0020BDE87B
:10D52000F88F0420FBE70000E4D807009D1C93520D
:10D5300075D6B8A65DAA70347972CEF841088761B5
:10D54000324F4CB32D3539E58FC93B1EFB84F28A2F
:10D550001A96C3CF66741F7816E398D7267F90B4C7
:10D560000A52184801F0D49BBC734CC7191A1B1FF0
:10D57000150E0F1000000000000000000000000069
:10D580000338FDD87047000025BE07002BBE0700FA
:10D5900001BE07002000000078000000000000002D
:10D5A0004800280000204000A1870700000000007C
:10D5B0000100010000000000010000000000000068
:10D5C0000200050001000000220000000000000031
:10D5D000000000000000000000000000000000004B
:10D5E0000100010000000000010000000000000038
:10D5F00002000500010000004200000000000000E1
:10D60000000000000000000000000000000000001A
:10D61000010011000400FCFF0400000000000000F5
:10D62000020011000400FCFF0400000000000000E4
:10D63000030021000400FCFF0400100000000000B3
:10D64000040011000100FFFF0100000000000000C5
:10D65000050011000200FEFF0400000000000000B1
:10D66000060011000400FCFF0400000000000000A0
:10D67000070011000400FCFF04000000000000008F
:10D68000080017000200FEFF24000000B0D50700CC
:10D69000090010000100FFFF01000000ACD50700E9
:10D6A0000A0027000200FEFF44000300E0D5070047
:10D6B000000000000000000000000000000000006A
:10D6C000010011000100FFFF010000000000000048
:10D6D000020017000200FEFF6401000010D60700E0
:10D6E000000000000000000000000000000000003A
:10D6F000010007000000000068010000C0D607001C
:10D700000200010000000000010000000000000015
:10D7100003000500010000004200000000000000BE
:10D7200000000000000000000000000000000000F9
:10D73000010017000400FCFF68010000C0D60700CC
:10D74000020017000400FCFFAC010000F0D6070047
:10D7500000000000000000000000000000000000C9
:10D76000001103000011130002000000010000007E
:10D770000338FDD870470C000C0000005802000070
:10D780000200000000000000020000000000000095
:10D79000405E0020090000000000000000000000C2
:10D7A0000100000000000000280000000000000050
:10D7B0000000000000010000000001000000000067
:10D7C0000000000000000000000000000000000059
:10D7D000519B070000000000000000000000000056
:10D7E0000200000000000100000000000000000036
:10D7F0000800000000000000519B070051C0070016
:10D800000000000000000000040000000000000014
:10D810000000000000000000000000000000000008
:10D8200000000000000000000000000000000000F8
:10D83000F4000000000000001800000000000000DC
:10D8400000000000000000000000000000000000D8
:10D8500000000000000000000000000000000000C8
:10D86000170000000000000050EADA308883B89FFB
:10D87000604F15F30000C98E020000000000000098
:10D880000000000000000000040000000000000094
:10D890000000000000000000000000000000000088
:10D8A0000001000000000000000000000000000077
:10D8B0000000000000000000001000000400000054
:10D8C0000100000079A60700A9D30700A1CB07003B
:10D8D00099D407000DA4070075CC070091D4070068
:10D8E000BDA60700587D00200010000004000000C5
:10D8F0000100000085A60700B9D30700AFCB0700E1
:10D90000DDD4070055A4070079CC070095D40700A3
:10D91000CDA60700982F8A4291443771CFFBC0B53E
:10D92000A5DBB5E95BC25639F111F159A4823F92EA
:10D93000D55E1CAB98AA07D8015B8312BE85312443
:10D94000C37D0C55745DBE72FEB1DE80A706DC9B04
:10D9500074F19BC1C1699BE48647BEEFC69DC10FB0
:10D96000CCA10C246F2CE92DAA84744ADCA9B05CEC
:10D97000DA88F97652513E986DC631A8C82703B0AF
:10D98000C77F59BFF30BE0C64791A7D55163CA06BD
:10D9900067292914850AB72738211B2EFC6D2C4DC9
:10D9A000130D385354730A65BB0A6A762EC9C281B7
:10D9B000852C7292A1E8BFA24B661AA8708B4BC24D
:10D9C000A3516CC719E892D1240699D685350EF477
:10D9D00070A06A1016C1A419086C371E4C7748272E
:10D9E000B5BCB034B30C1C394AAAD84E4FCA9C5BA4
:10D9F000F36F2E68EE828F746F63A5781478C884F5
:10DA00000802C78CFAFFBE90EB6C50A4F7A3F9BED6
:10DA1000F27871C6D0DB0700D8DB070000000000F9
:10DA2000000000000100000714DA070024DA0700F4
:10DA3000080000004CDA07005CDA0700080000006C
:10DA40005CDA07006CDA070008000000F0DB070072
:10DA5000F8DB07000000000000000000E0DB07002A
:10DA6000F0DB0700000000000000000000000000E4
:10DA7000000000000000000000000000C8DB0700FC
:10DA8000D0DB070000000000000000006859002003
:10DA90006CDA07008CDA070008000000D8DB07000A
:10DAA000E0DB070000000000000000009CDA070037
:10DAB000ACDA07000800000061C2070009C20700D5
:10DAC000B1C1070027C107002DC10700E5C007004D
:10DAD00033C1070071C107000000000008200001E9
